:020000040800F2
:1000000070070020D5010008B10D0008D1060008D6
:10001000AD0D000895040008AB24000800000000A6
:100020000000000000000000000000003D0F00087C
:100030009904000800000000250E00085110000877
:10004000EF010008EF010008EF010008EF010008D0
:10005000EF010008EF010008EF010008EF010008C0
:10006000EF010008EF010008EF010008EF010008B0
:10007000EF010008EF010008EF010008EF010008A0
:10008000EF010008EF010008EF010008EF01000890
:10009000EF010008EF010008EF010008EF01000880
:1000A000EF010008EF010008EF010008EF01000870
:1000B000EF010008EF010008EF010008EF01000860
:1000C000EF010008EF010008EF010008EF01000850
:1000D000EF01000889220008EF010008EF01000885
:1000E000EF010008EF010008EF010008EF01000830
:1000F000EF010008EF010008EF010008EF01000820
:10010000EF010008EF010008EF010008EF0100080F
:10011000EF010008EF010008EF010008EF010008FF
:10012000EF010008EF010008EF010008EF010008EF
:1001300000F002F800F03FF80AA090E8000C8244BA
:100140008344AAF10107DA4501D100F034F8AFF297
:10015000090EBAE80F0013F0010F18BFFB1A43F0A5
:1001600001031847443E0000643E0000103A24BFDB
:1001700078C878C1FAD8520724BF30C830C144BF0C
:1001800004680C607047000000230024002500264E
:10019000103A28BF78C1FBD8520728BF30C148BFEA
:1001A0000B607047782900F04380002070471FB52E
:1001B0001FBD10B510BD00F03DF91146FFF7F7FF68
:1001C00002F0E8F900F05BF903B4FFF7F2FF03BCBB
:1001D00002F06DF90948804709480047FEE7FEE74D
:1001E000FEE7FEE7FEE7FEE7FEE7FEE7FEE7FEE7E7
:1001F00004480549054A064B7047000055100008A1
:1002000031010008700100207007002070030020F9
:1002100070030020704700000FB4044910B503AA12
:10022000029800F0D9F810BC5DF814FB2C000020F7
:1002300070B504460D4621461068AFF30080218852
:10024000090502D50F4A7A4402E00E4A7A440E327A
:10025000002104F1240305E000F00F060009965D7B
:100260005E54491C0028F7D120780023000704D5EC
:10027000702D02D009B1022311322046BDE8704032
:1002800000F050B8223D00002DE9F0410F46044631
:100290000020DFF88480F84420622046E168884727
:1002A00090B3252806D0D4E901219047206A401C4C
:1002B0002062F2E700252046E168884720280646AC
:1002C00008DB312E06D208EB060010F8200C08B12E
:1002D0000543F0E7A80701D525F00405A6B1A6F16E
:1002E0004100192802D8203645F400653A463146C7
:1002F00020462560FFF756FF48B1012805D0FF1DB5
:1003000027F007070837C8E703E03F1DC5E7304679
:10031000C9E7206ABDE8F081FA3C000070477047E9
:10032000704770472DE9F0470D46994692460446BE
:1003300000F124080168880604D5E06921F0100165
:10034000216000E00120A84201DD471B00E00027FA
:10035000A1697A1902EB0900081AA0612078C00689
:1003600002D42046AFF30080002608E0D4E9012142
:100370001AF806009047206A401C761C20624E4501
:10038000F4DB2078C0060AD52046AFF3008006E0F3
:10039000D4E9012130209047206A401C2062381E99
:1003A000A7F10107F4DC07E0D4E9012118F8050002
:1003B0009047206A401C2062281EA5F10105F3DC4D
:1003C0002046AFF300802078000602D50220BDE869
:1003D000F0870120FBE70000074B70B50D467B441A
:1003E00000F011F80446284600F020F810B14FF054
:1003F000FF3070BD204670BD6321000001694A1CBA
:1004000002610878704700B58FB0CDE90131002155
:10041000059105497944CDE9031011466846FFF777
:1004200033FF0FB000BD0000E5FFFFFF007B00F0D1
:1004300080007047754600F029F8AE460500694611
:10044000534620F00700854618B020B5FFF7D0FED0
:10045000BDE820404FF000064FF000074FF00008C5
:100460004FF0000B21F00701AC46ACE8C009ACE846
:10047000C009ACE8C009ACE8C0098D467047044625
:10048000AFF300802046FFF79FFE00000048704752
:100490000C01002000BFFEE77047000051B1820050
:1004A000A2F1C042126842F001038200A2F1C042F0
:1004B000136009E08200A2F1C0421268034B1A40A7
:1004C0008300A3F1C0431A6070470000FEFF0F00D5
:1004D000D0E901121143C268114302691143426914
:1004E000114382691143C2691143026A1143426A8E
:1004F0001143826A1143C26A1143026B11430268BD
:100500009200A2F1C0421160816808290BD10168F4
:100510008900A1F1C041096841F0400201688900E9
:10052000A1F1C0410A60416B0968426B526841EA1F
:100530000211426B926841EA0221426B928941EAC0
:100540000241426B128A41EA0251426B127D41EA3A
:100550000261426B926911430268521C9200A2F13F
:10056000C0421160C16AB1F5804F1BD1816B09682F
:10057000826B526841EA0211826B926841EA022161
:10058000826B128A41EA0251826B127D41EA02615A
:10059000826B9269114302689200A2F1C042C2F8D4
:1005A000041107E06FF0704201688900A1F1C041B9
:1005B000C1F8042170472DE9F041024600250026CC
:1005C000002000230024002791F803C00CF00F0541
:1005D00091F803C00CF0100CBCF1000F03D091F89F
:1005E00002C04CEA050591F800C0BCF1000F31D003
:1005F000146800202BE04FF0010C0CFA00F3B1F866
:1006000000C00CEA03069E4220D183004FF00F0C7D
:100610000CFA03F7BC4305FA03FC4CEA040491F816
:1006200003C0BCF1280F06D14FF0010C0CFA00FCFE
:10063000C2F814C00AE091F803C0BCF1480F05D11C
:100640004FF0010C0CFA00FCC2F810C0401C082846
:10065000D1D31460B1F800C0BCF1FF0F34DD546891
:1006600000202EE000F1080C4FF0010808FA0CF30E
:10067000B1F800C00CEA03069E4221D183004FF07E
:100680000F0C0CFA03F7BC4305FA03FC4CEA040414
:1006900091F803C0BCF1280F05D100F1080C08FA4D
:1006A0000CF8C2F8148091F803C0BCF1480F07D1D0
:1006B00000F1080C4FF0010808FA0CF8C2F810809D
:1006C000401C0828CED35460BDE8F081016170471A
:1006D00000BFFEE770B505460D4840880C49098803
:1006E00000FB01F60A48808845F21031884203D1A8
:1006F0000021084600F0E6F900F046FB002403E084
:10070000284600F03BFB641CB442F9D370BD0000E6
:10071000FC00002010B50446B4B9002017498871C8
:100720000846808845F21031884223D14FF4F0709A
:10073000124948804FF4A07008802A2048812B205D
:1007400088812C20088115E001200C498871084619
:10075000808845F2103188420CD14FF4A0700749CF
:1007600048804FF4F07008802A2048812B2088812F
:100770002C200881002000F035F910BDFC0000207D
:100780002DE9FF4F83B08146CB46049802900020AC
:10079000019000900598A0EB0905069904980E1A9F
:1007A000002D01DD012705E00DB9002702E04FF023
:1007B000FF376D42002E02DD4FF0010806E016B94A
:1007C0004FF0000802E04FF0FF387642B54201DDFD
:1007D0002C4600E034464FF0000A1FE058460299CC
:1007E00000F022F8019828440190009830440090CD
:1007F0000198A04206DD0198001B01900BEB070059
:100800001FFA80FB0098A04206DD0098001B0090B4
:100810000298404480B202900AF1010A601C8245AD
:10082000DCDD07B0BDE8F08F30B504460D46294643
:10083000204600F047F900F0A7FA4FF4784000F0A6
:100840009DFA30BDF0B504460D4616461F462B46B0
:10085000324629462046FFF793FF3B46224629466B
:100860002046FFF78DFF3B46324639462046FFF7CC
:1008700087FF3B46324629463046FFF781FFF0BDF1
:100880002DE9F04306460F469046002445460320D6
:10089000A0EB48093CE07A1B91B2321990B2FFF705
:1008A000C3FF3A1B91B2721990B2FFF7BDFF3A191C
:1008B00091B2721990B2FFF7B7FF7A1991B232195B
:1008C00090B2FFF7B1FF7A1991B2321B90B2FFF7E5
:1008D000ABFF3A1991B2721B90B2FFF7A5FF7A1BDA
:1008E00091B2321B90B2FFF79FFF3A1B91B2721B7D
:1008F00090B2FFF799FF641CB9F1000F03DAA00072
:10090000801D814404E0601B80000A3081446D1E1C
:10091000AC42C0DDBDE8F08310B50F4B9B8845F2BB
:100920001034A34211D10C4B5B890C4C2380031271
:10093000A41C2380C3B22380074B9B89A41E238061
:100940000B12A41C2380CBB22380034B1B89034CC6
:100950002380A31C1A8010BDFC000020FE07006C41
:100960002DE9F04705460E4617469846DDF820A0CB
:10097000344615E02146284600F0A4F800F004FAB9
:100980004FF0000906E0504600F0F8F909F10100C7
:100990001FFA80F9781B401C4845F4DC601C84B2C7
:1009A0004445E7DDBDE8F08710B50246012000E0D0
:1009B00050430B00A1F10104A1B2F9D110BD000018
:1009C00008B5034800880090BDF8000008BD00008D
:1009D0000008006C00B50246104600F0C9F9FFF7A8
:1009E000EFFF00BD70B5044635488079F0B134485A
:1009F000808845F21031884218D1082C15D2DFE8E2
:100A000004F00406080A0C0E101206240DE0072458
:100A10000BE0042409E0052407E0012405E000249C
:100A200003E0032401E0022400BF00BF24488088C3
:100A300045F21031884218D1082C15D2DFE804F0B5
:100A40000406080A0C0E101200230DE080230BE0B0
:100A5000402309E0C02307E0202305E0602303E0F2
:100A6000A02301E0E02300BF00BF1548808845F2C5
:100A70001031884200D136261946304600F08EF9F2
:100A800003F0200068B10E4800880D49498888426B
:100A900014DA0B48058840880949088008464580D3
:100AA0000CE00748008806494988884206DD04486A
:100AB00005884088024908800846458070BD0000CE
:100AC000FC00002000B502460B460D48808845F228
:100AD0001031884213D10A49488900F049F91012AF
:100AE00000F040F9D0B200F03DF90549888900F0E6
:100AF0003FF9181200F036F9D8B200F033F900BD12
:100B0000FC00002030B50F4C64890F4D2C8004127E
:100B1000AD1C2C80C4B22C80841824122C80841824
:100B2000E4B22C80074CA489AD1E2C800C12AD1CA5
:100B30002C80CCB22C80CC1824122C80CC18E4B29F
:100B40002C8030BDFC000020FE07006C2DE9FF4F1B
:100B500081B080460E461C463746039820381FFA5F
:100B600080F92046E31704EB5373DB1021464FEA6C
:100B7000E47C04EB5C7C4FEAEC0CA4EBCC0CBCF109
:100B8000000F02D04FF0010C01E04FF0000C634465
:100B9000224604EBD27C4FEA6C0C03FB0CF39BB2B5
:100BA0000093002556E00C2C07D109EB49002C4995
:100BB00001EB800010F805B014E0102C05D1294895
:100BC00000EB091010F805B00CE0182C07D109EB68
:100BD000C900254901EB800010F805B002E005B01E
:100BE000BDE8F08F4FF0000A2EE00BF0800030B12E
:100BF0004FF4784239464046FFF78EFE07E00E98E4
:100C000028B14FF4FC6239464046FFF785FE4FF6A7
:100C1000FF7000EA4B0B781C87B214484088B8423A
:100C200000DADCE7B81BA0420ADB374608F1010016
:100C30001FFA80F80D480088404500DACFE706E04B
:100C40000AF101001FFA80FABAF1080FCDDB00BFEC
:100C5000681C85B200988542A5DB00BFBFE7000095
:100C6000AC270008202C000810320008FC000020EF
:100C70002DE9FF4F82B0074691461E46DDE90F5A27
:100C80000120019000243BE0301B401E81B20A206D
:100C9000FFF78AFEB9FBF0F00A21B0FBF1F201FB8D
:100CA0001208BAF1000F18D00198B0B1701EA0421E
:100CB00013DDB8F1000F0ED10120AB4605EBDB715F
:100CC000491001FB0471009088B22B462022039941
:100CD000FFF73CFF12E0002001900120AB4605EB3E
:100CE000DB71491001FB0471009088B208F13001FA
:100CF000CAB22B460399FFF729FF00BF601C84B2DC
:100D0000B442C1DB06B0BDE8F08F2DE9F84F804654
:100D10000E4691469A46DDE90A45002719E0012072
:100D2000A34604EBDB71491001FB0781009088B2F8
:100D30002A7823463146FFF709FF781C87B26D1CDD
:100D40004F4506DB0027301986B2564501DBBDE86A
:100D5000F88F2878202802DB28787E28DFDD00BF86
:100D6000F5E7000001490880704700000008006CAA
:100D70000149088070470000FE07006C01490880A7
:100D8000704700000008006C024800890249088092
:100D900070470000FC000020FE07006C024A108033
:100DA000921C118070470000FE07006C00BFFEE738
:100DB0007047000070B5002100230F22C47804B3EF
:100DC000154C246804F4E064C4F5E064210AC1F120
:100DD0000403CA40447804FA03F1847814402143A0
:100DE00009010E4C0678A155047804F01F05012472
:100DF000AC4005786D11AD0005F1E025C5F8004166
:100E000009E0047804F01F050124AC40044D067885
:100E1000761145F8264070BD0CED00E000E400E0DE
:100E200080E100E07047000029B1064A52690243A0
:100E3000044B5A6104E0034A52698243014B5A61F0
:100E4000704700000010024029B1064A926902432F
:100E5000044B9A6104E0034A92698243014B9A6110
:100E6000704700000010024030B50021002200242D
:100E700000232D4D6D6805F00C0121B1042905D02A
:100E8000082923D105E0294D056022E0274D0560A2
:100E90001FE0254D6D6805F47012234D6D6805F453
:100EA0008034022505EB92421CB9214D5543056063
:100EB0000BE01D4D6D6805F400351DB11C4D55430B
:100EC000056002E0194D5543056002E0174D0560CD
:100ED00000BF00BF144D6D6805F0F0010909154D04
:100EE0006B5C0568DD4045600F4D6D6805F4E061A1
:100EF000090A104D6B5C4568DD4085600A4D6D68E0
:100F000005F46051C90A0B4D6B5C4568DD40C56056
:100F1000054D6D6805F44041890B074D6B5CC56854
:100F2000B5FBF3F5056130BD0010024000127A00F8
:100F300000093D001400002024000020704710B577
:100F400000F002F810BD00000CB5002001900090E8
:100F50003348006840F480303149086000BF3048B1
:100F6000006800F4003000900198401C0190009847
:100F700018B90198B0F5A06FF1D12948006800F4C4
:100F8000003010B10120009001E000200090009896
:100F9000012843D12348006840F01000214908602F
:100FA0000846006820F0030008600846006840F02A
:100FB000020008601A4840681949486008464068BD
:100FC00048600846406840F48060486008464068D1
:100FD00020F47C1048600846406840F4E8104860FF
:100FE0000846006840F08070086000BF0C48006848
:100FF00000F000700028F9D00948406820F0030094
:10100000074948600846406840F00200486000BF59
:101010000348406800F00C000828F9D10CBD00001E
:101020000010024000200240042808D14FF0E021C7
:10103000096941F004014FF0E022116107E04FF02F
:10104000E021096921F004014FF0E02211617047AD
:101050007047000010B51348006840F001001149C6
:10106000086008464068104908400E494860084634
:1010700000680E4908400B4908600846006820F4E3
:10108000802008600846406820F4FE0048604FF465
:101090001F008860FFF753FF4FF0006004490860AD
:1010A00010BD0000001002400000FFF8FFFFF6FE38
:1010B00008ED00E000B59FB001210802FFF7B4FE83
:1010C00001214FF4B470FFF7BFFE10208DF87B00B4
:1010D0000120ADF8780003208DF87A001EA9FE48A3
:1010E000FFF769FA18208DF87B004CF23370ADF8E9
:1010F00078001EA9F948FFF75EFA4FF68070ADF848
:1011000078001EA9F648FFF756FA41F20100ADF843
:1011100078001EA9F348FFF74EFA00200E900990C0
:101120000120089000200B900C900D900F200A9049
:1011300000200790029001900490059006900320F3
:1011400003900020149006200F9000201390109020
:101150004FF480401A9010201290002011901990A6
:10116000179015901B9016904FF48050189008A877
:101170001C9001A81D900FA8FFF7AAF901210620D5
:10118000FFF78CF9322001F0B7F90020FFF722FCBD
:10119000D549888008468088FF280ADB0846808871
:1011A0004FF6FF71884204D0CF488088B0F5134FC6
:1011B0007ED1D320FFF7DCFDFFF702FCCA4988800F
:1011C000FFF7FEFBC8498880FFF7FAFBC649888015
:1011D000084680884FF6FF7101EA0020C2498880E6
:1011E000FFF7EEFBC04989880843BF49888008465D
:1011F000808849F2413188425AD0BF20FFF7B8FDBC
:10120000FFF7DEFBB8498880FFF7DAFBB649888034
:10121000FFF7D6FBB4498880FFF7D2FBB24988803C
:10122000084680884FF6FF7101EA0020AE498880A9
:10123000FFF7C6FBAC4989880843AB49888008465C
:10124000808846F6040188427AD0D420FFF790FDCA
:10125000FFF7B6FBA4498880FFF7B2FBA24988805C
:10126000FFF7AEFBA0498880084680884FF6FF71E3
:1012700001EA00209C498880FFF7A2FB9A498988EF
:101280000843994988800846808845F21031884291
:1012900056D04FF45A40FFF76BFDFFF791FB924990
:1012A00088804FF45B40FFF763FDFFF789FB00E0A8
:1012B00046E08D498880084680884FF6FF7101EA34
:1012C0000020894988804FF45C40FFF751FDFFF70B
:1012D00077FB854989880843834988800846808848
:1012E000B0F5004F02D145F2105088807E488088CA
:1012F00045F21051884223D0A120FFF739FDFFF7B6
:101300005FFB79498880FFF75BFB77498880084657
:1013100080884FF6FF7101EA002073498880FFF74B
:101320004FFB7149898808436F4988800846808847
:1013300045F26171884203D141F663106A498880A1
:101340006948818869A0FEF767FF6748808845F291
:101350001031884240F08987ED20FFF709FD012018
:10136000FFF700FDFE20FFF7FDFCEE20FFF700FD7C
:10137000DE20FFF7F7FC2120FFF7F4FCF120FFF758
:10138000F7FC0120FFF7EEFCDF20FFF7F1FC102057
:10139000FFF7E8FCC420FFF7EBFC8F20FFF7E2FC2F
:1013A000C620FFF7E5FC0020FFF7DCFCE220FFF79A
:1013B000D9FCE220FFF7D6FCE220FFF7D3FCBF20E8
:1013C000FFF7D6FCAA20FFF7CDFCB020FFF7D0FC3A
:1013D0000D20FFF7C7FC0020FFF7C4FC0D20FFF72E
:1013E000C1FC0020FFF7BEFC1120FFF7BBFC002072
:1013F000FFF7B8FC1920FFF7B5FC0020FFF7B2FC9F
:101400002120FFF7AFFC0020FFF7ACFC2D20FFF7F9
:10141000A9FC0020FFF7A6FC3D20FFF7A3FC00205D
:10142000FFF7A0FC5D20FFF79DFC0020FFF79AFC72
:101430005D20FFF797FC0020FFF794FCB120FFF739
:1014400097FC8020FFF78EFC0020FFF78BFC8B20A1
:10145000FFF788FC0020FFF785FC9620FFF782FC51
:101460000020FFF77FFCB220FFF782FC0020FFF78F
:1014700079FC0020FFF776FC0220FFF773FC0020C8
:10148000FFF770FC0320FFF76DFC0020FFF76AFCFC
:10149000B320FFF76DFC0020FFF764FC0020FFF78E
:1014A00061FC0020FFF75EFC0020FFF75BFC0020E2
:1014B000FFF758FC0020FFF755FC0020FFF752FC17
:1014C0000020FFF74FFC0020FFF74CFC0020FFF747
:1014D00049FC002010E00000000C01400014014015
:1014E0000018014000200140FC0000204C43442033
:1014F00049443A2025235800FFF734FC0020FFF729
:1015000031FC0020FFF72EFC0020FFF72BFC002011
:10151000FFF728FC0020FFF725FC0020FFF722FC46
:101520000020FFF71FFC0020FFF71CFC0020FFF746
:1015300019FC0020FFF716FC0020FFF713FC002029
:10154000FFF710FC0020FFF70DFCB420FFF710FCA4
:101550008B20FFF707FC0020FFF704FC9620FFF725
:1015600001FC0020FFF7FEFBA120FFF7FBFB0020A2
:10157000FFF7F8FBB520FFF7FBFB0220FFF7F2FBBC
:101580000020FFF7EFFB0320FFF7ECFB0020FFF745
:10159000E9FB0420FFF7E6FB0020FFF7E3FBB620A2
:1015A000FFF7E6FB0020FFF7DDFB0020FFF7DAFB8B
:1015B000B720FFF7DDFB0020FFF7D4FB0020FFF78B
:1015C000D1FB3F20FFF7CEFB0020FFF7CBFB5E20D7
:1015D000FFF7C8FB0020FFF7C5FB6420FFF7C2FB45
:1015E0000020FFF7BFFB8C20FFF7BCFB0020FFF7BC
:1015F000B9FBAC20FFF7B6FB0020FFF7B3FBDC2004
:10160000FFF7B0FB0020FFF7ADFB7020FFF7AAFB50
:101610000020FFF7A7FB9020FFF7A4FB0020FFF7B7
:10162000A1FBEB20FFF79EFB0020FFF79BFBDC20DC
:10163000FFF798FB0020FFF795FBB820FFF798FB1A
:101640000020FFF78FFB0020FFF78CFB0020FFF747
:1016500089FB0020FFF786FB0020FFF783FB0020BB
:10166000FFF780FB0020FFF77DFB0020FFF77AFBF0
:10167000BA20FFF77DFB2420FFF774FB0020FFF763
:1016800071FB0020FFF76EFB0020FFF76BFBC12012
:10169000FFF76EFB2020FFF765FB0020FFF762FBE2
:1016A0005420FFF75FFB0020FFF75CFBFF20FFF7F4
:1016B00059FB0020FFF756FBC220FFF759FB0A2019
:1016C000FFF750FB0020FFF74DFB0420FFF74AFB1C
:1016D0000020FFF747FBC320FFF74AFB3C20FFF742
:1016E00041FB0020FFF73EFB3A20FFF73BFB0020C9
:1016F000FFF738FB3920FFF735FB0020FFF732FBFF
:101700003720FFF72FFB0020FFF72CFB3C20FFF7D3
:1017100029FB0020FFF726FB3620FFF723FB0020E4
:10172000FFF720FB3220FFF71DFB0020FFF71AFB1D
:101730002F20FFF717FB0020FFF714FB2C20FFF7EB
:1017400011FB0020FFF70EFB2920FFF70BFB002009
:10175000FFF708FB2620FFF705FB0020FFF702FB41
:101760002420FFF7FFFA0020FFF7FCFA2420FFF700
:10177000F9FA0020FFF7F6FA2320FFF7F3FA00202A
:10178000FFF7F0FA3C20FFF7EDFA0020FFF7EAFA46
:101790003620FFF7E7FA0020FFF7E4FA3220FFF7E0
:1017A000E1FA0020FFF7DEFA2F20FFF7DBFA002036
:1017B000FFF7D8FA2C20FFF7D5FA0020FFF7D2FA6E
:1017C0002920FFF7CFFA0020FFF7CCFA2620FFF7F9
:1017D000C9FA0020FFF7C6FA2420FFF7C3FA002059
:1017E000FFF7C0FA2420FFF7BDFA0020FFF7BAFA8E
:1017F0002320FFF7B7FA0020FFF7B4FAC420FFF761
:10180000B7FA6220FFF7AEFA0020FFF7ABFA052027
:10181000FFF7A8FA0020FFF7A5FA8420FFF7A2FA45
:101820000020FFF79FFAF020FFF79CFA0020FFF757
:1018300099FA1820FFF796FA0020FFF793FAA420F0
:10184000FFF790FA0020FFF78DFA1820FFF78AFAC9
:101850000020FFF787FA5020FFF784FA0020FFF7F7
:1018600081FA0C20FFF77EFA0020FFF77BFA1720A1
:10187000FFF778FA0020FFF775FA9520FFF772FA64
:101880000020FFF76FFAF320FFF76CFA0020FFF754
:1018900069FAE620FFF766FA0020FFF763FAC52031
:1018A000FFF766FA3220FFF75DFA0020FFF75AFAD9
:1018B0004420FFF757FA0020FFF754FA6520FFF79E
:1018C00051FA0020FFF74EFA7620FFF74BFA00207E
:1018D000FFF748FA8820FFF745FA0020FFF742FAA1
:1018E000C620FFF745FA2020FFF73CFA0020FFF75B
:1018F00039FA1720FFF736FA0020FFF733FA0120F4
:10190000FFF730FA0020FFF72DFAC720FFF730FA73
:101910000020FFF727FA0020FFF724FA0020FFF746
:1019200021FA0020FFF71EFAC820FFF721FA002055
:10193000FFF718FA0020FFF715FA0020FFF712FA58
:101940000020FFF70FFAC920FFF712FA0020FFF777
:1019500009FA0020FFF706FA0020FFF703FA00203B
:10196000FFF700FA0020FFF7FDF90020FFF7FAF972
:101970000020FFF7F7F90020FFF7F4F90020FFF748
:10198000F1F90020FFF7EEF90020FFF7EBF9002056
:10199000FFF7E8F90020FFF7E5F90020FFF7E2F98B
:1019A0000020FFF7DFF90020FFF7DCF9E020FFF768
:1019B000DFF91620FFF7D6F90020FFF7D3F91C2036
:1019C000FFF7D0F90020FFF7CDF92120FFF7CAF982
:1019D0000020FFF7C7F93620FFF7C4F90020FFF712
:1019E000C1F94620FFF7BEF90020FFF7BBF95220EE
:1019F000FFF7B8F90020FFF7B5F96420FFF7B2F957
:101A00000020FFF7AFF97A20FFF7ACF90020FFF7CD
:101A1000A9F98B20FFF7A6F90020FFF7A3F9992079
:101A2000FFF7A0F90020FFF79DF9A820FFF79AF92A
:101A30000020FFF797F9B920FFF794F90020FFF78E
:101A400091F9C420FFF78EF90020FFF78BF9CA2027
:101A5000FFF788F90020FFF785F9D220FFF782F918
:101A60000020FFF77FF9D920FFF77CF90020FFF76E
:101A700079F9E020FFF776F90020FFF773F9F320FA
:101A8000FFF770F90020FFF76DF9E120FFF770F91B
:101A90001620FFF767F90020FFF764F91C20FFF715
:101AA00061F90020FFF75EF92220FFF75BF90020C3
:101AB000FFF758F93620FFF755F90020FFF752F9E4
:101AC0004520FFF74FF90020FFF74CF95220FFF7B0
:101AD00049F90020FFF746F96420FFF743F9002099
:101AE000FFF740F97A20FFF73DF90020FFF73AF9B8
:101AF0008B20FFF737F90020FFF734F99920FFF723
:101B000031F90020FFF72EF9A820FFF72BF900206C
:101B1000FFF728F9B920FFF725F90020FFF722F990
:101B2000C420FFF71FF90020FFF71CF9CA20FFF7B8
:101B300019F90020FFF716F9D220FFF713F900205A
:101B4000FFF710F9D820FFF70DF90020FFF70AF989
:101B5000E020FFF707F90020FFF704F9F320FFF773
:101B600001F90020FFF7FEF8E220FFF701F9052058
:101B7000FFF7F8F80020FFF7F5F80B20FFF7F2F871
:101B80000020FFF7EFF81B20FFF7ECF80020FFF72D
:101B9000E9F83420FFF7E6F80020FFF7E3F84420E7
:101BA000FFF7E0F80020FFF7DDF84F20FFF7DAF845
:101BB0000020FFF7D7F86120FFF7D4F80020FFF7E7
:101BC000D1F87920FFF7CEF80020FFF7CBF8882076
:101BD000FFF7C8F80020FFF7C5F89720FFF7C2F815
:101BE0000020FFF7BFF8A620FFF7BCF80020FFF7A2
:101BF000B9F8B720FFF7B6F80020FFF7B3F8C22016
:101C0000FFF7B0F80020FFF7ADF8C720FFF7AAF8FC
:101C10000020FFF7A7F8D120FFF7A4F80020FFF776
:101C2000A1F8D620FFF79EF80020FFF79BF8DD20F3
:101C3000FFF798F80020FFF795F8F320FFF792F8E8
:101C40000020FFF78FF8E320FFF792F80520FFF759
:101C500089F80020FFF786F80A20FFF783F80020B4
:101C6000FFF780F81C20FFF77DF80020FFF77AF8D7
:101C70003320FFF777F80020FFF774F84420FFF7D0
:101C800071F80020FFF76EF85020FFF76BF8002086
:101C9000FFF768F86220FFF765F80020FFF762F8A9
:101CA0007820FFF75FF80020FFF75CF88820FFF747
:101CB00059F80020FFF756F89720FFF753F8002057
:101CC000FFF750F8A620FFF74DF80020FFF74AF87D
:101CD000B720FFF747F80020FFF744F8C220FFF7CE
:101CE00041F80020FFF73EF8C720FFF73BF800203F
:101CF000FFF738F8D120FFF735F80020FFF732F86A
:101D0000D520FFF72FF80020FFF72CF8DD20FFF794
:101D100029F80020FFF726F8F320FFF723F800202A
:101D2000FFF720F8E420FFF723F80120FFF71AF867
:101D30000020FFF717F80120FFF714F80020FFF745
:101D400011F80220FFF70EF80020FFF70BF82A2009
:101D5000FFF708F80020FFF705F83C20FFF702F82E
:101D60000020FEF7FFFF4B20FEF7FCFF0020FEF7F0
:101D7000F9FF5D20FEF7F6FF0020FEF7F3FF742069
:101D8000FEF7F0FF0020FEF7EDFF8420FEF7EAFFEC
:101D90000020FEF7E7FF9320FEF7E4FF0020FEF7A8
:101DA000E1FFA220FEF7DEFF0020FEF7DBFFB320FD
:101DB000FEF7D8FF0020FEF7D5FFBE20FEF7D2FFCA
:101DC0000020FEF7CFFFC420FEF7CCFF0020FEF777
:101DD000C9FFCD20FEF7C6FF0020FEF7C3FFD320CA
:101DE000FEF7C0FF0020FEF7BDFFDD20FEF7BAFFC3
:101DF0000020FEF7B7FFF320FEF7B4FF0020FEF748
:101E0000B1FFE520FEF7B4FF0020FEF7ABFF002096
:101E1000FEF7A8FF0020FEF7A5FF0020FEF7A2FFB7
:101E20000220FEF79FFF0020FEF79CFF2920FEF70F
:101E300099FF0020FEF796FF3C20FEF793FF00205D
:101E4000FEF790FF4B20FEF78DFF0020FEF78AFF84
:101E50005D20FEF787FF0020FEF784FF7420FEF769
:101E600081FF0020FEF77EFF8420FEF77BFF00202D
:101E7000FEF778FF9320FEF775FF0020FEF772FF54
:101E8000A220FEF76FFF0020FEF76CFFB320FEF7E5
:101E900069FF0020FEF766FFBE20FEF763FF00200B
:101EA000FEF760FFC420FEF75DFF0020FEF75AFF3B
:101EB000CD20FEF757FF0020FEF754FFD320FEF79A
:101EC00051FF0020FEF74EFFDC20FEF74BFF002005
:101ED000FEF748FFF320FEF745FF0020FEF742FF24
:101EE000E620FEF745FF1120FEF73CFF0020FEF73D
:101EF00039FF3420FEF736FF0020FEF733FF56206F
:101F0000FEF730FF0020FEF72DFF7620FEF72AFFB8
:101F10000020FEF727FF7720FEF724FF0020FEF7C2
:101F200021FF6620FEF71EFF0020FEF71BFF882022
:101F3000FEF718FF0020FEF715FF9920FEF712FFAD
:101F40000020FEF70FFFBB20FEF70CFF0020FEF77E
:101F500009FF9920FEF706FF0020FEF703FF662029
:101F6000FEF700FF0020FEF7FDFE5520FEF7FAFE0B
:101F70000020FEF7F7FE5520FEF7F4FE0020FEF7E6
:101F8000F1FE4520FEF7EEFE0020FEF7EBFE4320BB
:101F9000FEF7E8FE0020FEF7E5FE4420FEF7E2FE35
:101FA0000020FEF7DFFEE720FEF7E2FE3220FEF71C
:101FB000D9FE0020FEF7D6FE5520FEF7D3FE002006
:101FC000FEF7D0FE7620FEF7CDFE0020FEF7CAFE1B
:101FD0006620FEF7C7FE0020FEF7C4FE6720FEF76E
:101FE000C1FE0020FEF7BEFE6720FEF7BBFE00200C
:101FF000FEF7B8FE8720FEF7B5FE0020FEF7B2FE22
:102000009920FEF7AFFE0020FEF7ACFEBB20FEF7E6
:10201000A9FE0020FEF7A6FE9920FEF7A3FE0020F1
:10202000FEF7A0FE7720FEF79DFE0020FEF79AFE49
:102030004420FEF797FE0020FEF794FE5620FEF7A0
:1020400091FE0020FEF78EFE2320FEF78BFE00207F
:10205000FEF788FE3320FEF785FE0020FEF782FEA5
:102060004520FEF77FFE0020FEF77CFEE820FEF70D
:102070007FFE0020FEF776FE0020FEF773FE99201B
:10208000FEF770FE0020FEF76DFE8720FEF76AFE69
:102090000020FEF767FE8820FEF764FE0020FEF7B2
:1020A00061FE7720FEF75EFE0020FEF75BFE6620F5
:1020B000FEF758FE0020FEF755FE8820FEF752FE80
:1020C0000020FEF74FFEAA20FEF74CFE0020FEF790
:1020D00049FEBB20FEF746FE0020FEF743FE992096
:1020E000FEF740FE0020FEF73DFE6620FEF73AFEBA
:1020F0000020FEF737FE5520FEF734FE0020FEF7E5
:1021000031FE5520FEF72EFE0020FEF72BFE442068
:10211000FEF728FE0020FEF725FE4420FEF722FEF3
:102120000020FEF71FFE5520FEF71CFE0020FEF7E4
:1021300019FEE920FEF71CFEAA20FEF713FE002080
:10214000FEF710FE0020FEF70DFE0020FEF70AFE4F
:102150000020FEF70DFEAA20FEF704FECF20FEF7BA
:1021600007FE0020FEF7FEFD0020FEF7FBFD00202D
:10217000FEF7F8FD0020FEF7F5FD0020FEF7F2FD6A
:102180000020FEF7EFFD0020FEF7ECFD0020FEF73B
:10219000E9FD0020FEF7E6FD0020FEF7E3FD00204C
:1021A000FEF7E0FD0020FEF7DDFD0020FEF7DAFD82
:1021B0000020FEF7D7FD0020FEF7D4FD0020FEF73B
:1021C000D1FD0020FEF7CEFDF020FEF7D1FD00206E
:1021D000FEF7C8FD5020FEF7C5FD0020FEF7C2FD4A
:1021E0000020FEF7BFFD0020FEF7BCFDF320FEF748
:1021F000BFFD0020FEF7B6FDF920FEF7B9FD062071
:10220000FEF7B0FD1020FEF7ADFD2920FEF7AAFD78
:102210000020FEF7A7FD3A20FEF7AAFD5520FEF7A5
:10222000A1FD1120FEF7A4FD642000F065F929202E
:10223000FEF79EFD3520FEF79BFD0020FEF792FD88
:102240005120FEF795FDFF20FEF78CFD5320FEF791
:102250008FFD2C20FEF786FD5520FEF789FD82209C
:10226000FEF780FD2C20FEF783FD0020FEF752FADA
:1022700001210448FEF72AFA4FF6FF70FEF72AFA0A
:102280001FB000BD000C014010B540F225511D48A3
:1022900000F04AF810B31B4800F002F9C4B21A4823
:1022A000008800F40040C8B91748008800F4804056
:1022B00060B10A2C03D000201349088020E01248A6
:1022C000008840F400401049088019E00D2C06D128
:1022D0000D48008840F480400B49088010E00A480F
:1022E0000088C0F30D0009490C5407480088401CC1
:1022F0000549088008460088C72801DD00200880BD
:1023000010BD0000003801403000002034000020E3
:1023100021B1828942F40052828104E082894DF623
:10232000FF731A408281704770B502460024002373
:102330000025002040F66A16B14200D100BFC1F36B
:10234000421501F01F03012606FA03F3012D02D105
:102350009689334006E0022D02D1168A334001E00F
:10236000968A33400C12012606FA04F4168834408B
:1023700013B10CB1012000E0002070BDF0B50346A0
:10238000002400260025002040F66A17B94200D13B
:1023900000BF1846C1F3421401F01F06012707FAD7
:1023A00006F5012C01D10C3004E0022C01D11030D3
:1023B00000E014301AB107682F43076002E0076895
:1023C000AF430760F0BD00002DE9F04786B0054639
:1023D0000E460024A24600BFA1460027B08900B1E6
:1023E00000BF2F462C8A4CF6FF700440F08804434F
:1023F0002C82AC894EF6F3100440B0883189084332
:10240000718908430443AC81AC8A4FF6FF40044015
:10241000B0890443AC8201A8FEF726FD1F4887421D
:1024200002D1DDF810A001E0DDF80CA0A88900F4CD
:10243000004040B10AEBCA0000EB0A1031684900C5
:10244000B0FBF1F807E00AEBCA0000EB0A103168B4
:102450008900B0FBF1F86420B8FBF0F0040120091A
:10246000642101FB1089A88900F4004040B13220AA
:1024700000EBC900B0FBF1F000F00700044308E0F6
:10248000322000EB09106421B0FBF1F000F00F00E6
:1024900004432C8106B0BDE8F087000000380140FD
:1024A00001468888C0F30800704700BFFEE700BF00
:1024B0007047000010B56FF00400FEF7B5FD0A4844
:1024C00000680A49B0FBF1F0094908700846007835
:1024D00000EB4001C1EBC0104FF6FF7101EAC000F4
:1024E0000449088010BD00000000002000127A009E
:1024F000280000202A0000200146114A12884A4381
:102500004FF0E0235A6100229A611A46126942F0A4
:1025100001021A6100BF4FF0E022106900F00102D1
:102520001AB100F48032002AF5D04FF0E02212698F
:1025300022F001024FF0E0231A6100229A617047F5
:102540002A00002000BF054A128802F04002002A3B
:10255000F9D0C2B2014B1B1D1A80704700380140F0
:1025600008B501210820FEF76FFC10208DF803004C
:102570002020ADF8000003208DF8020069460448D1
:10258000FEF719F820210248FEF7A0F808BD000068
:10259000000C014086B057A30FCBCDE90423CDE951
:1025A00002010024FFF7DCFFFFF784FF4FF4E13066
:1025B00000F0ACF8FEF77EFD322264210846FEF7FB
:1025C0005FF96423C8220A210846FEF7D9F8FA23E6
:1025D0004FF49672C8210846FEF734F932231A46A2
:1025E0000021C820FEF78EFA0021C820FEF76AFA03
:1025F000FEF7CAFB002503E01F20FEF7BFFB6D1CA2
:1026000040F6B8308542F7D300204FF4E173FA2248
:102610004FF4C8710090C820FEF7A2F969E00120CC
:10262000182103232246CDE900106421C820FEF7BB
:102630001FFB4FF6FF704FF4BB734FF4A0724FF4C3
:10264000AF7100900020FEF78BF902A818210B460D
:102650004FF4A072CDE900104FF4AF710020FEF7E7
:1026600054FB4FF4FA70FFF747FF4FF6FF704FF43B
:10267000BB734FF4A0724FF4AF7100900020FEF7CF
:102680006FF902A8102118234FF4A072CDE90010B1
:102690004FF4AF710020FEF738FB4FF4FA70FFF7EC
:1026A0002BFF4FF6FF704FF4BB734FF4A0724FF443
:1026B000AF7100900020FEF753F902A80C211823F7
:1026C0004FF4A072CDE900104FF4AF710020FEF777
:1026D0001CFB4FF4FA70FFF70FFF601C84B2B4F5D7
:1026E0007A7F00DB002407480068C0430649C1F830
:1026F000940194E74D79204E616D6520497320590E
:10270000434B2E00948121420080214210B586B0B7
:102710000446012144F20400FEF796FB4FF40070DA
:10272000ADF8140003208DF8160018208DF817005E
:1027300005A91C48FDF73FFF4FF48060ADF8140079
:1027400004208DF8170005A91648FDF734FF252051
:102750008DF8000003208DF801008DF802000120A3
:102760008DF803006846FEF725FB01940020ADF8C4
:102770000800ADF80A00ADF80C00ADF810000C2010
:10278000ADF80E0001A90848FFF71EFE012240F235
:1027900025510548FFF7F2FD01210348FFF7B8FD79
:1027A00006B010BD000801400038014000000000E4
:1027B0000000000000000000000000003F4000009A
:1027C0000000000000003000400030004000000029
:1027D00009000BC03D000BC03D00090018C024409B
:1027E0007FE0224031800000180024C01B000D80D3
:1027F0003240018003801C4027401C80074000407D
:102800001000600000000000000000000000000058
:1028100000001F80204040200000402020401F80FA
:1028200000000000090006001F80060009000000EB
:10283000040004003F800400040000000010006059
:102840000000000000000000040004000400040078
:102850000400000000000040000000000000000034
:10286000002001C006003800400000001F8020400A
:10287000204020401F800000000010403FC000406A
:102880000000000018C021402240244018400000F1
:1028900010802040244024401B80000002000D00D6
:1028A00011003FC0014000003C80244024402440EF
:1028B000238000001F802440244034400380000017
:1028C0003000200027C03800200000001B8024407A
:1028D000244024401B8000001C0022C022402240D3
:1028E0001F80000000000000084000000000000001
:1028F0000000000004600000000000000000040070
:102900000A00110020804040090009000900090068
:102910000900000000004040208011000A0004006F
:102920001800200023402400180000001F802040D1
:10293000274029401F400000004007C039000F0019
:1029400001C0004020403FC0244024401B800000C4
:102950001F802040204020403080000020403FC0A9
:10296000204020401F80000020403FC024402E40D7
:1029700030C0000020403FC024402E003000000046
:102980000F001080204022403380020020403FC0D2
:10299000040004003FC02040204020403FC02040B1
:1029A000204000000060202020203FC020002000A8
:1029B00020403FC024400B0030C0204020403FC09A
:1029C00020400040004000C03FC03C0003C03C002D
:1029D0003FC0000020403FC00C4023003FC020000B
:1029E0001F802040204020401F80000020403FC02A
:1029F00024402400180000001F802140214020E0D6
:102A00001FA0000020403FC02440260019C0004005
:102A100018C0244024402240318000003000204073
:102A20003FC020403000000020003F8000400040B8
:102A30003F80200020003E0001C007003800200039
:102A4000380007C03C0007C038000000204039C0F3
:102A5000060039C0204000002000384007C0384040
:102A600020000000304021C02640384020C0000037
:102A7000000000007FE040204020000000007000C7
:102A80000C000380004000000000402040207FE058
:102A900000000000000020004000200000000000B6
:102AA00000100010001000100010001000000000C6
:102AB00040000000000000000000028005400540CA
:102AC00003C0004020003FC00440044003800000D9
:102AD0000000038004400440064000000000038022
:102AE000044024403FC000400000038005400540F2
:102AF00003400000000004401FC024402440200088
:102B0000000002E0055005500650042020403FC060
:102B10000440040003C000400000044027C00040FF
:102B20000000000000100010041027E0000000006A
:102B300020403FC00140070004C004402040204026
:102B40003FC000400040000007C0040007C0040070
:102B500003C00000044007C00440040003C000405C
:102B6000000003800440044003800000041007F0CC
:102B7000045004400380000000000380044004501F
:102B800007F00010044007C00240040004000000E9
:102B9000000006400540054004C00000000004009D
:102BA0001F800440004000000400078000400440F3
:102BB00007C000400400070004C0018006000400B4
:102BC000060001C0070001C006000000044006C066
:102BD000010006C0044000000410071004E001805A
:102BE000060004000000044005C006400440000048
:102BF0000000000004007BE0402000000000000016
:102C00000000FFF000000000000040207BE0040016
:102C10000000000040008000400020002000400034
:102C200000000000000000000000000000000000A4
:102C30000000000000001FCC000C0000000000009D
:102C40000000080030006000080030006000000054
:102C5000022003FC1E20022003FC1E200220000094
:102C600000000E1811043FFF10840C7800000000D3
:102C70000F0010840F3800C0077818840078000017
:102C800000780F8410C411240E9800E4008400081A
:102C90000800680070000000000000000000000054
:102CA00000000000000007E01818200440020000A7
:102CB000000040022004181807E000000000000097
:102CC0000240024001800FF00180024002400000FB
:102CD0000080008000800FF80080008000800000ED
:102CE0000001000D000E00000000000000000000C8
:102CF0000000008000800080008000800080008054
:102D00000000000C000C00000000000000000000AB
:102D10000000000600180060018006001800200076
:102D2000000007F0080810041004080807F000006D
:102D30000000080408041FFC000400040000000058
:102D400000000E0C10141024104411840E0C00000E
:102D500000000C1810041104110412880C700000FB
:102D6000000000E00320042408241FFC00240000CD
:102D700000001F98108411041104108810700000C6
:102D8000000007F008881104110418880070000082
:102D900000001C00100010FC13001C0010000000BC
:102DA00000000E3811441084108411440E380000C5
:102DB00000000700088C10441044088807F0000049
:102DC000000000000000030C030C000000000000E5
:102DD00000000000000101060000000000000000EB
:102DE00000000080014002200410080810040000C8
:102DF00002200220022002200220022002200000E5
:102E000000001004080804100220014000800000A7
:102E100000000E001200100C106C10800F0000005B
:102E200003E00C1813E4142417C4082807D000008A
:102E30000004003C03C41C40074000E4001C0004E4
:102E400010041FFC1104110411040E88007000000E
:102E500003E00C1810041004100410081C100000EB
:102E600010041FFC100410041004080807F00000F0
:102E700010041FFC1104110417C4100408180000EA
:102E800010041FFC1104110017C0100008000000FE
:102E900003E00C181004100410441C7800400000DB
:102EA00010041FFC10840080008010841FFC10049C
:102EB0000000100410041FFC1004100400000000A7
:102EC00000030001100110011FFE1000100000009F
:102ED00010041FFC110403801464181C100400006B
:102EE00010041FFC1004000400040004000C000087
:102EF00010041FFC1F0000FC1F001FFC100400003A
:102F000010041FFC0C04030000E010181FFC10004C
:102F100007F00808100410041004080807F0000067
:102F200010041FFC10841080108010800F0000001F
:102F300007F0081810241024101C080A07F20000DB
:102F400010041FFC1104110011C011300E0C0004FC
:102F500000000E1C11041084108410441C38000062
:102F60001800100010041FFC1004100018000000CE
:102F700010001FF810040004000410041FF81000D3
:102F800010001E0011E0001C007013801C001000D7
:102F90001FC0103C00E01F0000E0103C1FC00000FC
:102FA0001004180C163401C001C01634180C10049B
:102FB00010001C00130400FC13041C00100000008F
:102FC0000804101C1064108413041C041018000062
:102FD0000000000000007FFE4002400240020000AE
:102FE000000030000C0003800060001C00030000A3
:102FF00000004002400240027FFE0000000000008E
:1030000000000000200040004000400020000000C0
:1030100000010001000100010001000100010001A8
:103020000000400040002000000000000000000000
:1030300000000098012401440144014400FC000404
:1030400010001FFC008801040104008800700000CB
:1030500000000070008801040104010400880000E1
:103060000000007000880104010411081FFC000426
:10307000000000F8014401440144014400C800007C
:103080000000010401040FFC1104110411001800D8
:10309000000000D601290129012901C9010600000B
:1030A00010041FFC008401000100010400FC000466
:1030B00000000104190419FC0004000400000000D1
:1030C0000000000300010101190119FE00000000C9
:1030D00010041FFC0024004001B4010C0104000096
:1030E0000000100410041FFC000400040000000095
:1030F000010401FC0104010001FC0104010000FCC9
:10310000010401FC008401000100010400FC000432
:10311000000000F8010401040104010400F80000AB
:10312000010101FF00850104010400880070000016
:1031300000000070008801040104010501FF000186
:103140000104010401FC008401040100018000006D
:10315000000000CC01240124012401240198000076
:1031600000000100010007F8010401040000000054
:10317000010001F8000400040004010801FC00043F
:10318000010001800170000C00100160018001004D
:1031900001F0010C003001C00030010C01F0010011
:1031A00000000104018C00740170018C0104000016
:1031B000010101810171000E001801600180010010
:1031C00000000184010C013401440184010C000061
:1031D000000000000000000001003EFC4002400230
:1031E0000000000000000000FFFF000000000000E1
:1031F0000000400240023EFC010000000000000010
:10320000000060008000800040004000200020009E
:1032100000000000000000000000000000000000AE
:10322000000000000000000000000000000000009E
:10323000000000000000000000000000000000008E
:103240000000000F80380FFE380F803800000000AB
:10325000000000000000000000000000000001006D
:10326000000600000C0000380000310000060000DD
:103270000C000038000030000000000000000000DA
:1032800061800067F807F98000618000618000615B
:10329000800061800067F807F9800061800000000D
:1032A00000000000000001C0E003E0F00630080468
:1032B00018081FFFFE040E080787F00381E00000D6
:1032C0000000000001F000060C00040408060C7069
:1032D00001F9C0000E00003BE000EC1807080804EC
:1032E0000C180003E00000000001E00007F003F804
:1032F00018041C0804170807E1D003C0E00023B03D
:10330000003C080020080000100000000000000140
:1033100000003100003200001C000000000000002E
:10332000000000000000000000000000000000009D
:10333000000000000000000000000000000000008D
:103340007F0001FFC00780F00C001810000420006F
:10335000020000000000002000021000040C001811
:103360000780F001FFC0007F0000000000000000A7
:1033700000000000000000000000000042000066A5
:1033800000006600003C0000180003FFC0001800A9
:10339000003C0000660000660000420000000000E3
:1033A000080000080000080000080000080001FFF5
:1033B000C000080000080000080000080000080025
:1033C00000000000000100003100003200001C007D
:1033D00000000000000000000000000000000000ED
:1033E00000000000000000000800000800000800C5
:1033F00000080000080000080000080000080000A5
:1034000008000008000000000000000000000000AC
:103410003800003800003800000000000000000004
:10342000000000000000000000000000000000009C
:10343000000600001C000070000180000E00003833
:103440000000C0000700001C000030000000000069
:10345000000000007F8001FFE00380700600180478
:10346000000804000806001803807001FFE0007FD8
:1034700080000000000000000000010008010008BA
:1034800001000803FFF807FFF8000008000008002B
:10349000000800000000000000000001C03802C069
:1034A00058040098040118040218040418061C1893
:1034B00003F81801E0F8000000000000000000011F
:1034C000C0E003C0F0040008040808040808061857
:1034D0000803F41801E7F00001E00000000000001C
:1034E000000000000300000D00001100006100005A
:1034F000810803010807FFF80FFFF8000108000129
:10350000080000000000000000E007FCD0060808EA
:10351000061008061008061008061838060FF006F0
:1035200007C0000000000000000000003F8001FF15
:10353000E00384300208180410080410080410087E
:10354000071810030FF00007C00000000000000083
:10355000000003C0000700000600000600F8060790
:10356000F806180006E00007000006000000000052
:1035700000000001E1E003F7F0063410041808042D
:103580001808040C08040C0806161803F3F001C10F
:10359000E000000000000000F80003FC30030638E3
:1035A0000402080402080402080404100308F001DD
:1035B000FFC0007F000000000000000000000000CD
:1035C0000000000000000000703800703800703803
:1035D00000000000000000000000000000000000EB
:1035E000000000000000000000000000301A003061
:1035F0001C000000000000000000000000000000AF
:10360000000000000000000800001400002200007C
:1036100041000080800100400200200400100800EA
:10362000080000000000000021000021000021002F
:1036300000210000210000210000210000210000E5
:103640002100002100000000000000000000080030
:1036500008040010020020010040008080004100AA
:103660000022000014000008000000000000000319
:10367000C00004C000040000080038080F38080823
:10368000380810000C300007E00003C00000000004
:10369000000000003F8000FFE0038070020F100672
:1036A000708804C088048308047F8802C0900301E6
:1036B0002000FE400000080000180001F8003E084D
:1036C00001C20007020007E20000FE00001FC80060
:1036D00001F800003800000804000807FFF807FFA1
:1036E000F80408080408080408080408080618086C
:1036F00003F41801E7F00001E00000000000000002
:103700003F8001FFE00380700200180400080400FD
:10371000080400080400100600200780C000000014
:1037200004000807FFF807FFF80400080400080475
:10373000000804001802001003807001FFE0007F01
:103740008000000004000807FFF807FFF8040808DD
:10375000040808040808040808043E0804000806D1
:10376000001801006000000004000807FFF807FFD0
:10377000F8040808040800040800040800043E00D7
:1037800006000006000001800000000000000000AC
:103790003F8001FFE0038070060018040008040267
:1037A000080402080203F00783F000020000020090
:1037B00004000807FFF807FFF804080800080000E5
:1037C000080000080000080004080807FFF807FFC9
:1037D000F8040008000000000000040008040008CD
:1037E00004000807FFF807FFF804000804000804B5
:1037F00000080000000000000000000000060000BB
:103800000700000104000104000104000307FFFE9B
:1038100007FFFC0400000400000400000400080787
:10382000FFF807FFF8040C08001800003E0004C76A
:10383000800503C80600F8040038040018000008DA
:1038400004000807FFF807FFF8040008000008005C
:103850000008000008000008000008000018000030
:103860006000000004000807FFF807800807FC005C
:10387000007FC00003F80007C00078000780080739
:10388000FFF807FFF804000804000807FFF8070026
:103890000803C00000E000003800001E0000070020
:1038A0000001C00400F007FFF80400000000000061
:1038B0007F8001FFE0038070060018040008040008
:1038C0000806001803003001FFE0007F80000000C0
:1038D00004000807FFF807FFF804040804040004C4
:1038E0000400040400040400060C0003F80001F0C6
:1038F00000000000000000007F8001FFE0038070F6
:103900000600880400880400C806003C03003E014D
:10391000FFE6007F8400000004000807FFF807FFAF
:10392000F8040808040800040C00040F00040BC08D
:103930000610F003F03801E0080000080000000164
:10394000E0F803F030063010041808041808040CDE
:1039500008040C080206180207F00781E0000000C6
:1039600001800006000004000004000004000807B5
:10397000FFF807FFF8040008040000040000060038
:103980000001800004000007FFE007FFF0040018BA
:1039900000000800000800000800000800000804FB
:1039A000001007FFE004000004000006000007E02C
:1039B0000007FE00041FE00001F80000380001E0ED
:1039C000043E0007C00006000004000004000007D9
:1039D000E00007FFC0041FF80007C007F80007FF5A
:1039E00080043FF80007C004F8000700000400004E
:1039F00000000004000806001807C07805F1C800A0
:103A00003E00001F800463E80780F80600180400E9
:103A10000800000004000006000007800007E0081E
:103A2000047C08001FF80007F800180804E00807E5
:103A3000000006000004000000000001000806006D
:103A4000380400F80403E8040F08047C0805F008B3
:103A500007C0080700180400600000000000000014
:103A600000000000000000000000003FFFFE2000FA
:103A700002200002200002200002200002000000BC
:103A800000000000000008000007000000C0000067
:103A900038000006000001C000003000000E0000E9
:103AA00001000000000000000000200002200002D1
:103AB0002000022000022000023FFFFE0000000064
:103AC00000000000000000000000000000000000F6
:103AD000000800001000003000002000003000004E
:103AE00010000008000000000000000000000100BD
:103AF00000010000010000010000010000010000C1
:103B000001000001000001000001000001000001AF
:103B10000000000000000000002000002000001055
:103B20000000100000000000000000000000000085
:103B3000000000000000000000F00019F8001B1851
:103B4000002208002608002408002410003FF80086
:103B50001FF800000800001800000004000007FF24
:103B6000F80FFFF0001818001008002008002008C7
:103B7000003018001FF0000FC0000000000000001F
:103B800007C0001FF00018300020080020080020A7
:103B900008003C08001C100000600000000000004D
:103BA0000000000007C0001FF000381800200800C7
:103BB000200800200804101007FFF80FFFF0000095
:103BC000100000000000000000000007C0001FF00F
:103BD00000123000221800220800220800320800DB
:103BE0001E10000E20000000000000002000002039
:103BF0000800200801FFF803FFF806200804200849
:103C0000042008072000030000000000000000005E
:103C1000000E000E6E001FF30031B10020B1002035
:103C2000B1003191001F13002E1E00200E00300045
:103C300000000004000807FFF80FFFF8001008005C
:103C40002000002000002008003FF8001FF80000BE
:103C5000080000000000000000000020080020080C
:103C6000002008063FF8063FF800000800000800A2
:103C7000000800000000000000000000000000003C
:103C800003000003002001002001002003063FFE86
:103C9000063FFC00000000000000000000000004DF
:103CA000000807FFF80FFFF8000188000300002F4D
:103CB000C00038F80020380020080000080000008C
:103CC00000000000000004000804000804000807C9
:103CD000FFF80FFFF80000080000080000080000CF
:103CE00000000000002008003FF8003FF800100826
:103CF000002000003FF8003FF800100800200000FE
:103D00003FF8003FF8000008000000002008003FD6
:103D1000F8003FF800100800100000200000200804
:103D2000003FF8001FF8000008000000000000003D
:103D300007C0000FF00018300030080020080020F5
:103D400008003008001830000FF00007C000000025
:103D5000000000002001003FFF003FFF00101100A5
:103D60002009002008002008003038001FF0000F54
:103D7000C00000000000000007C0001FF00038185D
:103D8000002008002008002009001011001FFF007B
:103D90003FFF000001000000002008002008002074
:103DA00008003FF8003FF80008080010080020084D
:103DB0000020000030000030000000000000000083
:103DC0000000000C78001E180033080023080021B2
:103DD000080021880021980030F0003860000000C1
:103DE00000000000200000200000200000FFF00381
:103DF000FFF8002008002008002008000030000024
:103E000000000000000000002000003FF0007FF8EC
:103E1000000018000008000008002010003FF80013
:103E20007FF00000100000000000000020000030C3
:103E300000003C00003F800023F00000780000708C
:103E4000002380003C000030000020000020000023
:103E50003C00003FE00023F80000E0002700003EA7
:103E600000003FE00021F80001E0003E00002000DB
:103E7000000000002008002008003838003E6800DC
:103E800027800003C8002CF80038380020180020D4
:103E900008000000000000002000003003003C018A
:103EA000003F830023EC000070002380003C0000F2
:103EB000200000200000000000000000000000388A
:103EC000080020380020F80023E8002F88003E0872
:103ED00000380800201800007000000000000000FA
:103EE00000000000000000000000000008000014B6
:103EF000001FF7FC30000620000200000000000058
:103F000000000000000000000000000000000000B1
:103F10000000FFFFFF0000000000000000000000A4
:103F20000000000000000000000020000230000639
:103F30001FF7FC0014000008000000000000000053
:103F400000000000000000000000001800006000F9
:103F500000400000400000200000100000080000A9
:103F60000400000400000C00001000003031323367
:103F7000343536373839414243444546403058009D
:103F800030313233343536373839616263646566CF
:103F9000403078000400000800000000000000022B
:103FA0000001000010000000C83F000800000020D1
:103FB000340000006C010008FC3F000834000020C1
:103FC0003C0700008801000800A24A04000000002D
:103FD00000000000010203040607080900000000B9
:103FE000010203040102030406070809020406088B
:0C3FF000000000000000000000000000C5
:0400000508000131BD
:00000001FF
