:020000040800F2
:1000000060070020CD0100083D0400083504000809
:1000100039040008150300087B09000800000000EF
:10002000000000000000000000000000BD05000806
:100030001903000800000000C5040008D1060008EC
:10004000E7010008E7010008E7010008E7010008F0
:10005000E7010008E7010008E7010008E7010008E0
:10006000E7010008E7010008E7010008E7010008D0
:10007000E7010008E7010008E7010008E7010008C0
:10008000E7010008E7010008E7010008E7010008B0
:10009000E7010008E7010008E7010008E7010008A0
:1000A000E7010008E7010008E7010008E701000890
:1000B000E7010008E7010008E7010008E701000880
:1000C000E7010008E7010008E7010008E701000870
:1000D000E701000835070008E7010008E70100080C
:1000E000E7010008E7010008E7010008E701000850
:1000F000E7010008E7010008E7010008E701000840
:10010000E7010008E7010008E7010008E70100082F
:10011000E7010008E7010008E7010008E70100081F
:10012000E7010008E7010008E7010008E70100080F
:1001300000F002F800F03AF80AA090E8000C8244BF
:100140008344AAF10107DA4501D100F02FF8AFF29C
:10015000090EBAE80F0013F0010F18BFFB1A43F0A5
:1001600001031847BC0A0000DC0A0000103A24BF53
:1001700078C878C1FAD8520724BF30C830C144BF0C
:1001800004680C607047000000230024002500264E
:10019000103A28BF78C1FBD8520728BF30C148BFEA
:1001A0000B6070471FB51FBD10B510BD00F06EF895
:1001B0001146FFF7F7FF00F055FC00F0A0F803B47C
:1001C000FFF7F2FF03BC00F0DAFB000009488047AC
:1001D00009480047FEE7FEE7FEE7FEE7FEE7FEE729
:1001E000FEE7FEE7FEE7FEE704480549054A064B41
:1001F00070470000D50600083101000860010020AA
:1002000060070020600300206003002070470000AA
:100210000FB4044910B503AA029800F009F810BC05
:100220005DF814FB3400002070477047704770473A
:10023000074B70B50D467B4400F011F80446284684
:1002400000F020F810B14FF0FF3070BD204670BDB7
:10025000DB07000001694A1C02610878704700B59D
:100260008FB0CDE901310021059105497944CDE9EF
:1002700003101146684600F02EF80FB000BD0000D4
:10028000E5FFFFFF007B00F080007047754600F03F
:100290003DF8AE4605006946534620F00700854606
:1002A00018B020B5FFF7A0FFBDE820404FF00006D2
:1002B0004FF000074FF000084FF0000B21F007014E
:1002C000AC46ACE8C009ACE8C009ACE8C009ACE891
:1002D000C0098D4670472DE9F04106460024D6E955
:1002E0000170F5688046304603E04146B847641C1B
:1002F0003046A8470028F8D12046BDE8F0810446E2
:10030000AFF300802046FFF75AFF00000048704717
:100310000001002000BFFEE770472DE9F0410246D2
:1003200000250026002000230024002791F803C0A8
:100330000CF00F0591F803C00CF0100CBCF1000F8D
:1003400003D091F802C04CEA050591F800C0BCF159
:10035000000F31D0146800202BE04FF0010C0CFA94
:1003600000F3B1F800C00CEA03069E4220D18300DE
:100370004FF00F0C0CFA03F7BC4305FA03FC4CEAF0
:10038000040491F803C0BCF1280F06D14FF0010C12
:100390000CFA00FCC2F814C00AE091F803C0BCF1EA
:1003A000480F05D14FF0010C0CFA00FCC2F810C048
:1003B000401C0828D1D31460B1F800C0BCF1FF0F75
:1003C00034DD546800202EE000F1080C4FF00108E5
:1003D00008FA0CF3B1F800C00CEA03069E4221D1E2
:1003E00083004FF00F0C0CFA03F7BC4305FA03FC33
:1003F0004CEA040491F803C0BCF1280F05D100F1C8
:10040000080C08FA0CF8C2F8148091F803C0BCF18B
:10041000480F07D100F1080C4FF0010808FA0CF85A
:10042000C2F81080401C0828CED35460BDE8F0818B
:100430000161704700BFFEE700BFFEE770470000A4
:1004400070B5002100230F22C47804B3154C246832
:1004500004F4E064C4F5E064210AC1F10403CA4075
:10046000447804FA03F184781440214309010E4CC6
:100470000678A155047804F01F050124AC400578E6
:100480006D11AD0005F1E025C5F8004109E00478E3
:1004900004F01F050124AC40044D0678761145F8A0
:1004A000264070BD0CED00E000E400E080E100E0DB
:1004B00002490143024A1160704700000000FA053A
:1004C0000CED00E07047000029B1064A9269024332
:1004D000044B9A6104E0034A92698243014B9A619A
:1004E000704700000010024030B5002100220024B7
:1004F00000232D4D6D6805F00C0121B1042905D0B4
:10050000082923D105E0294D056022E0274D05602B
:100510001FE0254D6D6805F47012234D6D6805F4DC
:100520008034022505EB92421CB9214D55430560EC
:100530000BE01D4D6D6805F400351DB11C4D554394
:10054000056002E0194D5543056002E0174D056056
:1005500000BF00BF144D6D6805F0F0010909154D8D
:100560006B5C0568DD4045600F4D6D6805F4E0612A
:10057000090A104D6B5C4568DD4085600A4D6D6869
:1005800005F46051C90A0B4D6B5C4568DD40C560E0
:10059000054D6D6805F44041890B074D6B5CC568DE
:1005A000B5FBF3F5056130BD0010024000127A0082
:1005B00000093D001C0000202C000020704710B5F1
:1005C00000F002F810BD00000CB500200190009072
:1005D0003348006840F480303149086000BF30483B
:1005E000006800F4003000900198401C01900098D1
:1005F00018B90198B0F5A06FF1D12948006800F44E
:10060000003010B10120009001E00020009000981F
:10061000012843D12348006840F0100021490860B8
:100620000846006820F0030008600846006840F0B3
:10063000020008601A484068194948600846406846
:1006400048600846406840F480604860084640685A
:1006500020F47C1048600846406840F4E810486088
:100660000846006840F08070086000BF0C480068D1
:1006700000F000700028F9D00948406820F003001D
:10068000074948600846406840F00200486000BFE3
:100690000348406800F00C000828F9D10CBD0000A8
:1006A0000010024000200240042808D14FF0E02151
:1006B000096941F004014FF0E022116107E04FF0B9
:1006C000E021096921F004014FF0E0221161704737
:1006D0007047000010B51348006840F00100114950
:1006E000086008464068104908400E4948600846BE
:1006F00000680E4908400B4908600846006820F46D
:10070000802008600846406820F4FE0048604FF4EE
:100710001F008860FFF753FF4FF000600449086036
:1007200010BD0000001002400000FFF8FFFFF6FEC1
:1007300008ED00E010B540F225511E4800F059F8D0
:10074000B8B31C4800F010F9C4B21B48008800F48C
:10075000004070BB1848008800F4804060B10A2C4B
:1007600006D11548008840F400401349088020E075
:100770000020114908801CE00D2C06D10E4800888D
:1007800040F480400C4908800AE00B480088C0F320
:100790000D000A490C5408480088401C064908808E
:1007A00005480088C0F30D00C72802DB002002497D
:1007B000088010BD003801400000002038000020F3
:1007C00021B1828942F40052828104E082894DF68F
:1007D000FF731A408281704702460020B1F5007F06
:1007E00000D100BF13880B400BB1012000E00020B6
:1007F000704770B50246002400230025002040F613
:100800006A16B14200D100BFC1F3421501F01F03C7
:10081000012606FA03F3012D02D19689334006E042
:10082000022D02D1168A334001E0968A33400C1221
:10083000012606FA04F41688344013B10CB10120E5
:1008400000E0002070BDF0B503460024002600251E
:10085000002040F66A17B94200D100BF1846C1F324
:10086000421401F01F06012707FA06F5012C01D1F9
:100870000C3004E0022C01D1103000E014301AB129
:1008800007682F43076002E00768AF430760F0BDC9
:100890002DE9F04786B005460E460024A24600BF6B
:1008A000A1460027B08900B100BF2F462C8A4CF624
:1008B000FF700440F08804432C82AC894EF6F3109C
:1008C0000440B08831890843718908430443AC81EE
:1008D000AC8A4FF6FF400440B0890443AC8201A8C3
:1008E000FFF702FE1F48874202D1DDF810A001E0A9
:1008F000DDF80CA0A88900F4004040B10AEBCA0062
:1009000000EB0A1031684900B0FBF1F807E00AEB90
:10091000CA0000EB0A1031688900B0FBF1F86420CE
:10092000B8FBF0F004012009642101FB1089A889BB
:1009300000F4004040B1322000EBC900B0FBF1F000
:1009400000F00700044308E0322000EB09106421A6
:10095000B0FBF1F000F00F0004432C8106B0BDE8BD
:10096000F08700000038014001468888C0F3080085
:100970007047C1F308028280704700BFFEE701465E
:1009800000BF704710B56FF00400FFF78DFE0A48F6
:1009900000680A49B0FBF1F0094908700846007880
:1009A00000EB4001C1EBC0104FF6FF7101EAC0003F
:1009B0000449088010BD00000800002000127A00E1
:1009C00030000020320000200146114A12884A43BC
:1009D0004FF0E0235A6100229A611A46126942F0F0
:1009E00001021A6100BF4FF0E022106900F001021D
:1009F0001AB100F48032002AF5D04FF0E0221269DB
:100A000022F001024FF0E0231A6100229A61704740
:100A10003200002000BF054A128802F04002002A7E
:100A2000F9D0C2B2014B1B1D1A807047003801403B
:100A300008B501210820FFF747FD2020ADF8000090
:100A400003208DF8020010208DF803006946044849
:100A5000FFF763FC20210248FFF7EAFC08BD000015
:100A6000000C01404FF4A060FFF722FDFFF78AFF62
:100A7000FFF7DEFF00F084F85DE02F48008800F407
:100A8000004000282CD02C480088C0F30D002B49D2
:100A900008802BA0FFF7BCFB00202E49088012E045
:100AA0002D482C4A1288815C2C48FFF762FF00BF5A
:100AB00040212A48FFF790FE0128F9D125480088F7
:100AC000401C24490880234800881C490988884222
:100AD000E6DB23A0FFF79CFB0020174908802AE0F3
:100AE00021480088401C20490880084600884FF4AF
:100AF000FA7190FBF1F201FB120010B91BA0FFF795
:100B000087FB194800881E2190FBF1F201FB1200BF
:100B100028B919480068C0431849C1F8940112481F
:100B200000884EF66021884202DB00200E490880D2
:100B30000A20FFF749FFA0E7000000200400002082
:100B4000B4F2D3A1B5C4D0C5CFA2CEAAA3BA0D0A20
:100B50000D0A000006000020380000200038014087
:100B60000D0A0D0A0000000002000020C7EBCAE4D5
:100B7000C8EB0D0A0D0A0000948121420080214239
:100B800000B587B0012144F20400FFF79DFC182056
:100B90008DF81B004FF40070ADF8180003208DF89D
:100BA0001A0006A91C48FFF7B8FB04208DF81B00AB
:100BB0000002ADF8180006A91748FFF7AEFB4FF486
:100BC000E13002900020ADF814000C20ADF81200C6
:100BD0000020ADF81000ADF80E00ADF80C0002A931
:100BE0000E48FFF755FE012240F225510B48FFF752
:100BF0002AFE01210948FFF7E3FD25208DF80400B6
:100C000001208DF807008DF805008DF8060001A879
:100C1000FFF716FC07B000BD000801400038014096
:100C2000400C000800000020380000006C010008A3
:100C3000780C000838000020280700008801000810
:100C4000000000000000000000A24A0400000000B4
:100C5000000000000102030406070809000000006C
:100C6000010203040102030406070809020406083E
:080C700000000000000000007C
:0400000508000131BD
:00000001FF
