:020000040800F2
:1000000050070020CD010008A10300089903000853
:100010009D030008750200086B0A0008000000003C
:10002000000000000000000000000000E5030008E0
:100030007902000800000000A3030008F90400088A
:10004000E7010008E7010008E7010008E7010008F0
:10005000E7010008E7010008E7010008E7010008E0
:10006000E7010008E7010008E7010008E7010008D0
:10007000E7010008E7010008E7010008E7010008C0
:10008000E7010008E7010008E7010008E7010008B0
:10009000E7010008E7010008E7010008E7010008A0
:1000A000E7010008E7010008E7010008E701000890
:1000B000E7010008E7010008E7010008E701000880
:1000C000E7010008E7010008E7010008E701000870
:1000D000E701000885090008E7010008E7010008BA
:1000E000E7010008E7010008E7010008E701000850
:1000F000E7010008E7010008E7010008E701000840
:10010000E7010008E7010008E7010008E70100082F
:10011000E7010008E7010008E7010008E70100081F
:10012000E7010008E7010008E7010008E70100080F
:1001300000F002F800F03AF80AA090E8000C8244BF
:100140008344AAF10107DA4501D100F02FF8AFF29C
:10015000090EBAE80F0013F0010F18BFFB1A43F0A5
:1001600001031847740C0000940C0000103A24BFDF
:1001700078C878C1FAD8520724BF30C830C144BF0C
:1001800004680C607047000000230024002500264E
:10019000103A28BF78C1FBD8520728BF30C148BFEA
:1001A0000B6070471FB51FBD10B510BD00F033F8D0
:1001B0001146FFF7F7FF00F0C9FC00F051F803B457
:1001C000FFF7F2FF03BC00F052FC00000948804733
:1001D00009480047FEE7FEE7FEE7FEE7FEE7FEE729
:1001E000FEE7FEE7FEE7FEE704480549054A064B41
:1001F00070470000FD040008310100085001002094
:100200005007002050030020500300207047704723
:10021000704770477047754600F028F8AE460500F5
:100220006946534620F00700854618B020B5FFF711
:10023000DBFFBDE820404FF000064FF000074FF015
:1002400000084FF0000B21F00701AC46ACE8C009F4
:10025000ACE8C009ACE8C009ACE8C0098D467047FD
:100260000446AFF300802046FFF7A9FF004870471F
:10027000F000002000BFFEE770472DE9F041024684
:1002800000250026002000230024002791F803C049
:100290000CF00F0591F803C00CF0100CBCF1000F2E
:1002A00003D091F802C04CEA050591F800C0BCF1FA
:1002B000000F31D0146800202BE04FF0010C0CFA35
:1002C00000F3B1F800C00CEA03069E4220D183007F
:1002D0004FF00F0C0CFA03F7BC4305FA03FC4CEA91
:1002E000040491F803C0BCF1280F06D14FF0010CB3
:1002F0000CFA00FCC2F814C00AE091F803C0BCF18B
:10030000480F05D14FF0010C0CFA00FCC2F810C0E8
:10031000401C0828D1D31460B1F800C0BCF1FF0F15
:1003200034DD546800202EE000F1080C4FF0010885
:1003300008FA0CF3B1F800C00CEA03069E4221D182
:1003400083004FF00F0C0CFA03F7BC4305FA03FCD3
:100350004CEA040491F803C0BCF1280F05D100F168
:10036000080C08FA0CF8C2F8148091F803C0BCF12C
:10037000480F07D100F1080C4FF0010808FA0CF8FB
:10038000C2F81080401C0828CED35460BDE8F0812C
:10039000416170470161704700BFFEE700BFFEE7A3
:1003A0007047704729B1064AD2690243044BDA61AB
:1003B00004E0034AD2698243014BDA6170470000CE
:1003C0000010024029B1064A92690243044B9A6127
:1003D00004E0034A92698243014B9A61704700002E
:1003E00000100240704710B500F002F810BD000088
:1003F0000CB50020019000903348006840F4803034
:100400003149086000BF3048006800F400300090B7
:100410000198401C0190009818B90198B0F5A06FA0
:10042000F1D12948006800F4003010B1012000909B
:1004300001E0002000900098012843D12348006883
:1004400040F01000214908600846006820F00300D1
:1004500008600846006840F0020008601A484068DA
:10046000194948600846406848600846406840F4BA
:10047000806048600846406820F47C104860084668
:10048000406840F4E81048600846006840F080701A
:10049000086000BF0C48006800F000700028F9D028
:1004A0000948406820F00300074948600846406852
:1004B00040F00200486000BF0348406800F00C00B4
:1004C0000828F9D10CBD00000010024000200240B5
:1004D000042808D14FF0E021096941F004014FF0F0
:1004E000E022116107E04FF0E021096921F00401E9
:1004F0004FF0E022116170477047000010B51348BB
:10050000006840F001001149086008464068104941
:1005100008400E494860084600680E4908400B49EB
:1005200008600846006820F480200860084640689B
:1005300020F4FE0048604FF41F008860FFF753FF6F
:100540004FF000600449086010BD00000010024038
:100550000000FFF8FFFFF6FE08ED00E0F0B50C46E6
:10056000154600220021068C4FF6FE773E40068499
:10057000028B018C4FF60C7632407E1C06EA031685
:100580002E433243104EB0420ED0104EB0420BD02C
:10059000B0F1804F08D00E4EB04205D00D4EB042A3
:1005A00002D00D4EB04206D14FF6FD76314044F0F8
:1005B0000106314305E04FF6F576314044F001067F
:1005C000314302830184F0BD002C0140003401401E
:1005D0000004004000080040000C0040F0B50C464C
:1005E0001546002200210026078C4FF6EF7C07EA13
:1005F0000C070784028B018C4FF6FF7707EA04167D
:1006000040F6FF473A404FF6FF7707EA03373A4391
:100610004FF6FF7707EA05273A43114FB8420ED04D
:10062000104FB8420BD0B0F1804F08D00E4FB842F7
:1006300005D00E4FB84202D00D4FB84206D14FF64A
:10064000DF77394046F01007394305E04FF65F7712
:10065000394044F01007394302830184F0BD0000A3
:10066000002C01400034014000040040000800401C
:10067000000C0040F0B50C46154600220021002673
:10068000078C4FF6FF6C07EA0C070784828B018CFE
:100690004FF6FF7707EA04264FF60C773A404FF6FD
:1006A000FF7707EA03172F433A43114FB8420ED0A2
:1006B000104FB8420BD0B0F1804F08D00E4FB84267
:1006C00005D00E4FB84202D00D4FB84206D14FF6BA
:1006D000FF57394046F48077394305E04FF2FF5722
:1006E000394044F48077394382830184F0BD0000AF
:1006F000002C01400034014000040040000800408C
:10070000000C0040F0B50C461546002200210026E2
:10071000078C4EF6FF7C07EA0C070784828B018C5E
:100720004FF6FF7707EA043640F6FF473A404FF6A8
:10073000FF7707EA05273A434FF6FF7707EA0337C3
:100740003A43114FB8420ED0104FB8420BD0B0F11F
:10075000804F08D00E4FB84205D00E4FB84202D09D
:100760000D4FB84206D14DF6FF77394046F4805719
:10077000394305E047F6FF57394044F48057394381
:1007800082830184F0BD0000002C01400034014050
:100790000004004000080040000C0040CA430282F0
:1007A000704721B1028842F00102028004E0028811
:1007B0004FF6FE731A40028070470146088F70475B
:1007C0000146888C704702460020138A0B400BB10B
:1007D000012000E00020704770B505460C46244813
:1007E00085420ED0234885420BD0B5F1804F08D00A
:1007F0002148854205D02148854202D020488542C3
:1008000000D100E000BF208850B92389A288618808
:100810002846FFF7A3FEE188284600F035F825E0DA
:10082000208804280AD12389A28861882846FFF7F6
:10083000D5FEE188284600F030F817E02088082827
:100840000AD12389A28861882846FFF713FFE1882F
:10085000284600F02FF809E02389A28861882846FD
:10086000FFF750FFE188284600F02DF870BD00002A
:10087000002C01400034014000040040000800400A
:10088000000C004081847047028B4FF6F3731A40CE
:100890000283028B0A4302837047028B4FF2FF33BD
:1008A0001A400283028B4FF6FF7303EA01231A43B7
:1008B00002837047828B4FF6F3731A408283828BD8
:1008C0000A4382837047828B4FF2FF331A40828340
:1008D000828B4FF6FF7303EA01231A43828370472A
:1008E000002202881D4B98420ED01D4B98420BD01F
:1008F000B0F1804F08D01B4B984205D01A4B98425C
:1009000002D01A4B984204D14FF68F731A404B888D
:100910001A43174B984207D0164B984204D04FF613
:10092000FF431A40CB881A4302808B8883850B884B
:1009300003850A4B98420BD0094B984208D00E4BC6
:10094000984205D00D4B984202D00D4B984201D1F0
:100950000B7A03860123838270470000002C01403C
:10096000003401400004004000080040000C00403A
:1009700000100040001400400040014000440140CD
:100980000048014010B540F225511D4800F03EF8E6
:1009900010B31B4800F064F8C4B21A48008800F491
:1009A0000040C8B91748008800F4804060B10A2CA4
:1009B00003D000201349088020E01248008840F44A
:1009C00000401049088019E00D2C06D10D48008820
:1009D00040F480400B49088010E00A480088C0F3CA
:1009E0000D0009490C5407480088401C054908803F
:1009F00008460088C72801DD0020088010BD0000DF
:100A000000380140240000202800002070B5024674
:100A1000002400230025002040F66A16B14200D1D0
:100A200000BFC1F3421501F01F03012606FA03F3CC
:100A3000012D02D19689334006E0022D02D1168A9B
:100A4000334001E0968A33400C12012606FA04F482
:100A50001688344013B10CB1012000E0002070BDB5
:100A600001468888C0F30800704700BFFEE700BF5A
:100A70007047000010B56FF00400FFF729FD0A4829
:100A800000680A49B0FBF1F009490870084600788F
:100A900000EB4001C1EBC0104FF6FF7101EAC0004E
:100AA0000449088010BD00000400002000127A00F4
:100AB0001C0000201E0000200146114A12884A43F3
:100AC0004FF0E0235A6100229A611A46126942F0FF
:100AD00001021A6100BF4FF0E022106900F001022C
:100AE0001AB100F48032002AF5D04FF0E0221269EA
:100AF00022F001024FF0E0231A6100229A61704750
:100B00001E00002008B501214820FFF75BFC1020E3
:100B10008DF803002020ADF8000003208DF80200BE
:100B200069460848FFF7A9FB20210648FFF732FC79
:100B300069460548FFF7A1FB20210348FFF72AFC7F
:100B400008BD0000000C014000180140FFF792FFB3
:100B5000FFF7D8FF00F058F81DE0002000F0D0F8B3
:100B600028B10D480068C0430C49C1F894010C48F5
:100B70000078401C0A490870084600780F2807D101
:100B80000020087007480068C0430749C1F8940175
:100B90000A20FFF791FFE0E794012342000023427F
:100BA00000000020948121420080214270B5064659
:100BB0000024002505E000F00BF80546A54200DD05
:100BC0002C463000A6F10101CEB2F4D1204670BD12
:100BD00010B500F065F80AE00A48FFF7F1FD4FF69E
:100BE0000B61884203DD0748FFF7EAFD10BD0421D1
:100BF0000448FFF7E8FD0028EED00248FFF7DDFDCE
:100C0000F4E70000000C004070B586B00026082113
:100C10004FF6FF7000F09EF8002409E0FFF7D8FFC0
:100C200001A921F814000A20FFF746FF601CC4B296
:100C30000A2CF3DB00241CE0002516E001A830F8A4
:100C4000151001AA681C32F8100081420BDD01A9C1
:100C500031F81500691C32F8111022F81510691CC2
:100C600022F8110000BF681CC5B20A2DE6DB601C2B
:100C7000C4B20A2CE0DB022406E001A830F814001C
:100C8000304486B2601CC4B2082CF6DB062096FB0A
:100C9000F0F086B20148068006B070BD1800002052
:100CA00008B501210420FFF78DFB10208DF803000B
:100CB0000220ADF8000003208DF8020069460E48BE
:100CC000FFF7DBFA02210C48FFF762FB0520FFF774
:100CD000F3FE05210948FFF761FD00210748FFF7F2
:100CE000D1FD04208DF803000220ADF80000694614
:100CF0000148FFF7C2FA08BD00080140000C00409F
:100D00002DE9F0410546032600271DB100200F49BB
:100D1000087006263046FFF749FF04460C48008855
:100D20006430844206DD0948007800B901270220BA
:100D3000064908700548007820B104480078401E34
:100D4000024908703846BDE8F08100001A00002012
:100D50001800002030B587B005460C460121082058
:100D6000FFF720FB01210420FFF72CFB04208DF866
:100D700003000220ADF8000003208DF80200694650
:100D80001348FFF77AFA0020ADF80A00ADF8060024
:100D9000ADF80850ADF8044001A90E48FFF7A0FDDA
:100DA0000420ADF810000020ADF81800ADF81200D6
:100DB000ADF816000120ADF8140004A90548FFF7AE
:100DC0000BFD01210348FFF7ECFC07B030BD00002C
:100DD00000080140000C0040F80D00080000002051
:100DE000280000006C010008200E000828000020E8
:100DF00028070000880100080000000000A24A0443
:100E000000000000000000000102030406070809BA
:100E100000000000000000000000000000000000D2
:0400000508000131BD
:00000001FF
