:020000040800F2
:1000000070070020DD0100085D0C00086109000890
:10001000590C00081905000897240008000000008A
:100020000000000000000000000000002B0F00088E
:100030001D050008000000008D0D00083D1000089F
:10004000F7010008F7010008F7010008F7010008B0
:10005000F7010008F7010008F7010008F7010008A0
:10006000F7010008F7010008F7010008F701000890
:10007000F7010008F7010008F7010008F701000880
:10008000F7010008F7010008F7010008F701000870
:10009000F7010008F7010008F70100082105000832
:1000A000F7010008F7010008F7010008F701000850
:1000B000F7010008F7010008F7010008F701000840
:1000C000F7010008F7010008F7010008F701000830
:1000D000F701000875220008F7010008F701000881
:1000E000F7010008F7010008F7010008F701000810
:1000F000F7010008F7010008F7010008F701000800
:10010000F7010008F7010008F7010008F7010008EF
:10011000F7010008F7010008F7010008F7010008DF
:10012000F7010008F7010008F7010008F7010008CF
:1001300000F002F800F042F80AA090E8000C8244B7
:100140008344AAF10107DA4501D100F037F8AFF294
:10015000090EBAE80F0013F0010F18BFFB1A43F0A5
:1001600001031847702A0000902A0000103A24BFAB
:1001700078C878C1FAD8520724BF30C830C144BF0C
:1001800004680C607047000000230024002500264E
:10019000103A28BF78C1FBD8520728BF30C148BFEA
:1001A0000B607047642900F04780782900F0808058
:1001B000002070471FB51FBD10B510BD00F07AF9C3
:1001C0001146FFF7F7FF02F001FA00F098F903B4C7
:1001D000FFF7F2FF03BC02F060F900000948804716
:1001E00009480047FEE7FEE7FEE7FEE7FEE7FEE719
:1001F000FEE7FEE7FEE7FEE704480549054A064B31
:100200007047000041100008310100087001002013
:10021000700700207003002070030020704700006A
:100220000FB4044910B503AA029800F015F910BCE8
:100230005DF814FB300000202DE9F0410646002453
:1002400010687529314616A510D0AFF3008000283C
:1002500002DA404213A507E031688A0701D512A5EA
:1002600002E0490704D511A5012401E0AFF30080A5
:1002700000210A2206F1240709E0B0FBF2FCB0FBE2
:10028000F2F302FB1C00303078541846491C002859
:10029000F3D123462A463046BDE8F04100F082B84B
:1002A000000000002D0000002B00000020000000D6
:1002B00070B504460D4621461068AFF300802188D2
:1002C000090502D50F4A7A4402E00E4A7A440E32FA
:1002D000002104F1240305E000F00F060009965DFB
:1002E0005E54491C0028F7D120780023000704D56C
:1002F000702D02D009B1022311322046BDE87040B2
:1003000000F050B8D02800002DE9F0410F46044617
:100310000020DFF88480F84420622046E1688847A6
:1003200090B3252806D0D4E901219047206A401CCB
:100330002062F2E700252046E1688847202806462B
:1003400008DB312E06D208EB060010F8200C08B1AD
:100350000543F0E7A80701D525F00405A6B1A6F1ED
:100360004100192802D8203645F400653A46314646
:1003700020462560FFF716FF48B1012805D0FF1D74
:1003800027F007070837C8E703E03F1DC5E73046F9
:10039000C9E7206ABDE8F081A828000070477047CF
:1003A000704770472DE9F0470D469946924604463E
:1003B00000F124080168880604D5E06921F01001E5
:1003C000216000E00120A84201DD471B00E000277A
:1003D000A1697A1902EB0900081AA0612078C00609
:1003E00002D42046AFF30080002608E0D4E90121C2
:1003F0001AF806009047206A401C761C20624E4581
:10040000F4DB2078C0060AD52046AFF3008006E072
:10041000D4E9012130209047206A401C2062381E18
:10042000A7F10107F4DC07E0D4E9012118F8050081
:100430009047206A401C2062281EA5F10105F3DCCC
:100440002046AFF300802078000602D50220BDE8E8
:10045000F0870120FBE70000074B70B50D467B4499
:1004600000F011F80446284600F020F810B14FF0D3
:10047000FF3070BD204670BD1B21000001694A1C81
:1004800002610878704700B58FB0CDE901310021D5
:10049000059105497944CDE9031011466846FFF7F7
:1004A00033FF0FB000BD0000E5FFFFFF007B00F051
:1004B00080007047754600F02BF8AE46050069468F
:1004C000534620F00700854618B020B5FFF794FE8C
:1004D000BDE820404FF000064FF000074FF0000845
:1004E0004FF0000B21F00701AC46ACE8C009ACE8C6
:1004F000C009ACE8C009ACE8C0098D46704710B52A
:100500000446AFF300802046BDE81040FFF75FBE11
:10051000004870471001002000BFFEE77047000050
:1005200010B54FF4807000F039F810B3114800781E
:1005300080B9402010490860082010490860012057
:100540000C49087008200D49086040200A49091F1D
:1005500008600AE007480078012806D1082007490A
:10056000091D08600220034908704FF4807000F0F4
:1005700007F810BD3600002014140140100C014093
:1005800001490860704700001404014002490968ED
:100590000143014A116070471004014001460020E8
:1005A0000022074B1B6803EA0102054B14331B684A
:1005B0000B4013B10AB1012000E000207047000099
:1005C00000040140002123498279002A3AD00A46DA
:1005D000126803689A430B461A600A1D1268036882
:1005E0009A430B1D1A60027911440A6803681A4382
:1005F0000A60184A0832126803689A43154B083398
:100600001A601A1D126803689A43124B0C331A6061
:100610004279102A0ED11A1F126803681A430D4B33
:1006200008331A601A1D126803681A43094B0C3309
:100630001A600DE00749427911440A6803681A43B9
:100640000A6005E0027911440A6803689A430A6067
:10065000704700000004014051B18200A2F1C04285
:10066000126842F001038200A2F1C042136009E067
:100670008200A2F1C0421268034B1A408300A3F12A
:10068000C0431A6070470000FEFF0F00D0E901125E
:100690001143C268114302691143426911438269DF
:1006A0001143C2691143026A1143426A1143826ACB
:1006B0001143C26A1143026B114302689200A2F116
:1006C000C0421160816808290BD101688900A1F13D
:1006D000C041096841F0400201688900A1F1C041B0
:1006E0000A60416B0968426B526841EA0211426B31
:1006F000926841EA0221426B928941EA0241426BCF
:10070000128A41EA0251426B127D41EA0261426B58
:10071000926911430268521C9200A2F1C04211601A
:10072000C16AB1F5804F1BD1816B0968826B526839
:1007300041EA0211826B926841EA0221826B128ABD
:1007400041EA0251826B127D41EA0261826B926939
:10075000114302689200A2F1C042C2F8041107E0FE
:100760006FF0704201688900A1F1C041C1F8042115
:100770007047000030B500228B071C0F0F2303FACF
:1007800004F20B4B8C1053F824309343084C8D101B
:1007900044F8253023468C1053F824308C07240F5E
:1007A00000FA04F42343024C8D1044F8253030BD88
:1007B000080001402DE9F0410246002500260020F6
:1007C00000230024002791F803C00CF00F0591F8D6
:1007D00003C00CF0100CBCF1000F03D091F802C064
:1007E0004CEA050591F800C0BCF1000F31D0146847
:1007F00000202BE04FF0010C0CFA00F3B1F800C020
:100800000CEA03069E4220D183004FF00F0C0CFA35
:1008100003F7BC4305FA03FC4CEA040491F803C057
:10082000BCF1280F06D14FF0010C0CFA00FCC2F805
:1008300014C00AE091F803C0BCF1480F05D14FF095
:10084000010C0CFA00FCC2F810C0401C0828D1D3DF
:100850001460B1F800C0BCF1FF0F34DD5468002013
:100860002EE000F1080C4FF0010808FA0CF3B1F883
:1008700000C00CEA03069E4221D183004FF00F0C0A
:100880000CFA03F7BC4305FA03FC4CEA040491F8A4
:1008900003C0BCF1280F05D100F1080C08FA0CF8D0
:1008A000C2F8148091F803C0BCF1480F07D100F1E1
:1008B000080C4FF0010808FA0CF8C2F81080401C30
:1008C0000828CED35460BDE8F0810000F0B50A4698
:1008D000002300240021002500F00046B6F1004F5F
:1008E00002D11D4EF16901E01B4E7168C0F3034552
:1008F00083B200F44016B6F5401F08D121F07061B4
:10090000154E766826F07066134F7E6012E000F494
:100910008016B6F5801F06D1032606FA05F4A1431A
:1009200041F0706106E0460D360103FA06F6B14368
:1009300041F0706122B1460D360103FA06F63143EB
:1009400000F00046B6F1004F02D1034EF16101E024
:10095000014E7160F0BD0000000001400161704770
:1009600000BFFEE770B505460D4840880C49098870
:1009700000FB01F60A48808845F21031884203D115
:100980000021084600F0FAF800F054F9002403E0D2
:10099000284600F049F9641CB442F9D370BD000048
:1009A0000001002010B50446B4B900201749887131
:1009B0000846808845F21031884223D14FF4F07008
:1009C000124948804FF4A07008802A2048812B20CB
:1009D00088812C20088115E001200C498871084687
:1009E000808845F2103188420CD14FF4A07007493D
:1009F00048804FF4F07008802A2048812B2088819D
:100A00002C200881002000F015F810BD0001002006
:100A100008B5034800880090BDF8000008BD00003C
:100A20000008006C00B50246104600F0F7F8FFF72A
:100A3000EFFF00BD70B504464F488079F0B14E48D5
:100A4000808845F21031884218D1082C15D2DFE891
:100A500004F00406080A0C0E101206240DE0072408
:100A60000BE0042409E0052407E0012405E000244C
:100A700003E0032401E0022400BF00BF3E48808859
:100A800045F21031884218D1082C15D2DFE804F065
:100A90000406080A0C0E101200230DE080230BE060
:100AA000402309E0C02307E0202305E0602303E0A2
:100AB000A02301E0E02300BF00BF2F48808845F25B
:100AC0001031884200D136261946304600F0BCF875
:100AD00003F0200068B128480088274949888842E7
:100AE00014DA25480588408823490880084645804F
:100AF0000CE02148008820494988884206DD1E48CC
:100B0000058840881C490880084645801A48808826
:100B100045F2103188422DD11749488900F07EF8FE
:100B2000002000F075F8002000F072F812490988E2
:100B3000491EC1F30F2000F06BF80F490978491ED8
:100B4000C8B200F065F80C49888900F067F8002009
:100B500000F05EF8002000F05BF807494988491E64
:100B6000C1F30F2000F054F803498978491EC8B238
:100B700000F04EF870BD00000001002000B50246F4
:100B80000B460D48808845F21031884213D10A493E
:100B9000488900F043F8101200F03AF8D0B200F0A3
:100BA00037F80549888900F039F8181200F030F854
:100BB000D8B200F02DF800BD0001002030B5124C75
:100BC0006489124D2C800412AD1C2C80C4B22C8080
:100BD0008418641EC4F30F242C808418641EE4B2AD
:100BE0002C80094CA489AD1E2C800C12AD1C2C80CD
:100BF000CCB22C80CC18641EC4F30F242C80CC18EB
:100C0000641EE4B22C8030BD00010020FE07006CA1
:100C100001490880704700000008006C0149088005
:100C200070470000FE07006C014908807047000013
:100C30000008006C024800890249088070470000E3
:100C400000010020FE07006C024A1080921C1180F7
:100C500070470000FE07006C00BFFEE77047000011
:100C600070B5002100230F22C47804B3154C24680A
:100C700004F4E064C4F5E064210AC1F10403CA404D
:100C8000447804FA03F184781440214309010E4C9E
:100C90000678A155047804F01F050124AC400578BE
:100CA0006D11AD0005F1E025C5F8004109E00478BB
:100CB00004F01F050124AC40044D0678761145F878
:100CC000264070BD0CED00E000E400E080E100E0B3
:100CD00002490143024A1160704700000000FA0512
:100CE0000CED00E02DE9F0478046894616461F4688
:100CF0000420FFF79FFE3B46324649464046FFF739
:100D00005DFFFFF797FF00BF4FF480401C4948612B
:100D100010201C490860091F0860800218490861FA
:100D2000102018490860091F086000BF00241DE05A
:100D300000BF002510201349086013488068C5B221
:100D40001020091F08604FF6FF7000EA05251020EB
:100D5000091D08600C488068C0B205431020091FB7
:100D6000086000BF2846FFF75FFF641C06FB07F022
:100D7000A042DDD80020FFF75DFEBDE8F08700004F
:100D800000200140140C0140001001407047000099
:100D900029B1064A52690243044B5A6104E0034AEE
:100DA00052698243014B5A617047000000100240B3
:100DB00029B1064A92690243044B9A6104E0034A4E
:100DC00092698243014B9A61704700000010024013
:100DD00030B500210022002400232D4D6D6805F060
:100DE0000C0121B1042905D0082923D105E0294DA2
:100DF000056022E0274D05601FE0254D6D6805F474
:100E00007012234D6D6805F48034022505EB924283
:100E10001CB9214D554305600BE01D4D6D6805F46F
:100E200000351DB11C4D5543056002E0194D554379
:100E3000056002E0174D056000BF00BF144D6D68EE
:100E400005F0F0010909154D6B5C0568DD40456052
:100E50000F4D6D6805F4E061090A104D6B5C456843
:100E6000DD4085600A4D6D6805F46051C90A0B4D7F
:100E70006B5C4568DD40C560054D6D6805F440411B
:100E8000890B074D6B5CC568B5FBF3F5056130BD9B
:100E90000010024000127A0000093D0018000020F6
:100EA0002800002070B50446002501F02FFD4220E7
:100EB00001F06EFD642001F03BFB204601F068FD6F
:100EC000642001F035FB01F049FD642001F030FBA6
:100ED00001F01CFD432001F05BFD642001F028FBC4
:100EE00001F0E2FC054601F0BFFC01F037FD2846A9
:100EF00070BD70B504460D4601F008FD422001F0BA
:100F000047FD01F0CBFD10B901F028FD70BDE0B246
:100F100001F03EFD01F0C2FD284601F039FD01F06F
:100F2000BDFD01F01BFD00BFF0E7704710B500F0FC
:100F300001F810BD0CB50020019000903348006806
:100F400040F480303149086000BF3048006800F448
:100F5000003000900198401C0190009818B9019849
:100F6000B0F5A06FF1D12948006800F4003010B14D
:100F70000120009001E0002000900098012843D15A
:100F80002348006840F010002149086008460068C6
:100F900020F0030008600846006840F00200086086
:100FA0001A48406819494860084640684860084641
:100FB000406840F4806048600846406820F47C1037
:100FC00048600846406840F4E810486008460068F9
:100FD00040F08070086000BF0C48006800F00070AE
:100FE0000028F9D00948406820F00300074948600C
:100FF0000846406840F00200486000BF034840686F
:1010000000F00C000828F9D10CBD000000100240CF
:1010100000200240042808D14FF0E021096941F086
:1010200004014FF0E022116107E04FF0E02109696F
:1010300021F004014FF0E022116170477047000079
:1010400010B51348006840F00100114908600846D7
:101050004068104908400E494860084600680E493B
:1010600008400B4908600846006820F480200860AA
:101070000846406820F4FE0048604FF41F00886076
:10108000FFF754FF4FF000600449086010BD0000F6
:10109000001002400000FFF8FFFFF6FE08ED00E040
:1010A00000B59FB001210802FFF772FE01214FF445
:1010B000B470FFF77DFE10208DF87B000120ADF8A5
:1010C000780003208DF87A001EA9FE48FFF772FB16
:1010D00018208DF87B004CF23370ADF878001EA913
:1010E000F948FFF767FB4FF68070ADF878001EA94E
:1010F000F648FFF75FFB41F20100ADF878001EA94A
:10110000F348FFF757FB00200E900990012008904C
:1011100000200B900C900D900F200A90002007905B
:101120000290019004900590069003200390002007
:10113000149006200F900020139010904FF48040E0
:101140001A9010201290002011901990179015906D
:101150001B9016904FF48050189008A81C9001A87E
:101160001D900FA8FFF792FA01210620FFF774FAED
:10117000322001F0B7F90020FFF754FCD5498880F0
:1011800008468088FF280ADB084680884FF6FF71F2
:10119000884204D0CF488088B0F5134F7ED1D32049
:1011A000FFF73CFDFFF734FCCA498880FFF730FCAD
:1011B000C8498880FFF72CFCC6498880084680888B
:1011C0004FF6FF7101EA0020C2498880FFF720FC3A
:1011D000C04989880843BF4988800846808849F209
:1011E000413188425AD0BF20FFF718FDFFF710FCAD
:1011F000B8498880FFF70CFCB6498880FFF708FCE7
:10120000B4498880FFF704FCB2498880084680888A
:101210004FF6FF7101EA0020AE498880FFF7F8FB26
:10122000AC4989880843AB4988800846808846F6DF
:10123000040188427AD0D420FFF7F0FCFFF7E8FBE6
:10124000A4498880FFF7E4FBA2498880FFF7E0FB10
:10125000A0498880084680884FF6FF7101EA002087
:101260009C498880FFF7D4FB9A49898808439949AB
:1012700088800846808845F21031884256D04FF465
:101280005A40FFF7CBFCFFF7C3FB924988804FF42D
:101290005B40FFF7C3FCFFF7BBFB00E046E08D4976
:1012A0008880084680884FF6FF7101EA002089494E
:1012B00088804FF45C40FFF7B1FCFFF7A9FB85493C
:1012C000898808438349888008468088B0F5004FA4
:1012D00002D145F2105088807E48808845F2105136
:1012E000884223D0A120FFF799FCFFF791FB7949B1
:1012F0008880FFF78DFB77498880084680884FF605
:10130000FF7101EA002073498880FFF781FB714972
:10131000898808436F4988800846808845F2617152
:10132000884203D141F663106A4988806948818800
:1013300069A0FEF775FF6748808845F21031884242
:1013400040F08987ED20FFF769FC0120FFF760FC82
:10135000FE20FFF75DFCEE20FFF760FCDE20FFF7CC
:1013600057FC2120FFF754FCF120FFF757FC012028
:10137000FFF74EFCDF20FFF751FC1020FFF748FC81
:10138000C420FFF74BFC8F20FFF742FCC620FFF77D
:1013900045FC0020FFF73CFCE220FFF739FCE2208F
:1013A000FFF736FCE220FFF733FCBF20FFF736FCE7
:1013B000AA20FFF72DFCB020FFF730FC0D20FFF72F
:1013C00027FC0020FFF724FC0D20FFF721FC002064
:1013D000FFF71EFC1120FFF71BFC0020FFF718FC95
:1013E0001920FFF715FC0020FFF712FC2120FFF762
:1013F0000FFC0020FFF70CFC2D20FFF709FC00205C
:10140000FFF706FC3D20FFF703FC0020FFF700FC80
:101410005D20FFF7FDFB0020FFF7FAFB5D20FFF7E3
:10142000F7FB0020FFF7F4FBB120FFF7F7FB80206C
:10143000FFF7EEFB0020FFF7EBFB8B20FFF7E8FB4D
:101440000020FFF7E5FB9620FFF7E2FB0020FFF707
:10145000DFFBB220FFF7E2FB0020FFF7D9FB002003
:10146000FFF7D6FB0220FFF7D3FB0020FFF7D0FBEE
:101470000320FFF7CDFB0020FFF7CAFBB320FFF7E7
:10148000CDFB0020FFF7C4FB0020FFF7C1FB0020CD
:10149000FFF7BEFB0020FFF7BBFB0020FFF7B8FB08
:1014A0000020FFF7B5FB0020FFF7B2FB0020FFF79D
:1014B000AFFB0020FFF7ACFB0020FFF7A9FB0020EB
:1014C00010E00000000C0140001401400018014031
:1014D00000200140000100204C43442049443A20B0
:1014E00025235800FFF794FB0020FFF791FB002015
:1014F000FFF78EFB0020FFF78BFB0020FFF788FB38
:101500000020FFF785FB0020FFF782FB0020FFF79C
:101510007FFB0020FFF77CFB0020FFF779FB00201A
:10152000FFF776FB0020FFF773FB0020FFF770FB4F
:101530000020FFF76DFBB420FFF770FB8B20FFF757
:1015400067FB0020FFF764FB9620FFF761FB00209C
:10155000FFF75EFBA120FFF75BFB0020FFF758FBC6
:10156000B520FFF75BFB0220FFF752FB0020FFF7DF
:101570004FFB0320FFF74CFB0020FFF749FB042043
:10158000FFF746FB0020FFF743FBB620FFF746FBC3
:101590000020FFF73DFB0020FFF73AFBB720FFF7E5
:1015A0003DFB0020FFF734FB0020FFF731FB3F201D
:1015B000FFF72EFB0020FFF72BFB5E20FFF728FB39
:1015C0000020FFF725FB6420FFF722FB0020FFF738
:1015D0001FFB8C20FFF71CFB0020FFF719FBAC2042
:1015E000FFF716FB0020FFF713FBDC20FFF710FBD3
:1015F0000020FFF70DFB7020FFF70AFB0020FFF72C
:1016000007FB9020FFF704FB0020FFF701FBEB2016
:10161000FFF7FEFA0020FFF7FBFADC20FFF7F8FAED
:101620000020FFF7F5FAB820FFF7F8FA0020FFF7DF
:10163000EFFA0020FFF7ECFA0020FFF7E9FA0020AC
:10164000FFF7E6FA0020FFF7E3FA0020FFF7E0FAE1
:101650000020FFF7DDFA0020FFF7DAFABA20FFF7E3
:10166000DDFA2420FFF7D4FA0020FFF7D1FA00209A
:10167000FFF7CEFA0020FFF7CBFAC120FFF7CEFA32
:101680002020FFF7C5FA0020FFF7C2FA5420FFF729
:10169000BFFA0020FFF7BCFAFF20FFF7B9FA0020DD
:1016A000FFF7B6FAC220FFF7B9FA0A20FFF7B0FA3F
:1016B0000020FFF7ADFA0420FFF7AAFA0020FFF799
:1016C000A7FAC320FFF7AAFA3C20FFF7A1FA0020EF
:1016D000FFF79EFA3A20FFF79BFA0020FFF798FAEF
:1016E0003920FFF795FA0020FFF792FA3720FFF72D
:1016F0008FFA0020FFF78CFA3C20FFF789FA0020D0
:10170000FFF786FA3620FFF783FA0020FFF780FA0A
:101710003220FFF77DFA0020FFF77AFA2F20FFF73B
:1017200077FA0020FFF774FA2C20FFF771FA0020F7
:10173000FFF76EFA2920FFF76BFA0020FFF768FA2F
:101740002620FFF765FA0020FFF762FA2420FFF752
:101750005FFA0020FFF75CFA2420FFF759FA002017
:10176000FFF756FA2320FFF753FA0020FFF750FA4D
:101770003C20FFF74DFA0020FFF74AFA3620FFF72A
:1017800047FA0020FFF744FA3220FFF741FA002021
:10179000FFF73EFA2F20FFF73BFA0020FFF738FA59
:1017A0002C20FFF735FA0020FFF732FA2920FFF747
:1017B0002FFA0020FFF72CFA2620FFF729FA002045
:1017C000FFF726FA2420FFF723FA0020FFF720FA7C
:1017D0002420FFF71DFA0020FFF71AFA2320FFF755
:1017E00017FA0020FFF714FAC420FFF717FA622057
:1017F000FFF70EFA0020FFF70BFA0520FFF708FAB3
:101800000020FFF705FA8420FFF702FA0020FFF717
:10181000FFF9F020FFF7FCF90020FFF7F9F9182095
:10182000FFF7F6F90020FFF7F3F9A420FFF7F0F92E
:101830000020FFF7EDF91820FFF7EAF90020FFF785
:10184000E7F95020FFF7E4F90020FFF7E1F90C2059
:10185000FFF7DEF90020FFF7DBF91720FFF7D8F9D3
:101860000020FFF7D5F99520FFF7D2F90020FFF708
:10187000CFF9F320FFF7CCF90020FFF7C9F9E620F4
:10188000FFF7C6F90020FFF7C3F9C520FFF7C6F937
:101890003220FFF7BDF90020FFF7BAF94420FFF727
:1018A000B7F90020FFF7B4F96520FFF7B1F9002080
:1018B000FFF7AEF97620FFF7ABF90020FFF7A8F9A4
:1018C0008820FFF7A5F90020FFF7A2F9C620FFF74F
:1018D000A5F92020FFF79CF90020FFF799F91720C0
:1018E000FFF796F90020FFF793F90120FFF790F931
:1018F0000020FFF78DF9C720FFF790F90020FFF7D0
:1019000087F90020FFF784F90020FFF781F9002014
:10191000FFF77EF9C820FFF781F90020FFF778F97B
:101920000020FFF775F90020FFF772F90020FFF79C
:101930006FF9C920FFF772F90020FFF769F900205D
:10194000FFF766F90020FFF763F90020FFF760F961
:101950000020FFF75DF90020FFF75AF90020FFF79C
:1019600057F90020FFF754F90020FFF751F9002044
:10197000FFF74EF90020FFF74BF90020FFF748F979
:101980000020FFF745F90020FFF742F90020FFF79C
:101990003FF90020FFF73CF9E020FFF73FF9162060
:1019A000FFF736F90020FFF733F91C20FFF730F975
:1019B0000020FFF72DF92120FFF72AF90020FFF77B
:1019C00027F93620FFF724F90020FFF721F94620F8
:1019D000FFF71EF90020FFF71BF95220FFF718F957
:1019E0000020FFF715F96420FFF712F90020FFF738
:1019F0000FF97A20FFF70CF90020FFF709F98B2087
:101A0000FFF706F90020FFF703F99920FFF700F927
:101A10000020FFF7FDF8A820FFF7FAF80020FFF7F5
:101A2000F7F8B920FFF7F4F80020FFF7F1F8C42029
:101A3000FFF7EEF80020FFF7EBF8CA20FFF7E8F811
:101A40000020FFF7E5F8D220FFF7E2F80020FFF7CB
:101A5000DFF8D920FFF7DCF80020FFF7D9F8E02005
:101A6000FFF7D6F80020FFF7D3F8F320FFF7D0F800
:101A70000020FFF7CDF8E120FFF7D0F81620FFF7A0
:101A8000C7F80020FFF7C4F81C20FFF7C1F80020BA
:101A9000FFF7BEF82220FFF7BBF80020FFF7B8F8E9
:101AA0003620FFF7B5F80020FFF7B2F84520FFF722
:101AB000AFF80020FFF7ACF85220FFF7A9F800209C
:101AC000FFF7A6F86420FFF7A3F80020FFF7A0F8BF
:101AD0007A20FFF79DF80020FFF79AF88B20FFF798
:101AE00097F80020FFF794F89920FFF791F800206D
:101AF000FFF78EF8A820FFF78BF80020FFF788F893
:101B0000B920FFF785F80020FFF782F8C420FFF71F
:101B10007FF80020FFF77CF8CA20FFF779F8002053
:101B2000FFF776F8D220FFF773F80020FFF770F880
:101B3000D820FFF76DF80020FFF76AF8E020FFF7E4
:101B400067F80020FFF764F8F320FFF761F8002042
:101B5000FFF75EF8E220FFF761F80520FFF758F87D
:101B60000020FFF755F80B20FFF752F80020FFF791
:101B70004FF81B20FFF74CF80020FFF749F83420FE
:101B8000FFF746F80020FFF743F84420FFF740F83E
:101B90000020FFF73DF84F20FFF73AF80020FFF74D
:101BA00037F86120FFF734F80020FFF731F879208B
:101BB000FFF72EF80020FFF72BF88820FFF728F812
:101BC0000020FFF725F89720FFF722F80020FFF705
:101BD0001FF8A620FFF71CF80020FFF719F8B72020
:101BE000FFF716F80020FFF713F8C220FFF710F8F0
:101BF0000020FFF70DF8C720FFF70AF80020FFF7D5
:101C000007F8D120FFF704F80020FFF701F8D620ED
:101C1000FEF7FEFF0020FEF7FBFFDD20FEF7F8FFDA
:101C20000020FEF7F5FFF320FEF7F2FF0020FEF79D
:101C3000EFFFE320FEF7F2FF0520FEF7E9FF0020AB
:101C4000FEF7E6FF0A20FEF7E3FF0020FEF7E0FFC5
:101C50001C20FEF7DDFF0020FEF7DAFF3320FEF741
:101C6000D7FF0020FEF7D4FF4420FEF7D1FF00206D
:101C7000FEF7CEFF5020FEF7CBFF0020FEF7C8FF97
:101C80006220FEF7C5FF0020FEF7C2FF7820FEF7B6
:101C9000BFFF0020FEF7BCFF8820FEF7B9FF002041
:101CA000FEF7B6FF9720FEF7B3FF0020FEF7B0FF68
:101CB000A620FEF7ADFF0020FEF7AAFFB720FEF733
:101CC000A7FF0020FEF7A4FFC220FEF7A1FF00201F
:101CD000FEF79EFFC720FEF79BFF0020FEF798FF50
:101CE000D120FEF795FF0020FEF792FFD520FEF7EA
:101CF0008FFF0020FEF78CFFDD20FEF789FF00201C
:101D0000FEF786FFF320FEF783FF0020FEF780FF3B
:101D1000E420FEF783FF0120FEF77AFF0020FEF7A4
:101D200077FF0120FEF774FF0020FEF771FF02200D
:101D3000FEF76EFF0020FEF76BFF2A20FEF768FF1C
:101D40000020FEF765FF3C20FEF762FF0020FEF753
:101D50005FFF4B20FEF75CFF0020FEF759FF5D2080
:101D6000FEF756FF0020FEF753FF7420FEF750FFEA
:101D70000020FEF74DFF8420FEF74AFF0020FEF70B
:101D800047FF9320FEF744FF0020FEF741FFA2200B
:101D9000FEF73EFF0020FEF73BFFB320FEF738FFC3
:101DA0000020FEF735FFBE20FEF732FF0020FEF7D1
:101DB0002FFFC420FEF72CFF0020FEF729FFCD20C7
:101DC000FEF726FF0020FEF723FFD320FEF720FFBB
:101DD0000020FEF71DFFDD20FEF71AFF0020FEF7B2
:101DE00017FFF320FEF714FF0020FEF711FFE52098
:101DF000FEF714FF0020FEF70BFF0020FEF708FFA0
:101E00000020FEF705FF0020FEF702FF0220FEF78C
:101E1000FFFE0020FEF7FCFE2920FEF7F9FE002061
:101E2000FEF7F6FE3C20FEF7F3FE0020FEF7F0FE84
:101E30004B20FEF7EDFE0020FEF7EAFE5D20FEF7E8
:101E4000E7FE0020FEF7E4FE7420FEF7E1FE00202E
:101E5000FEF7DEFE8420FEF7DBFE0020FEF7D8FE54
:101E60009320FEF7D5FE0020FEF7D2FEA220FEF75B
:101E7000CFFE0020FEF7CCFEB320FEF7C9FE002007
:101E8000FEF7C6FEBE20FEF7C3FE0020FEF7C0FE32
:101E9000C420FEF7BDFE0020FEF7BAFECD20FEF7FF
:101EA000B7FE0020FEF7B4FED320FEF7B1FE0020FF
:101EB000FEF7AEFEDC20FEF7ABFE0020FEF7A8FE2C
:101EC000F320FEF7A5FE0020FEF7A2FEE620FEF7B7
:101ED000A5FE1120FEF79CFE0020FEF799FE34209F
:101EE000FEF796FE0020FEF793FE5620FEF790FECA
:101EF0000020FEF78DFE7620FEF78AFE0020FEF71A
:101F000087FE7720FEF784FE0020FEF781FE662024
:101F1000FEF77EFE0020FEF77BFE8820FEF778FEAF
:101F20000020FEF775FE9920FEF772FE0020FEF7F6
:101F30006FFEBB20FEF76CFE0020FEF769FE9920C5
:101F4000FEF766FE0020FEF763FE6620FEF760FEE9
:101F50000020FEF75DFE5520FEF75AFE0020FEF73A
:101F600057FE5520FEF754FE0020FEF751FE452097
:101F7000FEF74EFE0020FEF74BFE4320FEF748FE24
:101F80000020FEF745FE4420FEF742FE0020FEF74B
:101F90003FFEE720FEF742FE3220FEF739FE00202A
:101FA000FEF736FE5520FEF733FE0020FEF730FE2A
:101FB0007620FEF72DFE0020FEF72AFE6620FEF7B3
:101FC00027FE0020FEF724FE6720FEF721FE0020FA
:101FD000FEF71EFE6720FEF71BFE0020FEF718FE30
:101FE0008720FEF715FE0020FEF712FE9920FEF76F
:101FF0000FFE0020FEF70CFEBB20FEF709FE0020BE
:10200000FEF706FE9920FEF703FE0020FEF700FE15
:102010007720FEF7FDFD0020FEF7FAFD4420FEF7D5
:10202000F7FD0020FEF7F4FD5620FEF7F1FD00203D
:10203000FEF7EEFD2320FEF7EBFD0020FEF7E8FDA6
:102040003320FEF7E5FD0020FEF7E2FD4520FEF718
:10205000DFFD0020FEF7DCFDE820FEF7DFFD0020BD
:10206000FEF7D6FD0020FEF7D3FD9920FEF7D0FD48
:102070000020FEF7CDFD8720FEF7CAFD0020FEF709
:10208000C7FD8820FEF7C4FD0020FEF7C1FD7720C4
:10209000FEF7BEFD0020FEF7BBFD6620FEF7B8FD93
:1020A0000020FEF7B5FD8820FEF7B2FD0020FEF708
:1020B000AFFDAA20FEF7ACFD0020FEF7A9FDBB2076
:1020C000FEF7A6FD0020FEF7A3FD9920FEF7A0FD78
:1020D0000020FEF79DFD6620FEF79AFD0020FEF72A
:1020E00097FD5520FEF794FD0020FEF791FD552049
:1020F000FEF78EFD0020FEF78BFD4420FEF788FDE5
:102100000020FEF785FD4420FEF782FD0020FEF74B
:102110007FFD5520FEF77CFD0020FEF779FDE920CC
:10212000FEF77CFDAA20FEF773FD0020FEF770FD90
:102130000020FEF76DFD0020FEF76AFD0020FEF78F
:102140006DFDAA20FEF764FDCF20FEF767FD00209D
:10215000FEF75EFD0020FEF75BFD0020FEF758FD58
:102160000020FEF755FD0020FEF752FD0020FEF78F
:102170004FFD0020FEF74CFD0020FEF749FD00203A
:10218000FEF746FD0020FEF743FD0020FEF740FD70
:102190000020FEF73DFD0020FEF73AFD0020FEF78F
:1021A00037FD0020FEF734FD0020FEF731FD002052
:1021B000FEF72EFDF020FEF731FD0020FEF728FD92
:1021C0005020FEF725FD0020FEF722FD0020FEF73F
:1021D0001FFD0020FEF71CFDF320FEF71FFD002071
:1021E000FEF716FDF920FEF719FD0620FEF710FD9B
:1021F0001020FEF70DFD2920FEF70AFD0020FEF756
:1022000007FD3A20FEF70AFD5520FEF701FD1120DB
:10221000FEF704FD642000F065F92920FEF7FEFCBE
:102220003520FEF7FBFC0020FEF7F2FC5120FEF704
:10223000F5FCFF20FEF7ECFC5320FEF7EFFC2C2012
:10224000FEF7E6FC5520FEF7E9FC8220FEF7E0FCF5
:102250002C20FEF7E3FC0020FEF7A4FB012104483C
:10226000FEF77CFB4FF6FF70FEF77CFB1FB000BD56
:10227000000C014010B540F225511D4800F04AF80D
:1022800010B31B4800F002F9C4B21A48008800F4E9
:102290000040C8B91748008800F4804060B10A2C9B
:1022A00003D000201349088020E01248008840F441
:1022B00000401049088019E00D2C06D10D48008817
:1022C00040F480400B49088010E00A480088C0F3C1
:1022D0000D0009490C5407480088401C0549088036
:1022E00008460088C72801DD0020088010BD0000D6
:1022F00000380140340000203800002021B18289DC
:1023000042F40052828104E082894DF6FF731A4044
:102310008281704770B5024600240023002500200A
:1023200040F66A16B14200D100BFC1F3421501F078
:102330001F03012606FA03F3012D02D196893340CB
:1023400006E0022D02D1168A334001E0968A33401E
:102350000C12012606FA04F41688344013B10CB1AD
:10236000012000E0002070BDF0B5034600240026E7
:102370000025002040F66A17B94200D100BF184678
:10238000C1F3421401F01F06012707FA06F5012CDC
:1023900001D10C3004E0022C01D1103000E01430E7
:1023A0001AB107682F43076002E00768AF43076070
:1023B000F0BD00002DE9F04786B005460E4600242A
:1023C000A24600BFA1460027B08900B100BF2F463A
:1023D0002C8A4CF6FF700440F08804432C82AC89B0
:1023E0004EF6F3100440B0883189084371890843E0
:1023F0000443AC81AC8A4FF6FF400440B0890443EB
:10240000AC8201A8FEF7E4FC1F48874202D1DDF848
:1024100010A001E0DDF80CA0A88900F4004040B154
:102420000AEBCA0000EB0A1031684900B0FBF1F872
:1024300007E00AEBCA0000EB0A1031688900B0FB24
:10244000F1F86420B8FBF0F004012009642101FBDD
:102450001089A88900F4004040B1322000EBC90087
:10246000B0FBF1F000F00700044308E0322000EB7D
:1024700009106421B0FBF1F000F00F0004432C813F
:1024800006B0BDE8F08700000038014001468888AA
:10249000C0F30800704700BFFEE700BF70470000B0
:1024A00010B56FF00400FEF7B5FD0A4800680A4950
:1024B000B0FBF1F0094908700846007800EB4001D4
:1024C000C1EBC0104FF6FF7101EAC000044908805B
:1024D00010BD00000400002000127A002C00002033
:1024E0002E0000200146114A12884A434FF0E02393
:1024F0005A6100229A611A46126942F001021A6179
:1025000000BF4FF0E022106900F001021AB100F4A0
:102510008032002AF5D04FF0E022126922F0010249
:102520004FF0E0231A6100229A6170472E000020CC
:102530000146114A12784A434FF0E0235A610022C3
:102540009A611A46126942F001021A6100BF4FF007
:10255000E022106900F001021AB100F48032002A72
:10256000F5D04FF0E022126922F001024FF0E02393
:102570001A6100229A6170472C00002000BF054AB2
:10258000128802F04002002AF9D0C2B2014B1B1D92
:102590001A8070470038014008B501210820FEF775
:1025A00007FC10208DF803002020ADF80000032068
:1025B0008DF8020069460448FEF7FCF82021024825
:1025C000FEF7CCF908BD0000000C01404FF4A060FC
:1025D000FEF77EFB4FF4E13000F010FAFFF760FFEA
:1025E000FFF7DAFFFEF75CFD00F034F829E015484C
:1025F0000078022809D1F0234FF4A0722821084660
:10260000FEF770FB00200F4908700A20FFF76AFFF1
:102610000D480068401C0C490860084600686428A2
:1026200001D300200860084800683221B0FBF1F2B5
:1026300001FB120028B905480068C0430449C1F8ED
:102640009401D4E73600002000000020948121424C
:10265000008021427FB500250024012140F23D1079
:10266000FEF7A6FB10208DF80F0003208DF80E005A
:102670004FF40040ADF80C0003A95E48FEF79AF84D
:102680004020ADF80C0003A95B48FEF793F84FF427
:102690008040ADF80C0003A95648FEF78BF81020D7
:1026A000ADF80C0003A95548FEF784F80820ADF8F2
:1026B0000C0003A95148FEF77DF8FF20ADF80C008F
:1026C00004208DF80F0003208DF80E0003A94C485C
:1026D000FEF770F84FF4004046494861082047492A
:1026E0001031086001214748FEF7F0F800F09CF82F
:1026F00001210520FEF75CFB4FF48070ADF80C0063
:1027000048208DF80F0003208DF80E0003A93E48E5
:10271000FEF750F808210020FEF72CF84FF48070E7
:10272000019000208DF808000C208DF80900012090
:102730008DF80A0001A8FDF745FF4FF48070FDF702
:1027400025FF4FF4C060FEF7C3FA17208DF8000094
:1027500000208DF8010003208DF8020001208DF883
:1027600003006846FEF77CFA80211220FEF7C1FBC9
:102770003220FFF7B7FE1C20FEF794FB04464FF60D
:10278000FF7000EA04241D20FEF78CFB044347F68B
:10279000A270844206D021461CA0FDF741FD012015
:1027A00004B070BD0A20FEF77DFB04464FF6FF70B3
:1027B00000EA04240B20FEF775FB044347F2217066
:1027C000844205D0214614A0FDF72AFD0220E7E748
:1027D00000250AE0134A02EB45025178114A12F82B
:1027E0001500FEF786FB681C85B2412DF2D3002050
:1027F000D6E700000020014000140140000C014019
:102800000010014000023000000801404D49443AE8
:1028100025640D0A000000004849443A25640D0A69
:1028200000000000182B000808B501214FF490703B
:10283000FEF7BEFA10208DF803000820ADF8000066
:1028400003208DF8020069460548FDF7B3FF4FF4F9
:102850000050ADF8000069460248FDF7ABFF08BD27
:10286000001401400020014010B508200C49086008
:102870003220FFF75DFE4FF400500A490861322014
:10288000FFF756FE08200649091F08603220FFF7AF
:102890004FFE0820024908603220FFF749FE10BDB4
:1028A000141401400020014070B500241548406810
:1028B00020F47000134948600846406840F48000E6
:1028C0004860002517E06006040E08200E490860E5
:1028D0003220FFF72DFE08200B49091F0860322027
:1028E000FFF726FE0748806800F4005008B1601C1E
:1028F000C4B2681CC5B2082DE5DB08200249086097
:10290000204670BD002001401414014010B54FF462
:1029100000501049086108200F4908603220FFF775
:1029200007FE0C48806800F4005000B910BD4FF459
:102930000050084948610846806800F4005000B122
:10294000F4E74FF40050034948613220FFF7F0FDEF
:1029500000BFEBE7002001401014014010B54FF418
:102960000050094948613220FFF7E2FD082007497D
:1029700008603220FFF7DCFD4FF400500249086187
:102980003220FFF7D5FD10BD00200140101401409A
:1029900070B505462E46002425E00820154908603C
:1029A0003220FFF7C5FD06F0800020B14FF4005043
:1029B0001149086103E04FF400500F49486132208B
:1029C000FFF7B6FD08200B49091F08603220FFF70A
:1029D000AFFD7006060E072C03D14FF400500649D8
:1029E0000861601CC4B2082CD7DB082001490860CC
:1029F00070BD0000141401400020014010B586B0E5
:102A00000446012144F20400FEF7D2F94FF40070AD
:102A1000ADF8140003208DF8160018208DF817006B
:102A200005A91C48FDF7C6FE4FF48060ADF8140000
:102A300004208DF8170005A91648FDF7BBFE2520D8
:102A40008DF8000003208DF801008DF802000120B0
:102A50008DF803006846FEF703F901940020ADF8F5
:102A60000800ADF80A00ADF80C00ADF810000C201D
:102A7000ADF80E0001A90848FFF79CFC012240F2C6
:102A800025510548FFF770FC01210348FFF736FC8C
:102A900006B010BD000801400038014010B51C48C8
:102AA000406820F470001A4948600846406840F4C5
:102AB000800048600820174908603220FFF738FD81
:102AC0004FF40050124908613220FFF731FD082011
:102AD0001049091F08603220FFF72AFD0C48806862
:102AE00000F4005020B108200A490860002010BD01
:102AF0000820084908600648406820F4700004492E
:102B000048600846406840F4401048600120EEE705
:102B1000002001401414014011001206173F185004
:102B200019031A78320029502C78427F4D0963E04E
:102B300064FF65006600670013F00D810FC5141176
:102B4000227F23032440253026A12B9E6BAA13FF4E
:102B5000900891019203930094B0959D9613971657
:102B6000987B99919A1E9B089C209E81A606A7653A
:102B7000A865A980AA807E0C7F16802A814E82617A
:102B8000836F847B8586868E879788A489AF8AC564
:102B90008BD78CE88D200C500EF530313233343524
:102BA0003637383941424344454640305800303189
:102BB00032333435363738396162636465664030A4
:102BC000780004000008000000000000000200017E
:102BD00000001000F42B0008000000203800000066
:102BE0006C0100082C2C0008380000203807000079
:102BF000880100080000000000A24A040000000054
:102C0000000000000102030406070809000000009C
:102C1000010203040102030406070809020406086E
:0C2C2000000000000000000000000000A8
:0400000508000131BD
:00000001FF
