:020000040800F2
:1000000070070020DD0100085D0C00086109000890
:10001000590C0008190500082327000800000000FB
:10002000000000000000000000000000B511000802
:100030001D0500080000000009100008C912000892
:10004000F7010008F7010008F7010008F7010008B0
:10005000F7010008F7010008F7010008F7010008A0
:10006000F7010008F7010008F7010008F701000890
:10007000F7010008F7010008F7010008F701000880
:10008000F7010008F7010008F7010008F701000870
:10009000F7010008F7010008F70100082105000832
:1000A000F7010008F7010008F7010008F701000850
:1000B000F7010008F7010008F7010008F701000840
:1000C000F7010008F7010008F7010008F701000830
:1000D000F701000801250008F7010008F7010008F2
:1000E000F7010008F7010008F7010008F701000810
:1000F000F7010008F7010008F7010008F701000800
:10010000F7010008F7010008F7010008F7010008EF
:10011000F7010008F7010008F7010008F7010008DF
:10012000F7010008F7010008F7010008F7010008CF
:1001300000F002F800F042F80AA090E8000C8244B7
:100140008344AAF10107DA4501D100F037F8AFF294
:10015000090EBAE80F0013F0010F18BFFB1A43F0A5
:1001600001031847202E0000402E0000103A24BF43
:1001700078C878C1FAD8520724BF30C830C144BF0C
:1001800004680C607047000000230024002500264E
:10019000103A28BF78C1FBD8520728BF30C148BFEA
:1001A0000B607047642900F04780782900F0808058
:1001B000002070471FB51FBD10B510BD00F07AF9C3
:1001C0001146FFF7F7FF02F047FB00F098F903B480
:1001D000FFF7F2FF03BC02F0A6FA000009488047CF
:1001E00009480047FEE7FEE7FEE7FEE7FEE7FEE719
:1001F000FEE7FEE7FEE7FEE704480549054A064B31
:1002000070470000CD120008310100087001002085
:10021000700700207003002070030020704700006A
:100220000FB4044910B503AA029800F015F910BCE8
:100230005DF814FB300000202DE9F0410646002453
:1002400010687529314616A510D0AFF3008000283C
:1002500002DA404213A507E031688A0701D512A5EA
:1002600002E0490704D511A5012401E0AFF30080A5
:1002700000210A2206F1240709E0B0FBF2FCB0FBE2
:10028000F2F302FB1C00303078541846491C002859
:10029000F3D123462A463046BDE8F04100F082B84B
:1002A000000000002D0000002B00000020000000D6
:1002B00070B504460D4621461068AFF300802188D2
:1002C000090502D50F4A7A4402E00E4A7A440E32FA
:1002D000002104F1240305E000F00F060009965DFB
:1002E0005E54491C0028F7D120780023000704D56C
:1002F000702D02D009B1022311322046BDE87040B2
:1003000000F050B8802C00002DE9F0410F46044663
:100310000020DFF88480F84420622046E1688847A6
:1003200090B3252806D0D4E901219047206A401CCB
:100330002062F2E700252046E1688847202806462B
:1003400008DB312E06D208EB060010F8200C08B1AD
:100350000543F0E7A80701D525F00405A6B1A6F1ED
:100360004100192802D8203645F400653A46314646
:1003700020462560FFF716FF48B1012805D0FF1D74
:1003800027F007070837C8E703E03F1DC5E73046F9
:10039000C9E7206ABDE8F081582C0000704770471B
:1003A000704770472DE9F0470D469946924604463E
:1003B00000F124080168880604D5E06921F01001E5
:1003C000216000E00120A84201DD471B00E000277A
:1003D000A1697A1902EB0900081AA0612078C00609
:1003E00002D42046AFF30080002608E0D4E90121C2
:1003F0001AF806009047206A401C761C20624E4581
:10040000F4DB2078C0060AD52046AFF3008006E072
:10041000D4E9012130209047206A401C2062381E18
:10042000A7F10107F4DC07E0D4E9012118F8050081
:100430009047206A401C2062281EA5F10105F3DCCC
:100440002046AFF300802078000602D50220BDE8E8
:10045000F0870120FBE70000074B70B50D467B4499
:1004600000F011F80446284600F020F810B14FF0D3
:10047000FF3070BD204670BDA723000001694A1CF3
:1004800002610878704700B58FB0CDE901310021D5
:10049000059105497944CDE9031011466846FFF7F7
:1004A00033FF0FB000BD0000E5FFFFFF007B00F051
:1004B00080007047754600F02BF8AE46050069468F
:1004C000534620F00700854618B020B5FFF794FE8C
:1004D000BDE820404FF000064FF000074FF0000845
:1004E0004FF0000B21F00701AC46ACE8C009ACE8C6
:1004F000C009ACE8C009ACE8C0098D46704710B52A
:100500000446AFF300802046BDE81040FFF75FBE11
:10051000004870471001002000BFFEE77047000050
:1005200010B54FF4807000F039F810B3114800781E
:1005300080B9402010490860082010490860012057
:100540000C49087008200D49086040200A49091F1D
:1005500008600AE007480078012806D1082007490A
:10056000091D08600220034908704FF4807000F0F4
:1005700007F810BD3600002014140140100C014093
:1005800001490860704700001404014002490968ED
:100590000143014A116070471004014001460020E8
:1005A0000022074B1B6803EA0102054B14331B684A
:1005B0000B4013B10AB1012000E000207047000099
:1005C00000040140002123498279002A3AD00A46DA
:1005D000126803689A430B461A600A1D1268036882
:1005E0009A430B1D1A60027911440A6803681A4382
:1005F0000A60184A0832126803689A43154B083398
:100600001A601A1D126803689A43124B0C331A6061
:100610004279102A0ED11A1F126803681A430D4B33
:1006200008331A601A1D126803681A43094B0C3309
:100630001A600DE00749427911440A6803681A43B9
:100640000A6005E0027911440A6803689A430A6067
:10065000704700000004014051B18200A2F1C04285
:10066000126842F001038200A2F1C042136009E067
:100670008200A2F1C0421268034B1A408300A3F12A
:10068000C0431A6070470000FEFF0F00D0E901125E
:100690001143C268114302691143426911438269DF
:1006A0001143C2691143026A1143426A1143826ACB
:1006B0001143C26A1143026B114302689200A2F116
:1006C000C0421160816808290BD101688900A1F13D
:1006D000C041096841F0400201688900A1F1C041B0
:1006E0000A60416B0968426B526841EA0211426B31
:1006F000926841EA0221426B928941EA0241426BCF
:10070000128A41EA0251426B127D41EA0261426B58
:10071000926911430268521C9200A2F1C04211601A
:10072000C16AB1F5804F1BD1816B0968826B526839
:1007300041EA0211826B926841EA0221826B128ABD
:1007400041EA0251826B127D41EA0261826B926939
:10075000114302689200A2F1C042C2F8041107E0FE
:100760006FF0704201688900A1F1C041C1F8042115
:100770007047000030B500228B071C0F0F2303FACF
:1007800004F20B4B8C1053F824309343084C8D101B
:1007900044F8253023468C1053F824308C07240F5E
:1007A00000FA04F42343024C8D1044F8253030BD88
:1007B000080001402DE9F0410246002500260020F6
:1007C00000230024002791F803C00CF00F0591F8D6
:1007D00003C00CF0100CBCF1000F03D091F802C064
:1007E0004CEA050591F800C0BCF1000F31D0146847
:1007F00000202BE04FF0010C0CFA00F3B1F800C020
:100800000CEA03069E4220D183004FF00F0C0CFA35
:1008100003F7BC4305FA03FC4CEA040491F803C057
:10082000BCF1280F06D14FF0010C0CFA00FCC2F805
:1008300014C00AE091F803C0BCF1480F05D14FF095
:10084000010C0CFA00FCC2F810C0401C0828D1D3DF
:100850001460B1F800C0BCF1FF0F34DD5468002013
:100860002EE000F1080C4FF0010808FA0CF3B1F883
:1008700000C00CEA03069E4221D183004FF00F0C0A
:100880000CFA03F7BC4305FA03FC4CEA040491F8A4
:1008900003C0BCF1280F05D100F1080C08FA0CF8D0
:1008A000C2F8148091F803C0BCF1480F07D100F1E1
:1008B000080C4FF0010808FA0CF8C2F81080401C30
:1008C0000828CED35460BDE8F0810000F0B50A4698
:1008D000002300240021002500F00046B6F1004F5F
:1008E00002D11D4EF16901E01B4E7168C0F3034552
:1008F00083B200F44016B6F5401F08D121F07061B4
:10090000154E766826F07066134F7E6012E000F494
:100910008016B6F5801F06D1032606FA05F4A1431A
:1009200041F0706106E0460D360103FA06F6B14368
:1009300041F0706122B1460D360103FA06F63143EB
:1009400000F00046B6F1004F02D1034EF16101E024
:10095000014E7160F0BD0000000001400161704770
:1009600000BFFEE770B505460D4840880C49098870
:1009700000FB01F60A48808845F21031884203D115
:100980000021084600F0FAF800F054F9002403E0D2
:10099000284600F049F9641CB442F9D370BD000048
:1009A0000001002010B50446B4B900201749887131
:1009B0000846808845F21031884223D14FF4F07008
:1009C000124948804FF4A07008802A2048812B20CB
:1009D00088812C20088115E001200C498871084687
:1009E000808845F2103188420CD14FF4A07007493D
:1009F00048804FF4F07008802A2048812B2088819D
:100A00002C200881002000F015F810BD0001002006
:100A100008B5034800880090BDF8000008BD00003C
:100A20000008006C00B50246104600F0F7F8FFF72A
:100A3000EFFF00BD70B504464F488079F0B14E48D5
:100A4000808845F21031884218D1082C15D2DFE891
:100A500004F00406080A0C0E101206240DE0072408
:100A60000BE0042409E0052407E0012405E000244C
:100A700003E0032401E0022400BF00BF3E48808859
:100A800045F21031884218D1082C15D2DFE804F065
:100A90000406080A0C0E101200230DE080230BE060
:100AA000402309E0C02307E0202305E0602303E0A2
:100AB000A02301E0E02300BF00BF2F48808845F25B
:100AC0001031884200D136261946304600F0BCF875
:100AD00003F0200068B128480088274949888842E7
:100AE00014DA25480588408823490880084645804F
:100AF0000CE02148008820494988884206DD1E48CC
:100B0000058840881C490880084645801A48808826
:100B100045F2103188422DD11749488900F07EF8FE
:100B2000002000F075F8002000F072F812490988E2
:100B3000491EC1F30F2000F06BF80F490978491ED8
:100B4000C8B200F065F80C49888900F067F8002009
:100B500000F05EF8002000F05BF807494988491E64
:100B6000C1F30F2000F054F803498978491EC8B238
:100B700000F04EF870BD00000001002000B50246F4
:100B80000B460D48808845F21031884213D10A493E
:100B9000488900F043F8101200F03AF8D0B200F0A3
:100BA00037F80549888900F039F8181200F030F854
:100BB000D8B200F02DF800BD0001002030B5124C75
:100BC0006489124D2C800412AD1C2C80C4B22C8080
:100BD0008418641EC4F30F242C808418641EE4B2AD
:100BE0002C80094CA489AD1E2C800C12AD1C2C80CD
:100BF000CCB22C80CC18641EC4F30F242C80CC18EB
:100C0000641EE4B22C8030BD00010020FE07006CA1
:100C100001490880704700000008006C0149088005
:100C200070470000FE07006C014908807047000013
:100C30000008006C024800890249088070470000E3
:100C400000010020FE07006C024A1080921C1180F7
:100C500070470000FE07006C00BFFEE77047000011
:100C600070B5002100230F22C47804B3154C24680A
:100C700004F4E064C4F5E064210AC1F10403CA404D
:100C8000447804FA03F184781440214309010E4C9E
:100C90000678A155047804F01F050124AC400578BE
:100CA0006D11AD0005F1E025C5F8004109E00478BB
:100CB00004F01F050124AC40044D0678761145F878
:100CC000264070BD0CED00E000E400E080E100E0B3
:100CD00002490143024A1160704700000000FA0512
:100CE0000CED00E070B50646301D092821D2DFE882
:100CF00000F01D1A1714110E0B08050048240625D4
:100D000017E03824062514E02824062511E01824CD
:100D100006250EE0082406250BE008240E2508E031
:100D200018240E2505E028240E2502E038240E257F
:100D300000BF00BF21469B2000F01FFA2946AB20D0
:100D400000F01BFA70BD10B5044614F1040F0DDB62
:100D5000042C0BDC201D0007010EA72000F00DFA6B
:100D6000201D0007010EA82000F007FA10BD10B5E5
:100D7000044614F1040F0ADB042C08DCC4F104005F
:100D80003022A2EB8000C1B29C2000F0F6F910BD29
:100D900010B50446062C14D2DFE804F003142D46E7
:100DA0005F78FF21132000F0E8F965210E2000F0A4
:100DB000E4F900212D2000F0E0F900212E2000F0C0
:100DC000DCF96CE0FD21132000F0D7F95A21012055
:100DD00000F0D3F95C21022000F0CFF965210E204C
:100DE00000F0CBF900212D2000F0C7F900212E20C2
:100DF00000F0C3F953E0FD21132000F0BEF95821A3
:100E0000012000F0BAF96021022000F0B6F9652156
:100E10000E2000F0B2F900212D2000F0AEF90021E3
:100E20002E2000F0AAF93AE0FD21132000F0A5F9E8
:100E30008421012000F0A1F94C21022000F09DF94D
:100E400065210E2000F099F900212D2000F095F980
:100E500000212E2000F091F921E0FD21132000F067
:100E60008CF99621012000F088F94021022000F041
:100E700084F965210E2000F080F900212D2000F07A
:100E80007CF900212E2000F078F908E0FF211320E2
:100E900000F073F9E5210E2000F06FF900BF00BFEC
:100EA00010BD10B50446072C58D2DFE804F0041139
:100EB0001623303D4A000621A62000F05EF980216D
:100EC000602000F05AF98021612000F056F945E0D9
:100ED0004621A62000F051F940E02621A62000F08E
:100EE0004CF98021602000F048F98021612000F059
:100EF00044F933E01E21A62000F03FF98021602054
:100F000000F03BF9C021612000F037F926E01E21F6
:100F1000A62000F032F96021084600F02EF9602189
:100F2000612000F02AF919E01E21A62000F025F921
:100F3000A021602000F021F94021612000F01DF97E
:100F40000CE01E21A62000F018F94021602000F0DE
:100F500014F9A021612000F010F900BF00BF10BDFE
:100F60002DE9F0478046894616461F460420FFF7C4
:100F700061FD3B46324649464046FFF71FFEFFF7FC
:100F800059FE00BF4FF480401C49486110201C49A5
:100F90000860091F0860800218490861102018497C
:100FA0000860091F086000BF00241DE000BF002585
:100FB00010201349086013488068C5B21020091F2B
:100FC00008604FF6FF7000EA05251020091D086033
:100FD0000C488068C0B205431020091F086000BF9C
:100FE0002846FFF721FE641C06FB07F0A042DDD86F
:100FF0000020FFF71FFDBDE8F08700000020014042
:10100000140C0140001001407047000029B1064A4D
:1010100052690243044B5A6104E0034A5269824315
:10102000014B5A61704700000010024029B1064A86
:1010300092690243044B9A6104E0034A9269824335
:10104000014B9A61704700000010024030B500214A
:101050000022002400232D4D6D6805F00C0121B104
:10106000042905D0082923D105E0294D056022E097
:10107000274D05601FE0254D6D6805F47012234D66
:101080006D6805F48034022505EB92421CB9214DB0
:10109000554305600BE01D4D6D6805F400351DB12D
:1010A0001C4D5543056002E0194D5543056002E0B3
:1010B000174D056000BF00BF144D6D6805F0F001CD
:1010C0000909154D6B5C0568DD4045600F4D6D6885
:1010D00005F4E061090A104D6B5C4568DD408560F0
:1010E0000A4D6D6805F46051C90A0B4D6B5C45688B
:1010F000DD40C560054D6D6805F44041890B074D25
:101100006B5CC568B5FBF3F5056130BD00100240AE
:1011100000127A0000093D0018000020280000207D
:1011200070B50446002501F0DFFD422001F020FEED
:1011300001F098FE642001F041FB204601F018FE0A
:1011400001F090FE642001F039FB01F0F7FD64200E
:1011500001F034FB01F0C8FD432001F009FE01F06D
:1011600081FE642001F02AFB01F07EFD054601F0BE
:1011700057FD01F0E3FD284670BD70B504460D46ED
:1011800001F0B2FD422001F0F3FD01F06BFE64209E
:1011900001F014FBE0B201F0EBFD01F063FE64200E
:1011A00001F00CFB284601F0E3FD01F05BFE01F0CD
:1011B000C5FD70BD704710B500F002F810BD00000D
:1011C0000CB50020019000903348006840F4803056
:1011D0003149086000BF3048006800F400300090DA
:1011E0000198401C0190009818B90198B0F5A06FC3
:1011F000F1D12948006800F4003010B101200090BE
:1012000001E0002000900098012843D123480068A5
:1012100040F01000214908600846006820F00300F3
:1012200008600846006840F0020008601A484068FC
:10123000194948600846406848600846406840F4DC
:10124000806048600846406820F47C10486008468A
:10125000406840F4E81048600846006840F080703C
:10126000086000BF0C48006800F000700028F9D04A
:101270000948406820F00300074948600846406874
:1012800040F00200486000BF0348406800F00C00D6
:101290000828F9D10CBD00000010024000200240D7
:1012A000042808D14FF0E021096941F004014FF012
:1012B000E022116107E04FF0E021096921F004010B
:1012C0004FF0E022116170477047000010B51348DD
:1012D000006840F001001149086008464068104964
:1012E00008400E494860084600680E4908400B490E
:1012F00008600846006820F48020086008464068BE
:1013000020F4FE0048604FF41F008860FFF753FF91
:101310004FF000600449086010BD0000001002405A
:101320000000FFF8FFFFF6FE08ED00E000B59FB0FB
:1013300001210802FFF76AFE01214FF4B470FFF7A4
:1013400075FE10208DF87B000120ADF87800032099
:101350008DF87A001EA9FE48FFF72CFA18208DF8A8
:101360007B004CF23370ADF878001EA9F948FFF706
:1013700021FA4FF68070ADF878001EA9F648FFF705
:1013800019FA41F20100ADF878001EA9F348FFF701
:1013900011FA00200E9009900120089000200B9077
:1013A0000C900D900F200A90002007900290019061
:1013B00004900590069003200390002014900620CE
:1013C0000F900020139010904FF480401A9010203E
:1013D0001290002011901990179015901B90169064
:1013E0004FF48050189008A81C9001A81D900FA8D9
:1013F000FFF74CF901210620FFF72EF9322001F00A
:10140000B7F90020FFF70EFBD54988800846808891
:10141000FF280ADB084680884FF6FF71884204D017
:10142000CF488088B0F5134F7ED1D320FFF7F6FB6D
:10143000FFF7EEFACA498880FFF7EAFAC8498880C0
:10144000FFF7E6FAC6498880084680884FF6FF71A4
:1014500001EA0020C2498880FFF7DAFAC04989888A
:101460000843BF4988800846808849F24131884254
:101470005AD0BF20FFF7D2FBFFF7CAFAB8498880DD
:10148000FFF7C6FAB6498880FFF7C2FAB4498880E8
:10149000FFF7BEFAB2498880084680884FF6FF7190
:1014A00001EA0020AE498880FFF7B2FAAC4989888A
:1014B0000843AB4988800846808846F60401884284
:1014C0007AD0D420FFF7AAFBFFF7A2FAA4498880BC
:1014D000FFF79EFAA2498880FFF79AFAA049888010
:1014E000084680884FF6FF7101EA00209C498880F9
:1014F000FFF78EFA9A4989880843994988800846F7
:10150000808845F21031884256D04FF45A40FFF798
:1015100085FBFFF77DFA924988804FF45B40FFF727
:101520007DFBFFF775FA00E046E08D4988800846AC
:1015300080884FF6FF7101EA0020894988804FF4C6
:101540005C40FFF76BFBFFF763FA85498988084326
:101550008349888008468088B0F5004F02D145F263
:10156000105088807E48808845F21051884223D0F0
:10157000A120FFF753FBFFF74BFA79498880FFF76B
:1015800047FA77498880084680884FF6FF7101EA5C
:10159000002073498880FFF73BFA71498988084326
:1015A0006F4988800846808845F26171884203D17E
:1015B00041F663106A4988806948818869A0FEF70E
:1015C0002FFE6748808845F21031884240F08987B5
:1015D000ED20FFF723FB0120FFF71AFBFE20FFF7AA
:1015E00017FBEE20FFF71AFBDE20FFF711FB21208F
:1015F000FFF70EFBF120FFF711FB0120FFF708FBBF
:10160000DF20FFF70BFB1020FFF702FBC420FFF7E2
:1016100005FB8F20FFF7FCFAC620FFF7FFFA00203A
:10162000FFF7F6FAE220FFF7F3FAE220FFF7F0FA0D
:10163000E220FFF7EDFABF20FFF7F0FAAA20FFF74C
:10164000E7FAB020FFF7EAFA0D20FFF7E1FA0020F1
:10165000FFF7DEFA0D20FFF7DBFA0020FFF7D8FADC
:101660001120FFF7D5FA0020FFF7D2FA1920FFF773
:10167000CFFA0020FFF7CCFA2120FFF7C9FA0020AB
:10168000FFF7C6FA2D20FFF7C3FA0020FFF7C0FAD4
:101690003D20FFF7BDFA0020FFF7BAFA5D20FFF703
:1016A000B7FA0020FFF7B4FA5D20FFF7B1FA002087
:1016B000FFF7AEFAB120FFF7B1FA8020FFF7A8FAE2
:1016C0000020FFF7A5FA8B20FFF7A2FA0020FFF712
:1016D0009FFA9620FFF79CFA0020FFF799FAB220B4
:1016E000FFF79CFA0020FFF793FA0020FFF790FA2B
:1016F0000220FFF78DFA0020FFF78AFA0320FFF798
:1017000087FA0020FFF784FAB320FFF787FA00205A
:10171000FFF77EFA0020FFF77BFA0020FFF778FA48
:101720000020FFF775FA0020FFF772FA0020FFF79C
:101730006FFA0020FFF76CFA0020FFF769FA00202B
:10174000FFF766FA0020FFF763FA002010E00000C0
:10175000000C01400014014000180140002001402D
:10176000000100204C43442049443A2025235800DE
:10177000FFF74EFA0020FFF74BFA0020FFF748FA78
:101780000020FFF745FA0020FFF742FA0020FFF79C
:101790003FFA0020FFF73CFA0020FFF739FA00205B
:1017A000FFF736FA0020FFF733FA0020FFF730FA90
:1017B0000020FFF72DFA0020FFF72AFA0020FFF79C
:1017C00027FAB420FFF72AFA8B20FFF721FA00202E
:1017D000FFF71EFA9620FFF71BFA0020FFF718FA12
:1017E000A120FFF715FA0020FFF712FAB520FFF746
:1017F00015FA0220FFF70CFA0020FFF709FA032080
:10180000FFF706FA0020FFF703FA0420FFF700FABB
:101810000020FFF7FDF9B620FFF700FA0020FFF7E0
:10182000F7F90020FFF7F4F9B720FFF7F7F90020E8
:10183000FFF7EEF90020FFF7EBF93F20FFF7E8F99B
:101840000020FFF7E5F95E20FFF7E2F90020FFF73F
:10185000DFF96420FFF7DCF90020FFF7D9F98C20CD
:10186000FFF7D6F90020FFF7D3F9AC20FFF7D0F946
:101870000020FFF7CDF9DC20FFF7CAF90020FFF7C1
:10188000C7F97020FFF7C4F90020FFF7C1F99020D5
:10189000FFF7BEF90020FFF7BBF9EB20FFF7B8F91F
:1018A0000020FFF7B5F9DC20FFF7B2F90020FFF7C1
:1018B000AFF9B820FFF7B2F90020FFF7A9F900202F
:1018C000FFF7A6F90020FFF7A3F90020FFF7A0F922
:1018D0000020FFF79DF90020FFF79AF90020FFF79D
:1018E00097F90020FFF794F9BA20FFF797F9242021
:1018F000FFF78EF90020FFF78BF90020FFF788F93A
:101900000020FFF785F9C120FFF788F92020FFF7B5
:101910007FF90020FFF77CF95420FFF779F90020C8
:10192000FFF776F9FF20FFF773F90020FFF770F952
:10193000C220FFF773F90A20FFF76AF90020FFF7CA
:1019400067F90420FFF764F90020FFF761F9C3206D
:10195000FFF764F93C20FFF75BF90020FFF758F927
:101960003A20FFF755F90020FFF752F93920FFF729
:101970004FF90020FFF74CF93720FFF749F9002015
:10198000FFF746F93C20FFF743F90020FFF740F945
:101990003620FFF73DF90020FFF73AF93220FFF734
:1019A00037F90020FFF734F92F20FFF731F9002035
:1019B000FFF72EF92C20FFF72BF90020FFF728F96D
:1019C0002920FFF725F90020FFF722F92620FFF74D
:1019D0001FF90020FFF71CF92420FFF719F9002058
:1019E000FFF716F92420FFF713F90020FFF710F98D
:1019F0002320FFF70DF90020FFF70AF93C20FFF73D
:101A000007F90020FFF704F93620FFF701F900205D
:101A1000FFF7FEF83220FFF7FBF80020FFF7F8F899
:101A20002F20FFF7F5F80020FFF7F2F82C20FFF742
:101A3000EFF80020FFF7ECF82920FFF7E9F8002085
:101A4000FFF7E6F82620FFF7E3F80020FFF7E0F8BD
:101A50002420FFF7DDF80020FFF7DAF82420FFF755
:101A6000D7F80020FFF7D4F82320FFF7D1F80020A3
:101A7000FFF7CEF8C420FFF7D1F86220FFF7C8F8CF
:101A80000020FFF7C5F80520FFF7C2F80020FFF798
:101A9000BFF88420FFF7BCF80020FFF7B9F8F0206A
:101AA000FFF7B6F80020FFF7B3F81820FFF7B0F8FB
:101AB0000020FFF7ADF8A420FFF7AAF80020FFF7F9
:101AC000A7F81820FFF7A4F80020FFF7A1F850208E
:101AD000FFF79EF80020FFF79BF80C20FFF798F81F
:101AE0000020FFF795F81720FFF792F80020FFF786
:101AF0008FF89520FFF78CF80020FFF789F8F32086
:101B0000FFF786F80020FFF783F8E620FFF780F85C
:101B10000020FFF77DF8C520FFF780F83220FFF79F
:101B200077F80020FFF774F84420FFF771F80020E1
:101B3000FFF76EF86520FFF76BF80020FFF768F8F5
:101B40007620FFF765F80020FFF762F88820FFF79E
:101B50005FF80020FFF75CF8C620FFF75FF8202051
:101B6000FFF756F80020FFF753F81720FFF750F85B
:101B70000020FFF74DF80120FFF74AF80020FFF79B
:101B800047F8C720FFF74AF80020FFF741F8002088
:101B9000FFF73EF80020FFF73BF80020FFF738F88A
:101BA000C820FFF73BF80020FFF732F80020FFF7CE
:101BB0002FF80020FFF72CF80020FFF729F8C920A4
:101BC000FFF72CF80020FFF723F80020FFF720F89C
:101BD0000020FFF71DF80020FFF71AF80020FFF79C
:101BE00017F80020FFF714F80020FFF711F8002085
:101BF000FFF70EF80020FFF70BF80020FFF708F8BA
:101C00000020FFF705F80020FFF702F80020FEF79C
:101C1000FFFF0020FEF7FCFF0020FEF7F9FF002089
:101C2000FEF7F6FFE020FEF7F9FF1620FEF7F0FFC3
:101C30000020FEF7EDFF1C20FEF7EAFF0020FEF774
:101C4000E7FF2120FEF7E4FF0020FEF7E1FF36204A
:101C5000FEF7DEFF0020FEF7DBFF4620FEF7D8FF91
:101C60000020FEF7D5FF5220FEF7D2FF0020FEF73E
:101C7000CFFF6420FEF7CCFF0020FEF7C9FF7A20DB
:101C8000FEF7C6FF0020FEF7C3FF8B20FEF7C0FF64
:101C90000020FEF7BDFF9920FEF7BAFF0020FEF7F7
:101CA000B7FFA820FEF7B4FF0020FEF7B1FFB92070
:101CB000FEF7AEFF0020FEF7ABFFC420FEF7A8FF43
:101CC0000020FEF7A5FFCA20FEF7A2FF0020FEF7C6
:101CD0009FFFD220FEF79CFF0020FEF799FFD9203E
:101CE000FEF796FF0020FEF793FFE020FEF790FF3F
:101CF0000020FEF78DFFF320FEF78AFF0020FEF79D
:101D000087FFE120FEF78AFF1620FEF781FF002003
:101D1000FEF77EFF1C20FEF77BFF0020FEF778FF1A
:101D20002220FEF775FF0020FEF772FF3620FEF737
:101D30006FFF0020FEF76CFF4520FEF769FF0020D3
:101D4000FEF766FF5220FEF763FF0020FEF760FFFC
:101D50006420FEF75DFF0020FEF75AFF7A20FEF7B1
:101D600057FF0020FEF754FF8B20FEF751FF0020A5
:101D7000FEF74EFF9920FEF74BFF0020FEF748FFCD
:101D8000A820FEF745FF0020FEF742FFB920FEF72E
:101D90003FFF0020FEF73CFFC420FEF739FF002084
:101DA000FEF736FFCA20FEF733FF0020FEF730FFB4
:101DB000D220FEF72DFF0020FEF72AFFD820FEF7E5
:101DC00027FF0020FEF724FFE020FEF721FF002080
:101DD000FEF71EFFF320FEF71BFF0020FEF718FFA3
:101DE000E220FEF71BFF0520FEF712FF0020FEF7A2
:101DF0000FFF0B20FEF70CFF0020FEF709FF1B2052
:101E0000FEF706FF0020FEF703FF3420FEF700FF79
:101E10000020FEF7FDFE4420FEF7FAFE0020FEF74C
:101E2000F7FE4F20FEF7F4FE0020FEF7F1FE6120E2
:101E3000FEF7EEFE0020FEF7EBFE7920FEF7E8FE4F
:101E40000020FEF7E5FE8820FEF7E2FE0020FEF708
:101E5000DFFE9720FEF7DCFE0020FEF7D9FEA6206D
:101E6000FEF7D6FE0020FEF7D3FEB720FEF7D0FE29
:101E70000020FEF7CDFEC220FEF7CAFE0020FEF7CE
:101E8000C7FEC720FEF7C4FE0020FEF7C1FED1202A
:101E9000FEF7BEFE0020FEF7BBFED620FEF7B8FE22
:101EA0000020FEF7B5FEDD20FEF7B2FE0020FEF7B3
:101EB000AFFEF320FEF7ACFE0020FEF7A9FEE32004
:101EC000FEF7ACFE0520FEF7A3FE0020FEF7A0FE05
:101ED0000A20FEF79DFE0020FEF79AFE1C20FEF76A
:101EE00097FE0020FEF794FE3320FEF791FE0020BF
:101EF000FEF78EFE4420FEF78BFE0020FEF788FEE4
:101F00005020FEF785FE0020FEF782FE6220FEF7DD
:101F10007FFE0020FEF77CFE7820FEF779FE002091
:101F2000FEF776FE8820FEF773FE0020FEF770FEB7
:101F30009720FEF76DFE0020FEF76AFEA620FEF752
:101F400067FE0020FEF764FEB720FEF761FE00206A
:101F5000FEF75EFEC220FEF75BFE0020FEF758FE95
:101F6000C720FEF755FE0020FEF752FED120FEF7F7
:101F70004FFE0020FEF74CFED520FEF749FE002064
:101F8000FEF746FEDD20FEF743FE0020FEF740FE92
:101F9000F320FEF73DFE0020FEF73AFEE420FEF7B8
:101FA0003DFE0120FEF734FE0020FEF731FE012049
:101FB000FEF72EFE0020FEF72BFE0220FEF728FE85
:101FC0000020FEF725FE2A20FEF722FE0020FEF765
:101FD0001FFE3C20FEF71CFE0020FEF719FE4B20E2
:101FE000FEF716FE0020FEF713FE5D20FEF710FE42
:101FF0000020FEF70DFE7420FEF70AFE0020FEF71B
:1020000007FE8420FEF704FE0020FEF701FE932069
:10201000FEF7FEFD0020FEF7FBFDA220FEF7F8FD17
:102020000020FEF7F5FDB320FEF7F2FD0020FEF7DD
:10203000EFFDBE20FEF7ECFD0020FEF7E9FDC42019
:10204000FEF7E6FD0020FEF7E3FDCD20FEF7E0FD04
:102050000020FEF7DDFDD320FEF7DAFD0020FEF7BD
:10206000D7FDDD20FEF7D4FD0020FEF7D1FDF320E3
:10207000FEF7CEFD0020FEF7CBFDE520FEF7CEFDFE
:102080000020FEF7C5FD0020FEF7C2FD0020FEF790
:10209000BFFD0020FEF7BCFD0220FEF7B9FD0020C9
:1020A000FEF7B6FD2920FEF7B3FD0020FEF7B0FDD8
:1020B0003C20FEF7ADFD0020FEF7AAFD4B20FEF709
:1020C000A7FD0020FEF7A4FD5D20FEF7A1FD002086
:1020D000FEF79EFD7420FEF79BFD0020FEF798FDA5
:1020E0008420FEF795FD0020FEF792FD9320FEF779
:1020F0008FFD0020FEF78CFDA220FEF789FD002059
:10210000FEF786FDB320FEF783FD0020FEF780FD7D
:10211000BE20FEF77DFD0020FEF77AFDC420FEF70D
:1021200077FD0020FEF774FDCD20FEF771FD002045
:10213000FEF76EFDD320FEF76BFD0020FEF768FD75
:10214000DC20FEF765FD0020FEF762FDF320FEF7C0
:102150005FFD0020FEF75CFDE620FEF75FFD11202D
:10216000FEF756FD0020FEF753FD3420FEF750FD2C
:102170000020FEF74DFD5620FEF74AFD0020FEF739
:1021800047FD7620FEF744FD0020FEF741FD772055
:10219000FEF73EFD0020FEF73BFD6620FEF738FD12
:1021A0000020FEF735FD8820FEF732FD0020FEF707
:1021B0002FFD9920FEF72CFD0020FEF729FDBB2006
:1021C000FEF726FD0020FEF723FD9920FEF720FDF7
:1021D0000020FEF71DFD6620FEF71AFD0020FEF729
:1021E00017FD5520FEF714FD0020FEF711FD5520C8
:1021F000FEF70EFD0020FEF70BFD4520FEF708FD63
:102200000020FEF705FD4320FEF702FD0020FEF74B
:10221000FFFC4420FEF7FCFC0020FEF7F9FCE72061
:10222000FEF7FCFC3220FEF7F3FC0020FEF7F0FC8A
:102230005520FEF7EDFC0020FEF7EAFC7620FEF7C5
:10224000E7FC0020FEF7E4FC6620FEF7E1FC00203E
:10225000FEF7DEFC6720FEF7DBFC0020FEF7D8FC73
:102260006720FEF7D5FC0020FEF7D2FC8720FEF7A2
:10227000CFFC0020FEF7CCFC9920FEF7C9FC002023
:10228000FEF7C6FCBB20FEF7C3FC0020FEF7C0FC37
:102290009920FEF7BDFC0020FEF7BAFC7720FEF780
:1022A000B7FC0020FEF7B4FC4420FEF7B1FC002090
:1022B000FEF7AEFC5620FEF7ABFC0020FEF7A8FCB4
:1022C0002320FEF7A5FC0020FEF7A2FC3320FEF73A
:1022D0009FFC0020FEF79CFC4520FEF799FC0020A7
:1022E000FEF796FCE820FEF799FC0020FEF790FC34
:1022F0000020FEF78DFC9920FEF78AFC0020FEF7F7
:1023000087FC8720FEF784FC0020FEF781FC8820F4
:10231000FEF77EFC0020FEF77BFC7720FEF778FCC2
:102320000020FEF775FC6620FEF772FC0020FEF729
:102330006FFC8820FEF76CFC0020FEF769FCAA20E9
:10234000FEF766FC0020FEF763FCBB20FEF760FC96
:102350000020FEF75DFC9920FEF75AFC0020FEF7F6
:1023600057FC6620FEF754FC0020FEF751FC552078
:10237000FEF74EFC0020FEF74BFC5520FEF748FC14
:102380000020FEF745FC4420FEF742FC0020FEF74B
:102390003FFC4420FEF73CFC0020FEF739FC5520B2
:1023A000FEF736FC0020FEF733FCE920FEF736FC92
:1023B000AA20FEF72DFC0020FEF72AFC0020FEF7E5
:1023C00027FC0020FEF724FC0020FEF727FCAA20B3
:1023D000FEF71EFCCF20FEF721FC0020FEF718FCC4
:1023E0000020FEF715FC0020FEF712FC0020FEF78F
:1023F0000FFC0020FEF70CFC0020FEF709FC00207B
:10240000FEF706FC0020FEF703FC0020FEF700FCB0
:102410000020FEF7FDFB0020FEF7FAFB0020FEF790
:10242000F7FB0020FEF7F4FB0020FEF7F1FB002095
:10243000FEF7EEFB0020FEF7EBFB0020FEF7E8FBCB
:10244000F020FEF7EBFB0020FEF7E2FB5020FEF74A
:10245000DFFB0020FEF7DCFB0020FEF7D9FB0020AD
:10246000FEF7D6FBF320FEF7D9FB0020FEF7D0FBEA
:10247000F920FEF7D3FB0620FEF7CAFB1020FEF77B
:10248000C7FB2920FEF7C4FB0020FEF7C1FB3A2062
:10249000FEF7C4FB5520FEF7BBFB1120FEF7BEFB89
:1024A000642000F065F92920FEF7B8FB3520FEF71F
:1024B000B5FB0020FEF7ACFB5120FEF7AFFBFF2081
:1024C000FEF7A6FB5320FEF7A9FB2C20FEF7A0FB8E
:1024D0005520FEF7A3FB8220FEF79AFB2C20FEF787
:1024E0009DFB0020FEF75EFA01210448FEF736FA54
:1024F0004FF6FF70FEF736FA1FB000BD000C01402A
:1025000010B540F225511D4800F04AF810B31B48A1
:1025100000F002F9C4B21A48008800F40040C8B9BB
:102520001748008800F4804060B10A2C03D00020D6
:102530001349088020E01248008840F40040104908
:10254000088019E00D2C06D10D48008840F4804029
:102550000B49088010E00A480088C0F30D000949C3
:102560000C5407480088401C05490880084600882C
:10257000C72801DD0020088010BD000000380140A0
:10258000340000203800002021B1828942F400523A
:10259000828104E082894DF6FF731A408281704780
:1025A00070B50246002400230025002040F66A167C
:1025B000B14200D100BFC1F3421501F01F03012653
:1025C00006FA03F3012D02D19689334006E0022D6D
:1025D00002D1168A334001E0968A33400C1201265C
:1025E00006FA04F41688344013B10CB1012000E05F
:1025F000002070BDF0B50346002400260025002011
:1026000040F66A17B94200D100BF1846C1F3421420
:1026100001F01F06012707FA06F5012C01D10C3045
:1026200004E0022C01D1103000E014301AB1076828
:102630002F43076002E00768AF430760F0BD00006A
:102640002DE9F04786B005460E460024A24600BF9D
:10265000A1460027B08900B100BF2F462C8A4CF656
:10266000FF700440F08804432C82AC894EF6F310CE
:102670000440B08831890843718908430443AC8120
:10268000AC8A4FF6FF400440B0890443AC8201A8F5
:10269000FEF7DCFC1F48874202D1DDF810A001E004
:1026A000DDF80CA0A88900F4004040B10AEBCA0094
:1026B00000EB0A1031684900B0FBF1F807E00AEBC3
:1026C000CA0000EB0A1031688900B0FBF1F8642001
:1026D000B8FBF0F004012009642101FB1089A889EE
:1026E00000F4004040B1322000EBC900B0FBF1F033
:1026F00000F00700044308E0322000EB09106421D9
:10270000B0FBF1F000F00F0004432C8106B0BDE8EF
:10271000F08700000038014001468888C0F30800B7
:10272000704700BFFEE700BF7047000010B56FF0B4
:102730000400FEF7B5FD0A4800680A49B0FBF1F055
:10274000094908700846007800EB4001C1EBC01051
:102750004FF6FF7101EAC0000449088010BD000077
:102760000400002000127A002C0000202E0000201F
:102770000146114A12884A434FF0E0235A61002271
:102780009A611A46126942F001021A6100BF4FF0C5
:10279000E022106900F001021AB100F48032002A30
:1027A000F5D04FF0E022126922F001024FF0E02351
:1027B0001A6100229A6170472E0000200146114ADA
:1027C00012784A434FF0E0235A6100229A611A4678
:1027D000126942F001021A6100BF4FF0E022106955
:1027E00000F001021AB100F48032002AF5D04FF057
:1027F000E022126922F001024FF0E0231A61002268
:102800009A6170472C00002000BF054A128802F030
:102810004002002AF9D0C2B2014B1B1D1A8070473A
:102820000038014008B501210820FEF7FFFB102009
:102830008DF803002020ADF8000003208DF8020081
:1028400069460448FDF7B6FF20210248FEF786F8E6
:1028500008BD0000000C01400024002500260027D0
:10286000A0464FF4A060FEF733FA4FF4E13000F0D9
:10287000A9FAFFF75BFFFFF7D5FFFEF757FD03E06F
:1028800000F048F800B900E0FAE700BF2046FEF784
:102890007FFA3046FEF757FA3846FEF723FA4046ED
:1028A000FEF765FA2846FEF7FCFA29E0154800789D
:1028B000022809D1F0234FF4A07228210846FEF720
:1028C0004FFB00200F4908700A20FFF751FF0E4808
:1028D0000068401C0C49086008460068642801D361
:1028E00000200860084800683221B0FBF1F201FBCB
:1028F000120028B905480068C0430549C1F8940191
:10290000D4E700003600002000000020948121421E
:10291000008021422DE9FF470027B8460026002409
:10292000012140F23D10FEF781FB10208DF80F00D1
:1029300003208DF80E004FF40040ADF80C0003A901
:102940008E48FDF737FF4020ADF80C0003A98C48F6
:10295000FDF730FF4FF48040ADF80C0003A9874825
:10296000FDF728FF1020ADF80C0003A98548FDF7FE
:1029700021FF0820ADF80C0003A98248FDF71AFFDB
:10298000FF20ADF80C0004208DF80F0003208DF817
:102990000E0003A97C48FDF70DFF4FF40040774976
:1029A0004861082077491031086001217748FDF718
:1029B0008DFF00F0FDF801210520FEF737FB4FF4F5
:1029C0008070ADF80C0048208DF80F0003208DF8C2
:1029D0000E0003A96E48FDF7EDFE08210020FDF76B
:1029E000C9FE4FF48070019000208DF808000C2083
:1029F0008DF8090001208DF80A0001A8FDF7E2FD1D
:102A00004FF48070FDF7C2FD4FF4C060FEF760F92F
:102A100017208DF8000000208DF8010003208DF8AC
:102A2000020001208DF803006846FEF719F98021A5
:102A30001220FEF7A2FB3220FFF79AFE1C20FEF7C1
:102A40006FFB04464FF6FF7000EA04241D20FEF7DA
:102A500067FB044347F6A270844207D021464DA08D
:102A6000FDF7DEFB012004B0BDE8F0870A20FEF789
:102A700057FB04464FF6FF7000EA04240B20FEF7D4
:102A80004FFB044347F22170844205D0214644A005
:102A9000FDF7C6FB0220E6E700260AE0434A02EB08
:102AA00046025178414A12F81600FEF766FB701C88
:102AB00086B2412EF2D346211220FEF75EFB3F2163
:102AC0001720FEF75AFB50211820FEF756FB032172
:102AD0001920FEF752FB78211A20FEF74EFB002149
:102AE0003220FEF74AFB50212920FEF746FB7821D1
:102AF0002C20FEF742FB1720FEF712FB054605EBE4
:102B0000A70000F0FF0949461720FEF736FB5021C9
:102B10001820FEF732FB1920FEF702FB054605EBF5
:102B2000680000F0FF0949461920FEF726FB7821CE
:102B30001A20FEF722FB3220FEF7F2FA05464FEA92
:102B4000C870400E07F0030140EA011040EA050991
:102B500049463220FEF711FB50212920FEF70DFBDC
:102B600078212C20FEF709FB2A20FEF7D9FAA94686
:102B700049462A20FEF701FB002074E700200140AF
:102B800000140140000C0140001001400002300020
:102B9000000801404D49443A25640D0A0000000038
:102BA0004849443A25640D0A00000000C82E000878
:102BB00008B501214FF49070FEF738FA4FF4005039
:102BC000ADF8000048208DF8030003208DF80200C6
:102BD00069461148FDF7EEFD4FF400510E48FDF730
:102BE000BDFE0820ADF8000010208DF803006946F6
:102BF0000A48FDF7DFFD08210848FDF7AFFE06484B
:102C0000406820F47000044948600846406840F479
:102C10004010486008BD0000002001400014014041
:102C200010B53220FFF7CAFD01200B4908600B499F
:102C3000C1F88C013220FFF7C1FD0020084908606F
:102C40003220FFF7BBFD00200649C1F8B401322055
:102C5000FFF7B4FD10BD0000B40124420080224201
:102C60008C8122420000244270B500241A4840683A
:102C700020F47000184948600846406840F400009D
:102C80004860002515E06006040E00201349086026
:102C90003220FFF793FD01201149C1F88C01114842
:102CA000006808B1601CC4B23220FFF787FD681CC1
:102CB000C5B2082DE7DB0848406820F470000649DB
:102CC00048600846406840F44010486000200349CE
:102CD0000860204670BD0000002001408C81224227
:102CE000008022423401244210B5012010490860BE
:102CF0001049C1F88C013220FFF760FD0C48803884
:102D0000006800B910BD0020094908600A48D0F8E1
:102D1000340100B1F6E70020054908603220FFF7D2
:102D20004DFD00200349C1F88C0100BFEAE7000017
:102D3000B4012442008022420000244210B5002049
:102D4000094908603220FFF739FD01200749C1F821
:102D50008C013220FFF732FD012003490860322048
:102D6000FFF72CFD10BD0000B40124420080224278
:102D700070B50446254600261AE005F0800018B11B
:102D800001200D49086002E000200B490860322054
:102D9000FFF714FD0120094908603220FFF70EFDFE
:102DA0006806050E00200649C1F88C01701CC6B2E9
:102DB000082EE2DB70BD0000B40124428C81224267
:102DC0000080224210B586B00446012144F204007E
:102DD000FEF72CF94FF40070ADF8140003208DF8C5
:102DE000160018208DF8170005A91C48FDF7E2FC15
:102DF0004FF48060ADF8140004208DF8170005A989
:102E00001648FDF7D7FC25208DF8000003208DF82B
:102E100001008DF8020001208DF803006846FDF7DF
:102E20001FFF01940020ADF80800ADF80A00ADF8CE
:102E30000C00ADF810000C20ADF80E0001A90848F8
:102E4000FFF7FEFB012240F225510548FFF7D2FBB8
:102E500001210348FFF798FB06B010BD00080140B0
:102E60000038014010B51548406820F4700013493F
:102E700048600846406840F4000048603220FFF790
:102E80009DFC01200E4908603220FFF797FC0D4899
:102E9000D0F8340108B1012400E0002400200849E2
:102EA00008600648406820F47000044948600846FD
:102EB000406840F440104860204610BD00200140AA
:102EC0008C8122420000244211001206173F185044
:102ED00019031A78320029502C78427F4D0963E09B
:102EE00064FF65006600670013F00D810FC51411C3
:102EF000227F23032440253026A12B9E6BAA13FF9B
:102F0000900891019203930094B0959D96139716A3
:102F1000987B99919A1E9B089C209E81A606A76586
:102F2000A865A980AA807E0C7F16802A814E8261C6
:102F3000836F847B8586868E879788A489AF8AC5B0
:102F40008BD78CE88D200C500EF530313233343570
:102F500036373839414243444546403058003031D5
:102F600032333435363738396162636465664030F0
:102F700078000400000800000000000000020001CA
:102F800000001000A42F00080000002038000000FE
:102F90006C010008DC2F0008380000203807000012
:102FA000880100080000000000A24A0400000000A0
:102FB00000000000010203040607080900000000E9
:102FC00001020304010203040607080902040608BB
:0C2FD000000000000000000000000000F5
:0400000508000131BD
:00000001FF
