:020000040800F2
:1000000050270020D5010008950500088D0500083F
:100010009105000869040008030B000800000000B7
:100020000000000000000000000000009107000830
:100030006D04000800000000090600087D080008A3
:10004000EF010008EF010008EF010008EF010008D0
:10005000EF010008EF010008EF010008EF010008C0
:10006000EF010008EF010008EF010008EF010008B0
:10007000EF010008EF010008EF010008EF010008A0
:10008000EF010008EF010008EF010008EF01000890
:10009000EF010008EF010008EF010008EF01000880
:1000A000EF010008EF010008EF010008EF01000870
:1000B000EF010008EF010008EF010008EF01000860
:1000C000EF010008EF010008EF010008EF01000850
:1000D000EF010008E1080008EF010008EF01000847
:1000E000EF010008EF010008EF010008EF01000830
:1000F000EF010008EF010008EF010008EF01000820
:10010000EF010008EF010008EF010008EF0100080F
:10011000EF010008EF010008EF010008EF010008FF
:10012000EF010008EF010008EF010008EF010008EF
:1001300000F002F800F03FF80AA090E8000C8244BA
:100140008344AAF10107DA4501D100F034F8AFF297
:10015000090EBAE80F0013F0010F18BFFB1A43F0A5
:1001600001031847940E0000B40E0000103A24BF9B
:1001700078C878C1FAD8520724BF30C830C144BF0C
:1001800004680C607047000000230024002500264E
:10019000103A28BF78C1FBD8520728BF30C148BFEA
:1001A0000B607047782900F07780002070471FB5FA
:1001B0001FBD10B510BD00F027F91146FFF7F7FF7E
:1001C00000F0BAFD00F045F903B4FFF7F2FF03BCFD
:1001D00000F099FC0948804709480047FEE7FEE720
:1001E000FEE7FEE7FEE7FEE7FEE7FEE7FEE7FEE7E7
:1001F00004480549054A064B70470000810800087D
:1002000031010008502100205027002050230020F9
:1002100050230020704700000FB4044910B503AA12
:10022000029800F0C3F810BC5DF814FB1C0000201D
:100230002DE9F0410E460446002020622046E16888
:10024000884730B3252805D0D4E901219047206A9A
:10025000401CF2E7E168204600278847050018D0D7
:10026000A5F14100192802D820354FF40067324625
:10027000294620462760FFF795FF40B1012804D0AA
:10028000F61D26F007060836D8E7361DD6E72846BD
:10029000DAE7206ABDE8F08170B504460D462146D4
:1002A0001068AFF300802188090502D50F4A7A440F
:1002B00002E00E4A7A440E32002104F1240305E0E4
:1002C00000F00F060009965D5E54491C0028F7D126
:1002D00020780023000704D5702D02D009B1022335
:1002E00011322046BDE8704000F006B81E0D000037
:1002F00070477047704770472DE9F0470D469946A3
:100300009246044600F124080168880604D5E06995
:1003100021F01001216000E00120A84201DD471B0F
:1003200000E00027A1697A1902EB0900081AA06110
:100330002078C00602D42046AFF30080002608E0F3
:10034000D4E901211AF806009047206A401C761C67
:1003500020624E45F4DB2078C0060AD52046AFF374
:10036000008006E0D4E9012130209047206A401C3B
:100370002062381EA7F10107F4DC07E0D4E901216F
:1003800018F805009047206A401C2062281EA5F13D
:100390000105F3DC2046AFF300802078000602D58B
:1003A0000220BDE8F0870120FBE70000074B70B595
:1003B0000D467B4400F011F80446284600F020F872
:1003C00010B14FF0FF3070BD204670BD67090000CE
:1003D00001694A1C02610878704700B58FB0CDE909
:1003E00001310021059105497944CDE903101146F9
:1003F0006846FFF71DFF0FB000BD0000E5FFFFFFDF
:10040000007B00F080007047754600F029F8AE468A
:1004100005006946534620F00700854618B020B510
:10042000FFF7E6FEBDE820404FF000064FF0000762
:100430004FF000084FF0000B21F00701AC46ACE88C
:10044000C009ACE8C009ACE8C009ACE8C0098D46F9
:1004500070470446AFF300802046FFF7B5FE00006A
:1004600000487047F020002000BFFEE770472DE9EC
:10047000F04102460025002600200023002400272A
:1004800091F803C00CF00F0591F803C00CF0100CAC
:10049000BCF1000F03D091F802C04CEA050591F8B9
:1004A00000C0BCF1000F31D0146800202BE04FF0E9
:1004B000010C0CFA00F3B1F800C00CEA03069E42EE
:1004C00020D183004FF00F0C0CFA03F7BC4305FA60
:1004D00003FC4CEA040491F803C0BCF1280F06D1D8
:1004E0004FF0010C0CFA00FCC2F814C00AE091F8BD
:1004F00003C0BCF1480F05D14FF0010C0CFA00FC11
:10050000C2F810C0401C0828D1D31460B1F800C054
:10051000BCF1FF0F34DD546800202EE000F1080C20
:100520004FF0010808FA0CF3B1F800C00CEA03061A
:100530009E4221D183004FF00F0C0CFA03F7BC430D
:1005400005FA03FC4CEA040491F803C0BCF1280F3F
:1005500005D100F1080C08FA0CF8C2F8148091F8E3
:1005600003C0BCF1480F07D100F1080C4FF001089F
:1005700008FA0CF8C2F81080401C0828CED354604A
:10058000BDE8F081416170470161704700BFFEE73F
:1005900000BFFEE77047000070B5002100230F2266
:1005A000C47804B3154C246804F4E064C4F5E06432
:1005B000210AC1F10403CA40447804FA03F18478A3
:1005C0001440214309010E4C0678A155047804F02B
:1005D0001F050124AC4005786D11AD0005F1E02543
:1005E000C5F8004109E0047804F01F050124AC407F
:1005F000044D0678761145F8264070BD0CED00E0FC
:1006000000E400E080E100E07047000029B1064A04
:10061000D2690243044BDA6104E0034AD26982439F
:10062000014BDA61704700000010024029B1064A10
:1006300092690243044B9A6104E0034A926982433F
:10064000014B9A61704700000010024030B5002154
:100650000022002400232D4D6D6805F00C0121B10E
:10066000042905D0082923D105E0294D056022E0A1
:10067000274D05601FE0254D6D6805F47012234D70
:100680006D6805F48034022505EB92421CB9214DBA
:10069000554305600BE01D4D6D6805F400351DB137
:1006A0001C4D5543056002E0194D5543056002E0BD
:1006B000174D056000BF00BF144D6D6805F0F001D7
:1006C0000909154D6B5C0568DD4045600F4D6D688F
:1006D00005F4E061090A104D6B5C4568DD408560FA
:1006E0000A4D6D6805F46051C90A0B4D6B5C456895
:1006F000DD40C560054D6D6805F44041890B074D2F
:100700006B5CC568B5FBF3F5056130BD00100240B8
:1007100000127A0000093D000800002018000020A7
:1007200021B1028842F04002028004E002884FF6C4
:10073000BF731A40028070470246002013890B40A5
:100740000BB1012000E00020704701468889704706
:100750008181704710B50022028802F441520B8853
:100760004C8823438C882343CC8823430C89234320
:100770004C8923438C892343CC8923431A43028029
:10078000838B4FF2FF74234083830B8A038210BD57
:10079000704710B500F002F810BD00000CB5002045
:1007A000019000903348006840F48030314908607F
:1007B00000BF3048006800F4003000900198401CF1
:1007C0000190009818B90198B0F5A06FF1D12948AF
:1007D000006800F4003010B10120009001E000201A
:1007E00000900098012843D12348006840F0100091
:1007F000214908600846006820F0030008600846A8
:10080000006840F0020008601A48406819494860D2
:100810000846406848600846406840F48060486088
:100820000846406820F47C1048600846406840F460
:10083000E81048600846006840F08070086000BF1B
:100840000C48006800F000700028F9D009484068A2
:1008500020F00300074948600846406840F0020065
:10086000486000BF0348406800F00C000828F9D138
:100870000CBD000000100240002002407047000044
:1008800010B51348006840F001001149086008469F
:100890004068104908400E494860084600680E4903
:1008A00008400B4908600846006820F48020086072
:1008B0000846406820F4FE0048604FF41F0088603E
:1008C000FFF767FF4FF000600449086010BD0000AB
:1008D000001002400000FFF8FFFFF6FE08ED00E008
:1008E00010B540F225511D4800F04AF810B31B48DE
:1008F00000F002F9C4B21A48008800F40040C8B9F8
:100900001748008800F4804060B10A2C03D0002012
:100910001349088020E01248008840F40040104944
:10092000088019E00D2C06D10D48008840F4804065
:100930000B49088010E00A480088C0F30D000949FF
:100940000C5407480088401C054908800846008868
:10095000C72801DD0020088010BD000000380140DC
:10096000200000202820002021B1828942F400527A
:10097000828104E082894DF6FF731A4082817047BC
:1009800070B50246002400230025002040F66A16B8
:10099000B14200D100BFC1F3421501F01F0301268F
:1009A00006FA03F3012D02D19689334006E0022DA9
:1009B00002D1168A334001E0968A33400C12012698
:1009C00006FA04F41688344013B10CB1012000E09B
:1009D000002070BDF0B5034600240026002500204D
:1009E00040F66A17B94200D100BF1846C1F342145D
:1009F00001F01F06012707FA06F5012C01D10C3082
:100A000004E0022C01D1103000E014301AB1076864
:100A10002F43076002E00768AF430760F0BD0000A6
:100A20002DE9F04786B005460E460024A24600BFD9
:100A3000A1460027B08900B100BF2F462C8A4CF692
:100A4000FF700440F08804432C82AC894EF6F3100A
:100A50000440B08831890843718908430443AC815C
:100A6000AC8A4FF6FF400440B0890443AC8201A831
:100A7000FFF7ECFD1F48874202D1DDF810A001E02E
:100A8000DDF80CA0A88900F4004040B10AEBCA00D0
:100A900000EB0A1031684900B0FBF1F807E00AEBFF
:100AA000CA0000EB0A1031688900B0FBF1F864203D
:100AB000B8FBF0F004012009642101FB1089A8892A
:100AC00000F4004040B1322000EBC900B0FBF1F06F
:100AD00000F00700044308E0322000EB0910642115
:100AE000B0FBF1F000F00F0004432C8106B0BDE82C
:100AF000F08700000038014001468888C0F30800F4
:100B0000704700BFFEE700BF7047000070B50446A5
:100B10000D4616464FF480510F48FFF733FD032072
:100B200000F0B0F8C4F3074000F0ACF8C4F30720BD
:100B300000F0A8F8E0B200F0A5F803E000F00EF82D
:100B400028706D1C3000A6F10106F7D14FF48051DA
:100B50000148FFF719FD70BD000C014010B50020E1
:100B600000F090F810BD000008B54FF48051104817
:100B7000FFF708FD9F2000F085F8FFF7EFFF0090DA
:100B8000009800020090FFF7E9FF009908430090E9
:100B9000009800020090FFF7E1FF009908430090E1
:100BA0004FF480510248FFF7EFFC009808BD0000A9
:100BB000000C014010B5044600F09EF84FF480513F
:100BC0000C48FFF7DFFC202000F05CF8C4F307407E
:100BD00000F058F8C4F3072000F054F8E0B200F039
:100BE00051F84FF480510348FFF7CEFC00F004F8B1
:100BF00010BD0000000C014010B54FF480510A48B0
:100C0000FFF7C0FC052000F03DF800BFFFF7A6FF8E
:100C1000044604F001000028F8D14FF48051024846
:100C2000FFF7B2FC10BD0000000C014070B5044697
:100C30000D46164600F060F84FF480511048FFF75B
:100C4000A1FC022000F01EF8C4F3074000F01AF8DF
:100C5000C4F3072000F016F8E0B200F013F803E048
:100C6000287800F00FF86D1C3000A6F10106F7D1CE
:100C70004FF480510248FFF787FCFFF7BDFF70BDBE
:100C8000000C014010B504464FF6FE70184908608C
:100C900009E0174801680068401E154A106011B944
:100CA00000F0C6F810BD02211248FFF745FD0028EC
:100CB000EFD021460F48FFF74BFD4FF6FE700C4971
:100CC000086009E00A4801680068401E084A106090
:100CD00011B900F0ADF8E5E701210648FFF72CFD5A
:100CE0000028EFD00348FFF730FDC0B2DAE700007C
:100CF000240000200038004010B54FF48051064811
:100D0000FFF740FC0620FFF7BDFF4FF4805102487B
:100D1000FFF73AFC10BD0000000C014000BF054A7F
:100D2000128802F04002002AF9D0C2B2014B1B1D0A
:100D30001A807047003801404FF4E13000F0F8F8B5
:100D400000F088F829A0FFF767FAFFF70DFF2B499D
:100D50000860084601682AA0FFF75EFA2BA0FFF79B
:100D60005BFA00202D4908600AE02C4800782C49E5
:100D70002A4A1268885429480068401C274908609C
:100D800026480068B0F5805FEFD30020FFF712FF20
:100D90004FF4805222490020FFF748FF4FF4805261
:100DA00020490020FFF7B2FE00201C49086016E031
:100DB0001C481A4A1268815C1BA0FFF72DFA1748DD
:100DC00000680A21B0FBF1F201FB120010B912A079
:100DD000FFF722FA11480068401C104908600F48CC
:100DE0000068B0F5805FE3D300BFFEE7737069B2BF
:100DF000E2CAD4B3CCD0F20D0A00000000000020FB
:100E00004944203A2025580D0A00000053656374B8
:100E10006F722045726173650D0A000004000020A6
:100E200028100020280000203058255820200000DD
:100E300010B502A0FFF7F0F9002010BD3C3C464C75
:100E40004153484552524F523E3EB5C8B4FDB3AC33
:100E5000CAB10A0000B587B001210820FFF7E6FB00
:100E600001218803FFF7D2FB10208DF81B00000240
:100E7000ADF8180003208DF81A0006A92A48FFF7DC
:100E8000F6FA04208DF81B000003ADF818000320CB
:100E90008DF81A0006A92448FFF7E9FA18208DF802
:100EA0001B004FF40040ADF8180003208DF81A0025
:100EB00006A91D48FFF7DBFA18208DF81B004FF438
:100EC0000050ADF8180003208DF81A0006A9164846
:100ED000FFF7CDFA0020ADF810000120ADF80C00AE
:100EE0000220ADF80A000720ADF814000020ADF88C
:100EF0000800ADF80400ADF812004FF48270ADF8B0
:100F000006004FF40070ADF80E0001A90748FFF786
:100F100021FC01210548FFF703FC4FF480510248F2
:100F2000FFF732FB07B000BD000C01400038004065
:100F300010B586B00446012144F20400FFF776FBA9
:100F40004FF40070ADF8140003208DF8160018203F
:100F50008DF8170005A91C48FFF789FA4FF4806047
:100F6000ADF8140004208DF8170005A91648FFF706
:100F70007EFA25208DF8000003208DF801008DF801
:100F8000020001208DF803006846FFF705FB01947D
:100F90000020ADF80800ADF80A00ADF80C00ADF87F
:100FA00010000C20ADF80E0001A90848FFF738FD2D
:100FB000012240F225510548FFF70CFD01210348AD
:100FC000FFF7D2FC06B010BD000801400038014018
:100FD000303132333435363738394142434445466F
:100FE0004030580030313233343536373839616269
:100FF0006364656640307800181000080000002027
:10100000280000006C0100084010000828000020A3
:1010100028270000880100080000000000000000F0
:10102000000000000102030401020304060708098E
:10103000020406080000000000000000FEFF00009F
:0400000508000131BD
:00000001FF
