:020000040800F2
:100000001005002045010008AB010008AD01000803
:10001000AF010008B1010008B301000800000000B2
:10002000000000000000000000000000B501000812
:10003000B701000800000000B9010008BB0100087A
:10004000BD010008BD010008BD010008BD01000898
:10005000BD010008BD010008BD010008BD01000888
:10006000BD010008BD010008BD010008BD01000878
:10007000BD010008BD010008BD010008BD01000868
:10008000BD010008BD010008BD010008BD01000858
:10009000BD010008BD010008BD010008BD01000848
:1000A000BD010008BD010008BD010008BD01000838
:1000B000BD010008DD050008BD010008BD01000804
:1000C000BD010008BD010008BD010008BD01000818
:1000D000BD010008BD01000801070008BD010008BE
:1000E000BD010008BD010008BD010008BD010008F8
:1000F000BD010008BD010008BD010008BD010008E8
:10010000BD010008BD010008BD010008BD010008D7
:10011000BD010008BD010008BD010008BD010008C7
:10012000BD010008BD010008BD010008BD010008B7
:10013000DFF80CD000F07EF8004800474D0C0008B6
:100140001005002000F002F81D4800471D48016816
:1001500041F480310160016811F40031FBD01A488C
:10016000016841F0320101601848016841F4806182
:100170000160016841F480310160016841F4E011DF
:1001800001601048016841F080710160016811F060
:100190000071FBD00D48016841F002010160016867
:1001A00001F00C010839FAD17047FEE7FEE7FEE7DF
:1001B000FEE7FEE7FEE7FEE7FEE7FEE7FEE70000FC
:1001C00031010008001002400020024004100240EB
:1001D0002DE9F05F0546002092469B46884606467C
:1001E000814640241BE0284641464746224600F00F
:1001F00042F853465A46C01A914110D31146184648
:10020000224600F029F82D1A67EB01084F462246D6
:100210000120002100F020F817EB00094E41201EBC
:10022000A4F10104DFDC484631462A464346BDE8D6
:10023000F09F0000064C074D06E0E06840F0010327
:1002400094E8070098471034AC42F6D3FFF774FFE8
:100250006C0E00088C0E0008202A04DB203A00FAFD
:1002600002F1002070479140C2F1200320FA03F30D
:10027000194390407047202A04DB203A21FA02F00B
:100280000021704721FA02F3D040C2F120029140D0
:10029000084319467047000010B500241EA000F066
:1002A0005FFA2BA000F05CFA00BF06E02E48015D6B
:1002B0002EA000F055FA601CC4B22B48883890F884
:1002C0008500A042F2DC2BA000F04AFA002026496B
:1002D000883981F8850027A000F042FA26A000F0B6
:1002E0003FFA002407E020488738015D1FA000F096
:1002F00037FA601CC4B21C48883890F88400A042C9
:10030000F1DC1CA000F02CFA03A000F029FA19A0DF
:1003100000F026FA10BD00002A2A2A2A2A2A2A2AB0
:100320002A2A2A2A2A2A2A2A2A2A2A2A2A2A2A2A2D
:100330002A2A2A2A2A2A2A2A2A2A2A2A2A2A2A2A1D
:100340002A2A2A2A2A2A2A2A2A2A0D0A00000000F2
:10035000D6F7BBFAD2D1B7A2CBCDB5C4C3FCC1EEA0
:10036000CEAA3A30783A00009000002020253032A2
:10037000580000000D0A0000D6F7BBFABDD3CAD55D
:10038000B5BDB5C4BBD8D3A6CEAA3A30783A0000E2
:1003900010B5FFF781FF0020024981F8840081F841
:1003A000870010BD0800002010B50020024981F828
:1003B000860000F0BBF810BD080000202DE9F041D8
:1003C00080460C4615460020564981F885000846AF
:1003D00090F8851090F88500401C524A82F88500FC
:1003E00002F1880000F801800321883890F8852008
:1003F00090F88500401C4B4B83F8850003F1880082
:1004000081542046E11704EB1161C1F3072219461C
:1004100091F8853091F88510491CDFF808C18CF8F7
:1004200085100CF18801CA54E11704EB116109121F
:10043000A4EB0121CAB2614691F8853091F885108C
:10044000491C8CF885100CF18801CA542846E9171C
:1004500005EB1161C1F30722614691F8853091F8EF
:100460008510491C8CF885100CF18801CA54E917D5
:1004700005EB11610912A5EB0121CAB2614691F8A1
:10048000853091F88510491C8CF885100CF1880195
:10049000CA54604690F88510883000F0B3FB0646D9
:1004A0003046F11706EB1161C1F307221D4991F89F
:1004B000853091F88510491CDFF868C08CF88510EC
:1004C0000CF18801CA54F11706EB11610912A6EB71
:1004D0000121CAB2614691F8853091F88510491C16
:1004E0008CF885100CF18801CA540F48006840F060
:1004F00080000D490860002706E00A498831C85D80
:1005000000F05EF8781C87B2064890F88500B84283
:10051000F3DC0548006820F0800003490860BDE86E
:10052000F0810000080000200C1401401F48C06941
:1005300040F400301D49C8610846806940F024003D
:1005400088614FF492401A490860480419490860CC
:100550001948006818490860081F006840F6A6613D
:1005600008431549091F08601448006840F040001E
:100570004FF0E021C1F804010F48006840F02C0062
:100580000D49086000200C490C3908600A480068D1
:1005900040F400500849086006480C30006820F01C
:1005A000800004490C3108607047000000100240D0
:1005B00000080140001401400C44004004E100E048
:1005C0000549086000BF0449091F096801F040019E
:1005D0000029F8D070470000044400400F4800682C
:1005E00000F00100C0B100200C4908600C4890F8F0
:1005F000860088B10A48B0F88200401C0849A1F87A
:1006000082000846B0F88200082805DB002081F847
:100610008600012081F88700704700001004004028
:10062000080000201548C06940F002001349C86165
:1006300047201349086040F2E730091D0860104860
:100640002838006840F001000D4928390860084644
:10065000006840F004000860012009491C39086066
:100660000848006840F000504FF0E021C1F8000158
:10067000012003491839086070470000001002404B
:100680002804004000E100E01148806944F20401C0
:1006900008430F4988614FF492600E4908600E4884
:1006A00000680D490860081F006841F64C51084376
:1006B0000949091F0860081D006840F00C00091D69
:1006C00008600846006840F4005008607047000069
:1006D00000100240040801400C38014000BF0749E7
:1006E000096801F0400129B90449096801F0800155
:1006F0000029F4D00149091D086070470038014005
:100700001448006800F0200010B31248001D006873
:1007100011490870114890F88700012800D17047EE
:100720000D4801780D4890F8842090F88400401C12
:100730000A4B83F88400581C815400201946A1F804
:100740008200084690F88400012801D181F88600D3
:1007500000BFE4E700440040000000200800002043
:100760000FB4054B10B503A9044A029800F018F81D
:1007700010BC5DF814FB00003D0C000804000020D4
:1007800002E008C8121F08C1002AFAD1704770475A
:10079000002001E001C1121F002AFBD170470000B8
:1007A0002DE9FF4F8DB00F460546002606E02528AF
:1007B0000BD0DDE90F1290476D1C761C28780028BD
:1007C000F5D111B03046BDE8F08F0024A246A14615
:1007D0000122EC4900E0044315F8013F203B02FAF6
:1007E00003F00842F7D128782A2810D06FF02F02A2
:1007F0002878A0F13001092914D80AEB8A0102EB0C
:10080000410144F0020400EB010A6D1CF0E701CF46
:100810005FEA000A03D544F40054CAF1000A44F028
:1008200002046D1C28782E2817D115F8010F44F00A
:1008300004042A280ED06FF02F022878A0F130018E
:1008400009290AD809EB890102EB410100EB0109F2
:100850006D1CF2E757F8049B6D1C28786C280FD0AC
:1008600006DC4C2817D068280DD06A2814D104E083
:10087000742810D07A280FD10DE044F400140AE057
:1008800044F4801401E044F440146978814202D1B8
:1008900004F580146D1C6D1C2A786E2A1FD00CDCA8
:1008A000632A31D004DC002A8BD0582A11D1A3E06E
:1008B000642A68D0692A0CD165E0732A2ED004DC42
:1008C0006F2A73D0702A04D19BE0752A6FD0782AE2
:1008D0006ED01046DDE90F129047761C50E1C4F34C
:1008E0000250022806D0032809D0042801CF09D0DD
:1008F000066045E101CFF117C0E9006140E101CF99
:1009000006803DE106703BE117F8040B8DF800000E
:1009100000208DF80100EB46012003E057F804BBEE
:100920004FF0FF3061074FF0000102D40DE008F1F5
:100930000101884649450FDA8045F8DB1BF80810AD
:100940000029F4D108E008F1010188468142FADB70
:100950001BF808100029F6D1DDE90F23AAEB0800E7
:100960008146214600F036F9304400EB080604E0E9
:10097000DDE90F121BF8010B9047B8F10108F7D21F
:1009800021464846F7E00A21C4F302534FF0000B1A
:100990000891022B04D001CFC117032B09D00AE024
:1009A000FF1D27F00707F7E8020108E032E01FE02B
:1009B00020E000B2C117042B01D140B2C117031EC1
:1009C00071F1000307DA4FF0000CD0EB0C006CEB78
:1009D00001012D2302E0230504D52B238DF82430BB
:1009E000012303E0E30701D02023F7E7984658E00E
:1009F0000A2110E010210EE010204FF0000B0890AB
:100A00000CE010214FF0000B44F004044FF00809F3
:100A1000089103E008214FF0000B0891C4F3025342
:100A2000022B04D001CF0021032B06D006E0FF1DCE
:100A300027F00707F7E8020103E080B2042B00D19A
:100A4000C0B24FF0000823072BD5702A07D0DDF87D
:100A500020C08CF0100C5CEA0B0C05D00EE040239B
:100A60008DF82430012308E050EA010306D030233A
:100A70008DF824308DF8252002239846DDF820C01B
:100A80008CF0080C5CEA0B0C0BD150EA010301D18D
:100A9000630706D530238DF824304FF00108A9F103
:100AA0000109582A04D038A20B9208AA0A920BE036
:100AB0003AA2F9E75B46089AFFF78AFB0B9B9B5C1F
:100AC0000A9A521E0A92137050EA0102F2D10A9851
:100AD000ADEB000000F1200B600702D524F4803458
:100AE00001E04FF00109D94502DDA9EB0B0000E060
:100AF000002000EB0B0141440890AAEB010AE0033F
:100B000006D4DDE90F232146504600F063F8064481
:100B10004FF0000908E009A911F80900DDE90F12FA
:100B2000904709F10109761CC145F4DBE0030CD5BF
:100B3000DDE90F232146504600F04CF8064404E05E
:100B4000DDE90F1230209047761C0899481E089066
:100B50000029F5DC08E00A980A990078491C0A91F6
:100B6000DDE90F129047761CBBF10001ABF1010BE0
:100B7000F1DC21465046DDE90F2300F019F8064468
:100B80006D1C1BE60928010030313233343536370D
:100B900038396162636465660000000030313233C9
:100BA0003435363738394142434445460000000069
:100BB0002DE9F041044600251E461746880404D45A
:100BC00005E039462020B0476D1C641EF9D5284643
:100BD000BDE8F0812DE9F041044600251E4690460F
:100BE000C80301D5302700E02027880404D505E09C
:100BF00041463846B0476D1C641EF9D52846BDE80D
:100C0000F081000070B502460C46FF25FF2309E085
:100C100012F8010B80EA05010648405C80EA0305F2
:100C20000548435C2000A4F10106B4B2F0D143EAC8
:100C3000052070BD6A0C00086A0D000800B5024668
:100C40000B46D0B2FFF74AFD104600BDFFF7ACFBE4
:100C5000FFF71AFDFFF7E6FC06E001222A21022039
:100C6000FFF7ACFBFFF794FBF7E700C1814001C041
:100C7000804101C0804100C1814001C0804100C16C
:100C8000814000C1814001C0804101C0804100C15C
:100C9000814000C1814001C0804100C1814001C04C
:100CA000804101C0804100C1814001C0804100C13C
:100CB000814000C1814001C0804100C1814001C02C
:100CC000804101C0804100C1814000C1814001C01C
:100CD000804101C0804100C1814001C0804100C10C
:100CE000814000C1814001C0804101C0804100C1FC
:100CF000814000C1814001C0804100C1814001C0EC
:100D0000804101C0804100C1814000C1814001C0DB
:100D1000804101C0804100C1814001C0804100C1CB
:100D2000814000C1814001C0804100C1814001C0BB
:100D3000804101C0804100C1814001C0804100C1AB
:100D4000814000C1814001C0804101C0804100C19B
:100D5000814000C1814001C0804100C1814001C08B
:100D6000804101C0804100C1814000C0C101C30376
:100D700002C2C60607C705C5C404CC0C0DCD0FCFF3
:100D8000CE0E0ACACB0BC90908C8D81819D91BDB63
:100D9000DA1A1EDEDF1FDD1D1CDC14D4D515D717B3
:100DA00016D6D21213D311D1D010F03031F133F363
:100DB000F23236F6F737F53534F43CFCFD3DFF3FB3
:100DC0003EFEFA3A3BFB39F9F83828E8E929EB2BE3
:100DD0002AEAEE2E2FEF2DEDEC2CE42425E527E773
:100DE000E62622E2E323E12120E0A06061A163A3E3
:100DF000A26266A6A767A56564A46CACAD6DAF6F73
:100E00006EAEAA6A6BAB69A9A86878B8B979BB7BE2
:100E10007ABABE7E7FBF7DBDBC7CB47475B577B732
:100E2000B67672B2B373B17170B050909151935362
:100E3000529296565797559594549C5C5D9D5F9F32
:100E40009E5E5A9A9B5B99595898884849894B8B62
:100E50008A4A4E8E8F4F8D4D4C8C448485458747F2
:100E60004686824243834181804000008C0E000808
:100E7000000000200800000080070008940E000811
:100E8000080000200805000090070008000000008E
:040E9000000000005E
:0400000508000131BD
:00000001FF
