:020000040800F2
:10000000A8070020CD010008DD03000899030008BF
:10001000D9030008750200087709000800000000F5
:100020000000000000000000000000007D05000846
:10003000790200080000000065040008910600082D
:10004000E7010008E7010008E7010008E7010008F0
:10005000E7010008E7010008E7010008E7010008E0
:10006000E7010008E7010008E7010008E7010008D0
:10007000E7010008E7010008E7010008E7010008C0
:10008000E7010008E7010008E7010008E7010008B0
:10009000E7010008E7010008E7010008E7010008A0
:1000A000E7010008E7010008E7010008E701000890
:1000B000E7010008E7010008E7010008E701000880
:1000C000E7010008E7010008E7010008E701000870
:1000D000E7010008F50600087D070008E7010008B1
:1000E000E7010008E7010008E7010008E701000850
:1000F000E7010008E7010008E7010008E701000840
:10010000E7010008E7010008E7010008E70100082F
:10011000E7010008E7010008E7010008E70100081F
:10012000E7010008E7010008E7010008E70100080F
:1001300000F002F800F03AF80AA090E8000C8244BF
:100140008344AAF10107DA4501D100F02FF8AFF29C
:10015000090EBAE80F0013F0010F18BFFB1A43F0A5
:1001600001031847C40A0000E40A0000103A24BF43
:1001700078C878C1FAD8520724BF30C830C144BF0C
:1001800004680C607047000000230024002500264E
:10019000103A28BF78C1FBD8520728BF30C148BFEA
:1001A0000B6070471FB51FBD10B510BD00F033F8D0
:1001B0001146FFF7F7FF00F04FFC00F051F803B4D1
:1001C000FFF7F2FF03BC00F0D8FB000009488047AE
:1001D00009480047FEE7FEE7FEE7FEE7FEE7FEE729
:1001E000FEE7FEE7FEE7FEE704480549054A064B41
:1001F000704700009506000831010008A8010020A2
:10020000A8070020A8030020A8030020704770471B
:10021000704770477047754600F028F8AE460500F5
:100220006946534620F00700854618B020B5FFF711
:10023000DBFFBDE820404FF000064FF000074FF015
:1002400000084FF0000B21F00701AC46ACE8C009F4
:10025000ACE8C009ACE8C009ACE8C0098D467047FD
:100260000446AFF300802046FFF7A9FF004870471F
:100270004801002000BFFEE770472DE9F04102462B
:1002800000250026002000230024002791F803C049
:100290000CF00F0591F803C00CF0100CBCF1000F2E
:1002A00003D091F802C04CEA050591F800C0BCF1FA
:1002B000000F31D0146800202BE04FF0010C0CFA35
:1002C00000F3B1F800C00CEA03069E4220D183007F
:1002D0004FF00F0C0CFA03F7BC4305FA03FC4CEA91
:1002E000040491F803C0BCF1280F06D14FF0010CB3
:1002F0000CFA00FCC2F814C00AE091F803C0BCF18B
:10030000480F05D14FF0010C0CFA00FCC2F810C0E8
:10031000401C0828D1D31460B1F800C0BCF1FF0F15
:1003200034DD546800202EE000F1080C4FF0010885
:1003300008FA0CF3B1F800C00CEA03069E4221D182
:1003400083004FF00F0C0CFA03F7BC4305FA03FCD3
:100350004CEA040491F803C0BCF1280F05D100F168
:10036000080C08FA0CF8C2F8148091F803C0BCF12C
:10037000480F07D100F1080C4FF0010808FA0CF8FB
:10038000C2F81080401C0828CED35460BDE8F0812C
:10039000416170470161704700BFFEE708B5012168
:1003A000442000F071F81C20ADF8000048208DF8C2
:1003B000030069460648FFF760FF0120ADF8000022
:1003C00028208DF8030069460248FFF756FF08BD54
:1003D000001801400008014000BFFEE77047000020
:1003E00070B5002100230F22C47804B3154C246893
:1003F00004F4E064C4F5E064210AC1F10403CA40D6
:10040000447804FA03F184781440214309010E4C26
:100410000678A155047804F01F050124AC40057846
:100420006D11AD0005F1E025C5F8004109E0047843
:1004300004F01F050124AC40044D0678761145F800
:10044000264070BD0CED00E000E400E080E100E03B
:1004500002490143024A1160704700000000FA059A
:100460000CED00E07047000029B1064AD269024352
:10047000044BDA6104E0034AD2698243014BDA613A
:10048000704700000010024029B1064A92690243F9
:10049000044B9A6104E0034A92698243014B9A61DA
:1004A000704700000010024030B5002100220024F7
:1004B00000232D4D6D6805F00C0121B1042905D0F4
:1004C000082923D105E0294D056022E0274D05606C
:1004D0001FE0254D6D6805F47012234D6D6805F41D
:1004E0008034022505EB92421CB9214D554305602D
:1004F0000BE01D4D6D6805F400351DB11C4D5543D5
:10050000056002E0194D5543056002E0174D056096
:1005100000BF00BF144D6D6805F0F0010909154DCD
:100520006B5C0568DD4045600F4D6D6805F4E0616A
:10053000090A104D6B5C4568DD4085600A4D6D68A9
:1005400005F46051C90A0B4D6B5C4568DD40C56020
:10055000054D6D6805F44041890B074D6B5CC5681E
:10056000B5FBF3F5056130BD0010024000127A00C2
:1005700000093D001C0000202C000020704710B531
:1005800000F002F810BD00000CB5002001900090B2
:100590003348006840F480303149086000BF30487B
:1005A000006800F4003000900198401C0190009811
:1005B00018B90198B0F5A06FF1D12948006800F48E
:1005C000003010B10120009001E000200090009860
:1005D000012843D12348006840F0100021490860F9
:1005E0000846006820F0030008600846006840F0F4
:1005F000020008601A484068194948600846406887
:1006000048600846406840F480604860084640689A
:1006100020F47C1048600846406840F4E8104860C8
:100620000846006840F08070086000BF0C48006811
:1006300000F000700028F9D00948406820F003005D
:10064000074948600846406840F00200486000BF23
:100650000348406800F00C000828F9D10CBD0000E8
:100660000010024000200240042808D14FF0E02191
:10067000096941F004014FF0E022116107E04FF0F9
:10068000E021096921F004014FF0E0221161704777
:100690007047000010B51348006840F00100114990
:1006A000086008464068104908400E4948600846FE
:1006B00000680E4908400B4908600846006820F4AD
:1006C000802008600846406820F4FE0048604FF42F
:1006D0001F008860FFF753FF4FF000600449086077
:1006E00010BD0000001002400000FFF8FFFFF6FE02
:1006F00008ED00E010B540F225511D4800F077F8F4
:1007000010B31B4800F02EF9C4B21A48008800F458
:100710000040C8B91748008800F4804060B10A2C36
:1007200003D000201349088020E01248008840F4DC
:1007300000401049088019E00D2C06D10D480088B2
:1007400040F480400B49088010E00A480088C0F35C
:100750000D0009490C5407480088401C05490880D1
:1007600008460088C72801DD0020088010BD000071
:10077000003801403C0000208000002010B540F20D
:1007800025510B4800F033F880B1094800F0EAF831
:10079000C4B208480078402808DA074805490978B3
:1007A000445404480078401C0249087010BD000001
:1007B00000440040300000204000002021B1828928
:1007C00042F40052828104E082894DF6FF731A40A0
:1007D0008281704702460020B1F5007F00D100BF42
:1007E00013880B400BB1012000E00020704770B56A
:1007F0000246002400230025002040F66A16B1427C
:1008000000D100BFC1F3421501F01F03012606FA13
:1008100003F3012D02D19689334006E0022D02D167
:10082000168A334001E0968A33400C12012606FAFC
:1008300004F41688344013B10CB1012000E000200C
:1008400070BDF0B50346002400260025002040F6C8
:100850006A17B94200D100BF1846C1F3421401F033
:100860001F06012707FA06F5012C01D10C3004E020
:10087000022C01D1103000E014301AB107682F4368
:10088000076002E00768AF430760F0BD2DE9F0475D
:1008900086B005460E460024A24600BFA1460027AA
:1008A000B08900B100BF2F462C8A4CF6FF7004407F
:1008B000F08804432C82AC894EF6F3100440B088D3
:1008C00031890843718908430443AC81AC8A4FF6EF
:1008D000FF400440B0890443AC8201A8FFF7E4FD67
:1008E0001F48874202D1DDF810A001E0DDF80CA01E
:1008F000A88900F4004040B10AEBCA0000EB0A10DE
:1009000031684900B0FBF1F807E00AEBCA0000EBE0
:100910000A1031688900B0FBF1F86420B8FBF0F0F0
:1009200004012009642101FB1089A88900F400401A
:1009300040B1322000EBC900B0FBF1F000F007003D
:10094000044308E0322000EB09106421B0FBF1F011
:1009500000F00F0004432C8106B0BDE8F0870000D2
:100960000038014001468888C0F308007047C1F391
:1009700008028280704700BFFEE700BF704700009A
:1009800010B56FF00400FFF76FFE0A4800680A49CF
:10099000B0FBF1F0094908700846007800EB40010F
:1009A000C1EBC0104FF6FF7101EAC0000449088096
:1009B00010BD00000800002000127A003200002064
:1009C000340000200146114A12884A434FF0E023C8
:1009D0005A6100229A611A46126942F001021A61B4
:1009E00000BF4FF0E022106900F001021AB100F4DC
:1009F0008032002AF5D04FF0E022126922F0010285
:100A00004FF0E0231A6100229A6170473400002001
:100A100010B5044614B101200D4908700C48007847
:100A200068B10C48006850B90520FFF7CBFF0020E3
:100A3000074908700748006838B9012010BD05480B
:100A40000068012801D1024908700020F6E7000083
:100A500007000020100123424FF4A060FFF7F8FCCC
:100A600059201E490870482048700C208870C870B2
:100A70000B200871FFF792FC00F03AF8FFF780FFB7
:100A80002BE00020FFF7C4FF1549087008460078E6
:100A9000012819D10521114800F0A2F800201149C0
:100AA00008700DE00D480F490978405C401C0B4967
:100AB0000C4A127888540B480078401C0949087089
:100AC000084800780528EDDB07480068C04307495F
:100AD000C1F89401C820FFF775FFD2E7010000209C
:100AE0000000002006000020948121420080214265
:100AF00000B587B001212C20FFF7C6FC0121480476
:100B0000FFF7B2FC10208DF81B002020ADF8180074
:100B100003208DF81A0006A92D48FFF7AEFB20210F
:100B20002B48FFF737FC8020ADF8180010208DF817
:100B30001B0003208DF81A0006A92648FFF79DFB2D
:100B400018208DF81B000420ADF8180003208DF844
:100B50001A0006A92048FFF790FB04208DF81B001F
:100B60000820ADF8180006A91B48FFF786FB4FF4D4
:100B7000165001900020ADF81000ADF808000C20D0
:100B8000ADF80E000020ADF80C00ADF80A0001A988
:100B90001248FFF77BFE26208DF8140001208DF807
:100BA00017008DF815008DF8160005A8FFF718FC42
:100BB000012240F225510948FFF743FE0121074871
:100BC000FFF7FCFD80210348FFF7E2FB07B000BD03
:100BD000000C0140001401400008014000440040A6
:100BE00070B505460E4601200C49086000240CE053
:100BF000295D0B48FFF7BBFE00BF40210848FFF707
:100C0000E9FD0028F9D0601CC4B2B442F0DB00203A
:100C1000044908700149086070BD00009C812242AF
:100C20000044004030000020480C00080000002074
:100C3000400000006C010008880C00084000002003
:100C400068070000880100080000000000000000A4
:100C500000A24A040000000000000000010203049A
:100C60000607080900000000010203040102030452
:100C70000607080902040608000000000000000042
:080C800000000000000000006C
:0400000508000131BD
:00000001FF
